{
  "_format": "hh-sol-artifact-1",
  "contractName": "BridgeMintableTokenV2",
  "sourceName": "contracts/utils/ChainportLERC20.sol",
  "abi": [
    {
      "anonymous": false,
      "inputs": [
        {
          "indexed": true,
          "internalType": "address",
          "name": "addr",
          "type": "address"
        }
      ],
      "name": "AddressBlocked",
      "type": "event"
    },
    {
      "anonymous": false,
      "inputs": [
        {
          "indexed": true,
          "internalType": "address",
          "name": "addr",
          "type": "address"
        }
      ],
      "name": "AddressUnblocked",
      "type": "event"
    },
    {
      "anonymous": false,
      "inputs": [
        {
          "indexed": true,
          "internalType": "address",
          "name": "owner",
          "type": "address"
        },
        {
          "indexed": true,
          "internalType": "address",
          "name": "spender",
          "type": "address"
        },
        {
          "indexed": false,
          "internalType": "uint256",
          "name": "value",
          "type": "uint256"
        }
      ],
      "name": "Approval",
      "type": "event"
    },
    {
      "anonymous": false,
      "inputs": [
        {
          "indexed": true,
          "internalType": "address",
          "name": "token",
          "type": "address"
        },
        {
          "indexed": false,
          "internalType": "uint256",
          "name": "amount",
          "type": "uint256"
        }
      ],
      "name": "BlackFundsDestroyed",
      "type": "event"
    },
    {
      "anonymous": false,
      "inputs": [
        {
          "indexed": true,
          "internalType": "address",
          "name": "addr",
          "type": "address"
        }
      ],
      "name": "ChainportBridgeChanged",
      "type": "event"
    },
    {
      "anonymous": false,
      "inputs": [
        {
          "indexed": true,
          "internalType": "address",
          "name": "addr",
          "type": "address"
        }
      ],
      "name": "ChainportCongressChanged",
      "type": "event"
    },
    {
      "anonymous": false,
      "inputs": [
        {
          "indexed": false,
          "internalType": "address",
          "name": "blacklisted",
          "type": "address"
        }
      ],
      "name": "ConfirmBlacklisted",
      "type": "event"
    },
    {
      "anonymous": false,
      "inputs": [
        {
          "indexed": true,
          "internalType": "address",
          "name": "to",
          "type": "address"
        },
        {
          "indexed": false,
          "internalType": "uint256",
          "name": "amount",
          "type": "uint256"
        }
      ],
      "name": "Mint",
      "type": "event"
    },
    {
      "anonymous": false,
      "inputs": [
        {
          "indexed": false,
          "internalType": "address",
          "name": "account",
          "type": "address"
        }
      ],
      "name": "Paused",
      "type": "event"
    },
    {
      "anonymous": false,
      "inputs": [
        {
          "indexed": true,
          "internalType": "address",
          "name": "token",
          "type": "address"
        },
        {
          "indexed": true,
          "internalType": "address",
          "name": "to",
          "type": "address"
        },
        {
          "indexed": false,
          "internalType": "uint256",
          "name": "amount",
          "type": "uint256"
        }
      ],
      "name": "StuckTokenWithdrawn",
      "type": "event"
    },
    {
      "anonymous": false,
      "inputs": [
        {
          "indexed": true,
          "internalType": "address",
          "name": "from",
          "type": "address"
        },
        {
          "indexed": true,
          "internalType": "address",
          "name": "to",
          "type": "address"
        },
        {
          "indexed": false,
          "internalType": "uint256",
          "name": "value",
          "type": "uint256"
        }
      ],
      "name": "Transfer",
      "type": "event"
    },
    {
      "anonymous": false,
      "inputs": [
        {
          "indexed": false,
          "internalType": "address",
          "name": "account",
          "type": "address"
        }
      ],
      "name": "Unpaused",
      "type": "event"
    },
    {
      "inputs": [
        {
          "internalType": "bytes",
          "name": "key",
          "type": "bytes"
        }
      ],
      "name": "acceptRecoveryAdminOwnership",
      "outputs": [],
      "stateMutability": "nonpayable",
      "type": "function"
    },
    {
      "inputs": [],
      "name": "admin",
      "outputs": [
        {
          "internalType": "address",
          "name": "",
          "type": "address"
        }
      ],
      "stateMutability": "view",
      "type": "function"
    },
    {
      "inputs": [
        {
          "internalType": "address",
          "name": "owner",
          "type": "address"
        },
        {
          "internalType": "address",
          "name": "spender",
          "type": "address"
        }
      ],
      "name": "allowance",
      "outputs": [
        {
          "internalType": "uint256",
          "name": "",
          "type": "uint256"
        }
      ],
      "stateMutability": "view",
      "type": "function"
    },
    {
      "inputs": [
        {
          "internalType": "address",
          "name": "spender",
          "type": "address"
        },
        {
          "internalType": "uint256",
          "name": "amount",
          "type": "uint256"
        }
      ],
      "name": "approve",
      "outputs": [
        {
          "internalType": "bool",
          "name": "",
          "type": "bool"
        }
      ],
      "stateMutability": "nonpayable",
      "type": "function"
    },
    {
      "inputs": [
        {
          "internalType": "address",
          "name": "account",
          "type": "address"
        }
      ],
      "name": "balanceOf",
      "outputs": [
        {
          "internalType": "uint256",
          "name": "",
          "type": "uint256"
        }
      ],
      "stateMutability": "view",
      "type": "function"
    },
    {
      "inputs": [
        {
          "internalType": "address",
          "name": "addressToBlock",
          "type": "address"
        }
      ],
      "name": "blockAddress",
      "outputs": [],
      "stateMutability": "nonpayable",
      "type": "function"
    },
    {
      "inputs": [
        {
          "internalType": "uint256",
          "name": "amount",
          "type": "uint256"
        }
      ],
      "name": "burn",
      "outputs": [],
      "stateMutability": "nonpayable",
      "type": "function"
    },
    {
      "inputs": [
        {
          "internalType": "address",
          "name": "account",
          "type": "address"
        },
        {
          "internalType": "uint256",
          "name": "amount",
          "type": "uint256"
        }
      ],
      "name": "burnFrom",
      "outputs": [],
      "stateMutability": "nonpayable",
      "type": "function"
    },
    {
      "inputs": [],
      "name": "chainportBridge",
      "outputs": [
        {
          "internalType": "address",
          "name": "",
          "type": "address"
        }
      ],
      "stateMutability": "view",
      "type": "function"
    },
    {
      "inputs": [],
      "name": "chainportCongress",
      "outputs": [
        {
          "internalType": "address",
          "name": "",
          "type": "address"
        }
      ],
      "stateMutability": "view",
      "type": "function"
    },
    {
      "inputs": [
        {
          "internalType": "address",
          "name": "",
          "type": "address"
        }
      ],
      "name": "confirmedBlacklist",
      "outputs": [
        {
          "internalType": "bool",
          "name": "",
          "type": "bool"
        }
      ],
      "stateMutability": "view",
      "type": "function"
    },
    {
      "inputs": [],
      "name": "decimals",
      "outputs": [
        {
          "internalType": "uint8",
          "name": "",
          "type": "uint8"
        }
      ],
      "stateMutability": "view",
      "type": "function"
    },
    {
      "inputs": [
        {
          "internalType": "address",
          "name": "spender",
          "type": "address"
        },
        {
          "internalType": "uint256",
          "name": "subtractedValue",
          "type": "uint256"
        }
      ],
      "name": "decreaseAllowance",
      "outputs": [
        {
          "internalType": "bool",
          "name": "",
          "type": "bool"
        }
      ],
      "stateMutability": "nonpayable",
      "type": "function"
    },
    {
      "inputs": [
        {
          "internalType": "address",
          "name": "maliciousAddress",
          "type": "address"
        },
        {
          "internalType": "uint256",
          "name": "amount",
          "type": "uint256"
        }
      ],
      "name": "destroyBlackFunds",
      "outputs": [],
      "stateMutability": "nonpayable",
      "type": "function"
    },
    {
      "inputs": [],
      "name": "executeLosslessTurnOff",
      "outputs": [],
      "stateMutability": "nonpayable",
      "type": "function"
    },
    {
      "inputs": [],
      "name": "executeLosslessTurnOn",
      "outputs": [],
      "stateMutability": "nonpayable",
      "type": "function"
    },
    {
      "inputs": [
        {
          "internalType": "address",
          "name": "spender",
          "type": "address"
        },
        {
          "internalType": "uint256",
          "name": "addedValue",
          "type": "uint256"
        }
      ],
      "name": "increaseAllowance",
      "outputs": [
        {
          "internalType": "bool",
          "name": "",
          "type": "bool"
        }
      ],
      "stateMutability": "nonpayable",
      "type": "function"
    },
    {
      "inputs": [
        {
          "internalType": "string",
          "name": "tokenName_",
          "type": "string"
        },
        {
          "internalType": "string",
          "name": "tokenSymbol_",
          "type": "string"
        },
        {
          "internalType": "uint8",
          "name": "decimals_",
          "type": "uint8"
        },
        {
          "internalType": "address",
          "name": "chainportCongress_",
          "type": "address"
        }
      ],
      "name": "initialize",
      "outputs": [],
      "stateMutability": "nonpayable",
      "type": "function"
    },
    {
      "inputs": [
        {
          "internalType": "address",
          "name": "",
          "type": "address"
        }
      ],
      "name": "isBlocked",
      "outputs": [
        {
          "internalType": "bool",
          "name": "",
          "type": "bool"
        }
      ],
      "stateMutability": "view",
      "type": "function"
    },
    {
      "inputs": [],
      "name": "isLosslessOn",
      "outputs": [
        {
          "internalType": "bool",
          "name": "",
          "type": "bool"
        }
      ],
      "stateMutability": "view",
      "type": "function"
    },
    {
      "inputs": [],
      "name": "lossless",
      "outputs": [
        {
          "internalType": "contract ILssController",
          "name": "",
          "type": "address"
        }
      ],
      "stateMutability": "view",
      "type": "function"
    },
    {
      "inputs": [],
      "name": "losslessTurnOffTimestamp",
      "outputs": [
        {
          "internalType": "uint256",
          "name": "",
          "type": "uint256"
        }
      ],
      "stateMutability": "view",
      "type": "function"
    },
    {
      "inputs": [
        {
          "internalType": "address",
          "name": "_to",
          "type": "address"
        },
        {
          "internalType": "uint256",
          "name": "_amount",
          "type": "uint256"
        }
      ],
      "name": "mint",
      "outputs": [],
      "stateMutability": "nonpayable",
      "type": "function"
    },
    {
      "inputs": [],
      "name": "name",
      "outputs": [
        {
          "internalType": "string",
          "name": "",
          "type": "string"
        }
      ],
      "stateMutability": "view",
      "type": "function"
    },
    {
      "inputs": [],
      "name": "pause",
      "outputs": [],
      "stateMutability": "nonpayable",
      "type": "function"
    },
    {
      "inputs": [],
      "name": "paused",
      "outputs": [
        {
          "internalType": "bool",
          "name": "",
          "type": "bool"
        }
      ],
      "stateMutability": "view",
      "type": "function"
    },
    {
      "inputs": [],
      "name": "proposeLosslessTurnOff",
      "outputs": [],
      "stateMutability": "nonpayable",
      "type": "function"
    },
    {
      "inputs": [],
      "name": "recoveryAdmin",
      "outputs": [
        {
          "internalType": "address",
          "name": "",
          "type": "address"
        }
      ],
      "stateMutability": "view",
      "type": "function"
    },
    {
      "inputs": [
        {
          "internalType": "address[]",
          "name": "blacklist",
          "type": "address[]"
        },
        {
          "internalType": "bool",
          "name": "value",
          "type": "bool"
        }
      ],
      "name": "setBlacklist",
      "outputs": [],
      "stateMutability": "nonpayable",
      "type": "function"
    },
    {
      "inputs": [
        {
          "internalType": "address",
          "name": "_chainportCongress",
          "type": "address"
        }
      ],
      "name": "setChainportCongress",
      "outputs": [],
      "stateMutability": "nonpayable",
      "type": "function"
    },
    {
      "inputs": [
        {
          "internalType": "address",
          "name": "newAdmin",
          "type": "address"
        }
      ],
      "name": "setLosslessAdmin",
      "outputs": [],
      "stateMutability": "nonpayable",
      "type": "function"
    },
    {
      "inputs": [
        {
          "internalType": "address",
          "name": "_controller",
          "type": "address"
        }
      ],
      "name": "setLosslessController",
      "outputs": [],
      "stateMutability": "nonpayable",
      "type": "function"
    },
    {
      "inputs": [
        {
          "internalType": "address",
          "name": "_chainportBridge",
          "type": "address"
        }
      ],
      "name": "setSideBridgeContract",
      "outputs": [],
      "stateMutability": "nonpayable",
      "type": "function"
    },
    {
      "inputs": [],
      "name": "symbol",
      "outputs": [
        {
          "internalType": "string",
          "name": "",
          "type": "string"
        }
      ],
      "stateMutability": "view",
      "type": "function"
    },
    {
      "inputs": [],
      "name": "timelockPeriod",
      "outputs": [
        {
          "internalType": "uint256",
          "name": "",
          "type": "uint256"
        }
      ],
      "stateMutability": "view",
      "type": "function"
    },
    {
      "inputs": [],
      "name": "totalSupply",
      "outputs": [
        {
          "internalType": "uint256",
          "name": "",
          "type": "uint256"
        }
      ],
      "stateMutability": "view",
      "type": "function"
    },
    {
      "inputs": [
        {
          "internalType": "address",
          "name": "recipient",
          "type": "address"
        },
        {
          "internalType": "uint256",
          "name": "amount",
          "type": "uint256"
        }
      ],
      "name": "transfer",
      "outputs": [
        {
          "internalType": "bool",
          "name": "",
          "type": "bool"
        }
      ],
      "stateMutability": "nonpayable",
      "type": "function"
    },
    {
      "inputs": [
        {
          "internalType": "address",
          "name": "sender",
          "type": "address"
        },
        {
          "internalType": "address",
          "name": "recipient",
          "type": "address"
        },
        {
          "internalType": "uint256",
          "name": "amount",
          "type": "uint256"
        }
      ],
      "name": "transferFrom",
      "outputs": [
        {
          "internalType": "bool",
          "name": "",
          "type": "bool"
        }
      ],
      "stateMutability": "nonpayable",
      "type": "function"
    },
    {
      "inputs": [
        {
          "internalType": "address[]",
          "name": "from",
          "type": "address[]"
        }
      ],
      "name": "transferOutBlacklistedFunds",
      "outputs": [],
      "stateMutability": "nonpayable",
      "type": "function"
    },
    {
      "inputs": [
        {
          "internalType": "address",
          "name": "candidate",
          "type": "address"
        },
        {
          "internalType": "bytes32",
          "name": "keyHash",
          "type": "bytes32"
        }
      ],
      "name": "transferRecoveryAdminOwnership",
      "outputs": [],
      "stateMutability": "nonpayable",
      "type": "function"
    },
    {
      "inputs": [
        {
          "internalType": "address",
          "name": "addressToUnblock",
          "type": "address"
        }
      ],
      "name": "unblockAddress",
      "outputs": [],
      "stateMutability": "nonpayable",
      "type": "function"
    },
    {
      "inputs": [],
      "name": "unpause",
      "outputs": [],
      "stateMutability": "nonpayable",
      "type": "function"
    },
    {
      "inputs": [
        {
          "internalType": "address",
          "name": "token",
          "type": "address"
        },
        {
          "internalType": "address",
          "name": "beneficiary",
          "type": "address"
        }
      ],
      "name": "withdrawTokenIfStuck",
      "outputs": [],
      "stateMutability": "nonpayable",
      "type": "function"
    }
  ],
  "bytecode": "0x608060405260a0805460ff1916600117905534801561001d57600080fd5b506130d58061002d6000396000f3fe608060405234801561001057600080fd5b50600436106102695760003560e01c806361086b0011610151578063ad2bb1b3116100c3578063ccfa214f11610087578063ccfa214f14610848578063d6e242b814610850578063dd62ed3e14610858578063de7ea79d14610886578063f851a440146109c0578063fbac3951146109c857610269565b8063ad2bb1b314610748578063b38fe9571461076e578063b5c2287714610776578063b81ce0991461081a578063bd49945e1461084057610269565b80638e8ecaff116101155780638e8ecaff1461062857806393310ffe1461064e578063936af9111461067a57806395d89b41146106e8578063a457c2d7146106f0578063a9059cbb1461071c57610269565b806361086b00146105a0578063666a7e49146105a857806370a08231146105ce57806379cc6790146105f45780638456cb591461062057610269565b80632ecaf675116101ea57806340c10f19116101ae57806340c10f191461051357806342966c681461053f57806353d51e641461055c5780635b8a194a146105885780635c975abb146105905780635f6529a31461059857610269565b80632ecaf675146104b1578063313ce567146104b957806334f6ebf5146104d757806339509351146104df5780633f4ba83a1461050b57610269565b806318160ddd1161023157806318160ddd146103ef578063186d9d8814610409578063225707ee1461042f57806323b872dd146104555780632baa3c9e1461048b57610269565b8063041386671461026e57806306fdde0314610292578063095ea7b31461030f5780630b32c2b61461034f5780630e85d1e31461037f575b600080fd5b6102766109ee565b604080516001600160a01b039092168252519081900360200190f35b61029a6109fd565b6040805160208082528351818301528351919283929083019185019080838360005b838110156102d45781810151838201526020016102bc565b50505050905090810190601f1680156103015780820380516001836020036101000a031916815260200191505b509250505060405180910390f35b61033b6004803603604081101561032557600080fd5b506001600160a01b038135169060200135610a93565b604080519115158252519081900360200190f35b61037d6004803603604081101561036557600080fd5b506001600160a01b0381358116916020013516610ab0565b005b61037d6004803603604081101561039557600080fd5b810190602081018135600160201b8111156103af57600080fd5b8201836020820111156103c157600080fd5b803590602001918460208302840111600160201b831117156103e257600080fd5b9193509150351515610c3e565b6103f7610d6a565b60408051918252519081900360200190f35b61037d6004803603602081101561041f57600080fd5b50356001600160a01b0316610d70565b61037d6004803603602081101561044557600080fd5b50356001600160a01b0316610e02565b61033b6004803603606081101561046b57600080fd5b506001600160a01b03813581169160208101359091169060400135610ee0565b61037d600480360360208110156104a157600080fd5b50356001600160a01b0316610f67565b6103f761104a565b6104c1611050565b6040805160ff9092168252519081900360200190f35b610276611059565b61033b600480360360408110156104f557600080fd5b506001600160a01b03813516906020013561106d565b61037d6110bb565b61037d6004803603604081101561052957600080fd5b506001600160a01b03813516906020013561110e565b61037d6004803603602081101561055557600080fd5b503561128a565b61037d6004803603604081101561057257600080fd5b506001600160a01b038135169060200135611329565b61037d6113bf565b61033b61149a565b6102766114a3565b6103f76114b2565b61037d600480360360208110156105be57600080fd5b50356001600160a01b03166114b8565b6103f7600480360360208110156105e457600080fd5b50356001600160a01b0316611596565b61037d6004803603604081101561060a57600080fd5b506001600160a01b0381351690602001356115b1565b61037d611689565b61037d6004803603602081101561063e57600080fd5b50356001600160a01b03166116ef565b61037d6004803603604081101561066457600080fd5b506001600160a01b03813516906020013561180c565b61037d6004803603602081101561069057600080fd5b810190602081018135600160201b8111156106aa57600080fd5b8201836020820111156106bc57600080fd5b803590602001918460208302840111600160201b831117156106dd57600080fd5b509092509050611890565b61029a611a1a565b61033b6004803603604081101561070657600080fd5b506001600160a01b038135169060200135611a7b565b61033b6004803603604081101561073257600080fd5b506001600160a01b038135169060200135611ae3565b61037d6004803603602081101561075e57600080fd5b50356001600160a01b0316611af7565b61037d611ba1565b61037d6004803603602081101561078c57600080fd5b810190602081018135600160201b8111156107a657600080fd5b8201836020820111156107b857600080fd5b803590602001918460018302840111600160201b831117156107d957600080fd5b91908080601f016020809104026020016040519081016040528093929190818152602001838380828437600092019190915250929550611ccc945050505050565b61033b6004803603602081101561083057600080fd5b50356001600160a01b0316611db5565b610276611dca565b61033b611dd9565b61037d611de2565b6103f76004803603604081101561086e57600080fd5b506001600160a01b0381358116916020013516611f07565b61037d6004803603608081101561089c57600080fd5b810190602081018135600160201b8111156108b657600080fd5b8201836020820111156108c857600080fd5b803590602001918460018302840111600160201b831117156108e957600080fd5b91908080601f0160208091040260200160405190810160405280939291908181526020018383808284376000920191909152509295949360208101935035915050600160201b81111561093b57600080fd5b82018360208201111561094d57600080fd5b803590602001918460018302840111600160201b8311171561096e57600080fd5b91908080601f0160208091040260200160405190810160405280939291908181526020018383808284376000920191909152509295505050813560ff16925050602001356001600160a01b0316611f32565b61027661201b565b61033b600480360360208110156109de57600080fd5b50356001600160a01b031661202a565b6097546001600160a01b031681565b60368054604080516020601f6002600019610100600188161502019095169490940493840181900481028201810190925282815260609390929091830182828015610a895780601f10610a5e57610100808354040283529160200191610a89565b820191906000526020600020905b815481529060010190602001808311610a6c57829003601f168201915b5050505050905090565b6000610aa7610aa061203f565b8484612043565b50600192915050565b6098546001600160a01b03163314610af95760405162461bcd60e51b81526004018080602001828103825260478152602001806130346047913960600191505060405180910390fd5b6000826001600160a01b03166370a08231306040518263ffffffff1660e01b815260040180826001600160a01b0316815260200191505060206040518083038186803b158015610b4857600080fd5b505afa158015610b5c573d6000803e3d6000fd5b505050506040513d6020811015610b7257600080fd5b50516040805163a9059cbb60e01b81526001600160a01b0385811660048301526024820184905291519293509085169163a9059cbb916044808201926020929091908290030181600087803b158015610bca57600080fd5b505af1158015610bde573d6000803e3d6000fd5b505050506040513d6020811015610bf457600080fd5b50506040805182815290516001600160a01b0380851692908616917f3d95e1dd133840fdfe95e9a3b6c9fc44f85019531359313e278c6e358ef5b1e09181900360200190a3505050565b6097546001600160a01b0316331480610c6157506098546001600160a01b031633145b610c9c5760405162461bcd60e51b815260040180806020018281038252604b815260200180612f5f604b913960600191505060405180910390fd5b8160005b81811015610d63578260a16000878785818110610cb957fe5b905060200201356001600160a01b03166001600160a01b03166001600160a01b0316815260200190815260200160002060006101000a81548160ff0219169083151502179055507f8e7a36ae2fd7b3451aa65867e55716567fdcf3288d8547c99aed81330615b3b7858583818110610d2d57fe5b905060200201356001600160a01b031660405180826001600160a01b0316815260200191505060405180910390a1600101610ca0565b5050505050565b60355490565b6098546001600160a01b03163314610db95760405162461bcd60e51b81526004018080602001828103825260478152602001806130346047913960600191505060405180910390fd5b6001600160a01b038116600081815260996020526040808220805460ff19169055517f385b21b54e2348e690dec29e9741026142b02eaabfcc2fcb676cebcb7cd165349190a250565b6098546001600160a01b03163314610e4b5760405162461bcd60e51b81526004018080602001828103825260478152602001806130346047913960600191505060405180910390fd5b6001600160a01b038116610e905760405162461bcd60e51b8152600401808060200182810382526027815260200180612eec6027913960400191505060405180910390fd5b609780546001600160a01b0319166001600160a01b0383811691909117918290556040519116907fa4806beb0a4e458bcf69bd0560b351bb202d5994f67560adb68ae3eba54e022990600090a250565b6000610eed84848461212f565b610f5d84610ef961203f565b610f5885604051806060016040528060288152602001612f13602891396001600160a01b038a16600090815260346020526040812090610f3761203f565b6001600160a01b03168152602081019190915260400160002054919061227a565b612043565b5060019392505050565b6097546001600160a01b0316331480610f8a57506098546001600160a01b031633145b610fc55760405162461bcd60e51b815260040180806020018281038252604b815260200180612f5f604b913960600191505060405180910390fd5b609a546001600160a01b0382811691161415611028576040805162461bcd60e51b815260206004820152601f60248201527f4c45524332303a2043616e6e6f74207365742073616d65206164647265737300604482015290519081900360640190fd5b609a80546001600160a01b0319166001600160a01b0392909216919091179055565b609e5481565b60385460ff1690565b60a05461010090046001600160a01b031681565b6000610aa761107a61203f565b84610f58856034600061108b61203f565b6001600160a01b03908116825260208083019390935260409182016000908120918c168152925290205490612311565b6098546001600160a01b031633146111045760405162461bcd60e51b81526004018080602001828103825260478152602001806130346047913960600191505060405180910390fd5b61110c612372565b565b60a0548290829060ff16156111905760a054604080516218a28b60e61b81526001600160a01b03858116600483015260248201859052915161010090930490911691630628a2c09160448082019260009290919082900301818387803b15801561117757600080fd5b505af115801561118b573d6000803e3d6000fd5b505050505b61119861149a565b156111dd576040805162461bcd60e51b815260206004820152601060248201526f14185d5cd8589b194e881c185d5cd95960821b604482015290519081900360640190fd5b6097546001600160a01b031633148061120057506098546001600160a01b031633145b61123b5760405162461bcd60e51b815260040180806020018281038252604b815260200180612f5f604b913960600191505060405180910390fd5b6112458484612412565b6040805184815290516001600160a01b038616917f0f6798a560793a54c3bcfe86a93cde1e73087d944c0ea20544137d4121396885919081900360200190a250505050565b61129261203f565b60a054829060ff16156113135760a05460408051634a1fefbd60e01b81526001600160a01b03858116600483015260248201859052915161010090930490911691634a1fefbd9160448082019260009290919082900301818387803b1580156112fa57600080fd5b505af115801561130e573d6000803e3d6000fd5b505050505b61132461131e61203f565b846124f2565b505050565b6098546001600160a01b031633146113725760405162461bcd60e51b81526004018080602001828103825260478152602001806130346047913960600191505060405180910390fd5b61137c82826124f2565b6040805182815290516001600160a01b038416917fb75973bd2c1c5ab88f6b9c63c7ec73c8c977f6f7919200604deedf8a55d0df98919081900360200190a25050565b609b546001600160a01b03166113d361203f565b6001600160a01b03161461142e576040805162461bcd60e51b815260206004820152601e60248201527f4c45524332303a204d757374206265207265636f766572792061646d696e0000604482015290519081900360640190fd5b60a05460ff1615611486576040805162461bcd60e51b815260206004820152601b60248201527f4c45524332303a204c6f73736c65737320616c7265616479206f6e0000000000604482015290519081900360640190fd5b6000609f5560a0805460ff19166001179055565b60655460ff1690565b609b546001600160a01b031681565b609f5481565b6098546001600160a01b031633146115015760405162461bcd60e51b81526004018080602001828103825260478152602001806130346047913960600191505060405180910390fd5b6001600160a01b0381166115465760405162461bcd60e51b8152600401808060200182810382526027815260200180612eec6027913960400191505060405180910390fd5b609880546001600160a01b0319166001600160a01b0383811691909117918290556040519116907f18cbd07a42915267c1e13d09b58425ee55fb96e784d88375e15be2384abf38dc90600090a250565b6001600160a01b031660009081526033602052604090205490565b60a0548290829060ff16156116345760a05460408051634a1fefbd60e01b81526001600160a01b03858116600483015260248201859052915161010090930490911691634a1fefbd9160448082019260009290919082900301818387803b15801561161b57600080fd5b505af115801561162f573d6000803e3d6000fd5b505050505b600061166b84604051806060016040528060248152602001612f3b602491396116648861165f61203f565b611f07565b919061227a565b905061167f8561167961203f565b83612043565b610d6385856124f2565b6097546001600160a01b03163314806116ac57506098546001600160a01b031633145b6116e75760405162461bcd60e51b815260040180806020018281038252604b815260200180612f5f604b913960600191505060405180910390fd5b61110c6125dc565b6097546001600160a01b031633148061171257506098546001600160a01b031633145b61174d5760405162461bcd60e51b815260040180806020018281038252604b815260200180612f5f604b913960600191505060405180910390fd5b6001600160a01b0381166117925760405162461bcd60e51b8152600401808060200182810382526037815260200180612eb56037913960400191505060405180910390fd5b60a0546001600160a01b038281166101009092041614156117e45760405162461bcd60e51b815260040180806020018281038252602d815260200180612e5a602d913960400191505060405180910390fd5b60a080546001600160a01b0390921661010002610100600160a81b0319909216919091179055565b6097546001600160a01b031633148061182f57506098546001600160a01b031633145b61186a5760405162461bcd60e51b815260040180806020018281038252604b815260200180612f5f604b913960600191505060405180910390fd5b609c80546001600160a01b0319166001600160a01b039390931692909217909155609d55565b60a05461010090046001600160a01b03166118a961203f565b6001600160a01b031614611904576040805162461bcd60e51b815260206004820152601e60248201527f4c45524332303a204f6e6c79206c6f73736c65737320636f6e74726163740000604482015290519081900360640190fd5b806000805b828110156119f857600085858381811061191f57fe5b602090810292909201356001600160a01b0316600081815260a19093526040909220549192505060ff1661199a576040805162461bcd60e51b815260206004820152601f60248201527f4c45524332303a20426c61636b6c697374206e6f7420636f6e6669726d656400604482015290519081900360640190fd5b60006119a582611596565b90506119b1828261265f565b60a054604080518381529051958301956001600160a01b03610100909304831692851691600080516020612faa833981519152919081900360200190a35050600101611909565b5060a054611a149061010090046001600160a01b031682612682565b50505050565b60378054604080516020601f6002600019610100600188161502019095169490940493840181900481028201810190925282815260609390929091830182828015610a895780601f10610a5e57610100808354040283529160200191610a89565b6000610aa7611a8861203f565b84610f588560405180606001604052806025815260200161307b6025913960346000611ab261203f565b6001600160a01b03908116825260208083019390935260409182016000908120918d1681529252902054919061227a565b6000610aa7611af061203f565b848461212f565b6097546001600160a01b0316331480611b1a57506098546001600160a01b031633145b611b555760405162461bcd60e51b815260040180806020018281038252604b815260200180612f5f604b913960600191505060405180910390fd5b6001600160a01b038116600081815260996020526040808220805460ff19166001179055517f71fa9c99da9552de60a9ccf693f5a91456cbb8c205c8e532b1f55339903543cf9190a250565b609b546001600160a01b0316611bb561203f565b6001600160a01b031614611c10576040805162461bcd60e51b815260206004820152601e60248201527f4c45524332303a204d757374206265207265636f766572792061646d696e0000604482015290519081900360640190fd5b609f54611c64576040805162461bcd60e51b815260206004820152601c60248201527f4c45524332303a205475726e4f6666206e6f742070726f706f73656400000000604482015290519081900360640190fd5b42609f541115611cbb576040805162461bcd60e51b815260206004820152601d60248201527f4c45524332303a2054696d65206c6f636b20696e2070726f6772657373000000604482015290519081900360640190fd5b60a0805460ff191690556000609f55565b609c546001600160a01b0316611ce061203f565b6001600160a01b031614611d3b576040805162461bcd60e51b815260206004820152601960248201527f4c45524332303a204d7573742062652063616e64697461746500000000000000604482015290519081900360640190fd5b609d548151602083012014611d8d576040805162461bcd60e51b81526020600482015260136024820152724c45524332303a20496e76616c6964206b657960681b604482015290519081900360640190fd5b50609c8054609b80546001600160a01b03199081166001600160a01b03841617909155169055565b60a16020526000908152604090205460ff1681565b6098546001600160a01b031681565b60a05460ff1681565b609b546001600160a01b0316611df661203f565b6001600160a01b031614611e51576040805162461bcd60e51b815260206004820152601e60248201527f4c45524332303a204d757374206265207265636f766572792061646d696e0000604482015290519081900360640190fd5b609f5415611ea6576040805162461bcd60e51b815260206004820181905260248201527f4c45524332303a205475726e4f666620616c72656164792070726f706f736564604482015290519081900360640190fd5b60a05460ff16611efd576040805162461bcd60e51b815260206004820152601c60248201527f4c45524332303a204c6f73736c65737320616c7265616479206f666600000000604482015290519081900360640190fd5b609e544201609f55565b6001600160a01b03918216600090815260346020908152604080832093909416825291909152205490565b600054610100900460ff1680611f4b5750611f4b6126a4565b80611f59575060005460ff16155b611f945760405162461bcd60e51b815260040180806020018281038252602e815260200180612e87602e913960400191505060405180910390fd5b600054610100900460ff16158015611fbf576000805460ff1961ff0019909116610100171660011790555b611fc985856126b5565b611fd161276a565b611fda8361281c565b609880546001600160a01b0384166001600160a01b03199182161790915560978054909116331790558015610d63576000805461ff00191690555050505050565b609a546001600160a01b031681565b60996020526000908152604090205460ff1681565b3390565b6001600160a01b0383166120885760405162461bcd60e51b81526004018080602001828103825260248152602001806130106024913960400191505060405180910390fd5b6001600160a01b0382166120cd5760405162461bcd60e51b8152600401808060200182810382526022815260200180612deb6022913960400191505060405180910390fd5b6001600160a01b03808416600081815260346020908152604080832094871680845294825291829020859055815185815291517f8c5be1e5ebec7d5bd14f71427d1e84f3dd0314c0f7b2291e5b200ac8c7c3b9259281900390910190a3505050565b6001600160a01b0383166121745760405162461bcd60e51b8152600401808060200182810382526025815260200180612feb6025913960400191505060405180910390fd5b6001600160a01b0382166121b95760405162461bcd60e51b8152600401808060200182810382526023815260200180612da66023913960400191505060405180910390fd5b6121c4838383612832565b61220181604051806060016040528060268152602001612e0d602691396001600160a01b038616600090815260336020526040902054919061227a565b6001600160a01b0380851660009081526033602052604080822093909355908416815220546122309082612311565b6001600160a01b038084166000818152603360209081526040918290209490945580518581529051919392871692600080516020612faa83398151915292918290030190a3505050565b600081848411156123095760405162461bcd60e51b81526004018080602001828103825283818151815260200191508051906020019080838360005b838110156122ce5781810151838201526020016122b6565b50505050905090810190601f1680156122fb5780820380516001836020036101000a031916815260200191505b509250505060405180910390fd5b505050900390565b60008282018381101561236b576040805162461bcd60e51b815260206004820152601b60248201527f536166654d6174683a206164646974696f6e206f766572666c6f770000000000604482015290519081900360640190fd5b9392505050565b61237a61149a565b6123c2576040805162461bcd60e51b815260206004820152601460248201527314185d5cd8589b194e881b9bdd081c185d5cd95960621b604482015290519081900360640190fd5b6065805460ff191690557f5db9ee0a495bf2e6ff9c91a7834c1ba4fdd244a5e8aa4e537bd38aeae4b073aa6123f561203f565b604080516001600160a01b039092168252519081900360200190a1565b6001600160a01b03821661246d576040805162461bcd60e51b815260206004820152601f60248201527f45524332303a206d696e7420746f20746865207a65726f206164647265737300604482015290519081900360640190fd5b61247960008383612832565b6035546124869082612311565b6035556001600160a01b0382166000908152603360205260409020546124ac9082612311565b6001600160a01b0383166000818152603360209081526040808320949094558351858152935192939192600080516020612faa8339815191529281900390910190a35050565b6001600160a01b0382166125375760405162461bcd60e51b8152600401808060200182810382526021815260200180612fca6021913960400191505060405180910390fd5b61254382600083612832565b61258081604051806060016040528060228152602001612dc9602291396001600160a01b038516600090815260336020526040902054919061227a565b6001600160a01b0383166000908152603360205260409020556035546125a6908261293f565b6035556040805182815290516000916001600160a01b03851691600080516020612faa8339815191529181900360200190a35050565b6125e461149a565b15612629576040805162461bcd60e51b815260206004820152601060248201526f14185d5cd8589b194e881c185d5cd95960821b604482015290519081900360640190fd5b6065805460ff191660011790557f62e78cea01bee320cd4e420270b5ea74000d11b0c9f74754ebdbfc544b05a2586123f561203f565b6001600160a01b0390911660009081526033602052604090208054919091039055565b6001600160a01b03909116600090815260336020526040902080549091019055565b60006126af3061299c565b15905090565b600054610100900460ff16806126ce57506126ce6126a4565b806126dc575060005460ff16155b6127175760405162461bcd60e51b815260040180806020018281038252602e815260200180612e87602e913960400191505060405180910390fd5b600054610100900460ff16158015612742576000805460ff1961ff0019909116610100171660011790555b61274a6129a2565b6127548383612a42565b8015611324576000805461ff0019169055505050565b600054610100900460ff168061278357506127836126a4565b80612791575060005460ff16155b6127cc5760405162461bcd60e51b815260040180806020018281038252602e815260200180612e87602e913960400191505060405180910390fd5b600054610100900460ff161580156127f7576000805460ff1961ff0019909116610100171660011790555b6127ff6129a2565b612807612b1a565b8015612819576000805461ff00191690555b50565b6038805460ff191660ff92909216919091179055565b61283d838383611324565b61284561203f565b6001600160a01b0316836001600160a01b0316141561286d576128688282612bc5565b612878565b612878838383612c63565b6098546001600160a01b038481169116146113245761289561149a565b156128e7576040805162461bcd60e51b815260206004820152601d60248201527f436861696e706f7274546f6b656e3a20546f6b656e207061757365642e000000604482015290519081900360640190fd5b6001600160a01b03831660009081526099602052604090205460ff16156113245760405162461bcd60e51b8152600401808060200182810382526027815260200180612e336027913960400191505060405180910390fd5b600082821115612996576040805162461bcd60e51b815260206004820152601e60248201527f536166654d6174683a207375627472616374696f6e206f766572666c6f770000604482015290519081900360640190fd5b50900390565b3b151590565b600054610100900460ff16806129bb57506129bb6126a4565b806129c9575060005460ff16155b612a045760405162461bcd60e51b815260040180806020018281038252602e815260200180612e87602e913960400191505060405180910390fd5b600054610100900460ff16158015612807576000805460ff1961ff0019909116610100171660011790558015612819576000805461ff001916905550565b600054610100900460ff1680612a5b5750612a5b6126a4565b80612a69575060005460ff16155b612aa45760405162461bcd60e51b815260040180806020018281038252602e815260200180612e87602e913960400191505060405180910390fd5b600054610100900460ff16158015612acf576000805460ff1961ff0019909116610100171660011790555b8251612ae2906036906020860190612d12565b508151612af6906037906020850190612d12565b506038805460ff191660121790558015611324576000805461ff0019169055505050565b600054610100900460ff1680612b335750612b336126a4565b80612b41575060005460ff16155b612b7c5760405162461bcd60e51b815260040180806020018281038252602e815260200180612e87602e913960400191505060405180910390fd5b600054610100900460ff16158015612ba7576000805460ff1961ff0019909116610100171660011790555b6065805460ff191690558015612819576000805461ff001916905550565b60a05460ff1615612c5f5760a05461010090046001600160a01b0316631ffb811f612bee61203f565b84846040518463ffffffff1660e01b815260040180846001600160a01b03168152602001836001600160a01b031681526020018281526020019350505050600060405180830381600087803b158015612c4657600080fd5b505af1158015612c5a573d6000803e3d6000fd5b505050505b5050565b60a05460ff16156113245760a05461010090046001600160a01b031663379f5c69612c8c61203f565b8585856040518563ffffffff1660e01b815260040180856001600160a01b03168152602001846001600160a01b03168152602001836001600160a01b03168152602001828152602001945050505050600060405180830381600087803b158015612cf557600080fd5b505af1158015612d09573d6000803e3d6000fd5b50505050505050565b828054600181600116156101000203166002900490600052602060002090601f016020900481019282601f10612d5357805160ff1916838001178555612d80565b82800160010185558215612d80579182015b82811115612d80578251825591602001919060010190612d65565b50612d8c929150612d90565b5090565b5b80821115612d8c5760008155600101612d9156fe45524332303a207472616e7366657220746f20746865207a65726f206164647265737345524332303a206275726e20616d6f756e7420657863656564732062616c616e636545524332303a20617070726f766520746f20746865207a65726f206164647265737345524332303a207472616e7366657220616d6f756e7420657863656564732062616c616e6365436861696e706f7274546f6b656e3a2053656e646572206164647265737320626c6f636b65642e4272696467654d696e7461626c65546f6b656e3a2043616e6e6f74207365742073616d6520616464726573732e496e697469616c697a61626c653a20636f6e747261637420697320616c726561647920696e697469616c697a65644272696467654d696e7461626c65546f6b656e3a20436f6e74726f6c6c65722063616e6e6f74206265207a65726f20616464726573732e4272696467654d696e7461626c65546f6b656e3a2041646472657373206d616c666f726d65642e45524332303a207472616e7366657220616d6f756e74206578636565647320616c6c6f77616e636545524332303a206275726e20616d6f756e74206578636565647320616c6c6f77616e63654272696467654d696e7461626c65546f6b656e3a2046756e6374696f6e2063616e2062652063616c6c6564206f6e6c79206279206120636c617373696669656420617574686f726974792eddf252ad1be2c89b69c2b068fc378daa952ba7f163c4a11628f55a4df523b3ef45524332303a206275726e2066726f6d20746865207a65726f206164647265737345524332303a207472616e736665722066726f6d20746865207a65726f206164647265737345524332303a20617070726f76652066726f6d20746865207a65726f20616464726573734272696467654d696e7461626c65546f6b656e3a2046756e6374696f6e2063616e2062652063616c6c6564206f6e6c7920627920436861696e706f727420436f6e67726573732e45524332303a2064656372656173656420616c6c6f77616e63652062656c6f77207a65726fa2646970667358221220cdeb78e2d8fa9298f3ce553b17e3d8c8f4dbc61c70e7ce65afd7d64f817440a864736f6c634300060c0033",
  "linkReferences": {},
  "deployedLinkReferences": {}
}