{
  "_format": "hh-sol-artifact-1",
  "contractName": "ChainportLERC20",
  "sourceName": "contracts/utils/ChainportLERC20_old.sol",
  "abi": [
    {
      "inputs": [
        {
          "internalType": "uint256",
          "name": "totalSupply_",
          "type": "uint256"
        },
        {
          "internalType": "string",
          "name": "name_",
          "type": "string"
        },
        {
          "internalType": "string",
          "name": "symbol_",
          "type": "string"
        },
        {
          "internalType": "address",
          "name": "admin_",
          "type": "address"
        },
        {
          "internalType": "address",
          "name": "recoveryAdmin_",
          "type": "address"
        },
        {
          "internalType": "uint256",
          "name": "timelockPeriod_",
          "type": "uint256"
        },
        {
          "internalType": "address",
          "name": "lossless_",
          "type": "address"
        },
        {
          "internalType": "address",
          "name": "chainportAdmin_",
          "type": "address"
        }
      ],
      "stateMutability": "nonpayable",
      "type": "constructor"
    },
    {
      "anonymous": false,
      "inputs": [
        {
          "indexed": true,
          "internalType": "address",
          "name": "_owner",
          "type": "address"
        },
        {
          "indexed": true,
          "internalType": "address",
          "name": "_spender",
          "type": "address"
        },
        {
          "indexed": false,
          "internalType": "uint256",
          "name": "_value",
          "type": "uint256"
        }
      ],
      "name": "Approval",
      "type": "event"
    },
    {
      "anonymous": false,
      "inputs": [
        {
          "indexed": false,
          "internalType": "address",
          "name": "blacklisted",
          "type": "address"
        }
      ],
      "name": "ConfirmBlacklisted",
      "type": "event"
    },
    {
      "anonymous": false,
      "inputs": [],
      "name": "LosslessOff",
      "type": "event"
    },
    {
      "anonymous": false,
      "inputs": [],
      "name": "LosslessOn",
      "type": "event"
    },
    {
      "anonymous": false,
      "inputs": [
        {
          "indexed": false,
          "internalType": "uint256",
          "name": "_turnOffDate",
          "type": "uint256"
        }
      ],
      "name": "LosslessTurnOffProposal",
      "type": "event"
    },
    {
      "anonymous": false,
      "inputs": [
        {
          "indexed": true,
          "internalType": "address",
          "name": "_newAdmin",
          "type": "address"
        }
      ],
      "name": "NewAdmin",
      "type": "event"
    },
    {
      "anonymous": false,
      "inputs": [
        {
          "indexed": true,
          "internalType": "address",
          "name": "_newAdmin",
          "type": "address"
        }
      ],
      "name": "NewRecoveryAdmin",
      "type": "event"
    },
    {
      "anonymous": false,
      "inputs": [
        {
          "indexed": true,
          "internalType": "address",
          "name": "_candidate",
          "type": "address"
        }
      ],
      "name": "NewRecoveryAdminProposal",
      "type": "event"
    },
    {
      "anonymous": false,
      "inputs": [
        {
          "indexed": true,
          "internalType": "address",
          "name": "_from",
          "type": "address"
        },
        {
          "indexed": true,
          "internalType": "address",
          "name": "_to",
          "type": "address"
        },
        {
          "indexed": false,
          "internalType": "uint256",
          "name": "_value",
          "type": "uint256"
        }
      ],
      "name": "Transfer",
      "type": "event"
    },
    {
      "inputs": [
        {
          "internalType": "bytes",
          "name": "key",
          "type": "bytes"
        }
      ],
      "name": "acceptRecoveryAdminOwnership",
      "outputs": [],
      "stateMutability": "nonpayable",
      "type": "function"
    },
    {
      "inputs": [],
      "name": "admin",
      "outputs": [
        {
          "internalType": "address",
          "name": "",
          "type": "address"
        }
      ],
      "stateMutability": "view",
      "type": "function"
    },
    {
      "inputs": [
        {
          "internalType": "address",
          "name": "owner",
          "type": "address"
        },
        {
          "internalType": "address",
          "name": "spender",
          "type": "address"
        }
      ],
      "name": "allowance",
      "outputs": [
        {
          "internalType": "uint256",
          "name": "",
          "type": "uint256"
        }
      ],
      "stateMutability": "view",
      "type": "function"
    },
    {
      "inputs": [
        {
          "internalType": "address",
          "name": "spender",
          "type": "address"
        },
        {
          "internalType": "uint256",
          "name": "amount",
          "type": "uint256"
        }
      ],
      "name": "approve",
      "outputs": [
        {
          "internalType": "bool",
          "name": "",
          "type": "bool"
        }
      ],
      "stateMutability": "nonpayable",
      "type": "function"
    },
    {
      "inputs": [
        {
          "internalType": "address",
          "name": "account",
          "type": "address"
        }
      ],
      "name": "balanceOf",
      "outputs": [
        {
          "internalType": "uint256",
          "name": "",
          "type": "uint256"
        }
      ],
      "stateMutability": "view",
      "type": "function"
    },
    {
      "inputs": [
        {
          "internalType": "uint256",
          "name": "amount",
          "type": "uint256"
        }
      ],
      "name": "burn",
      "outputs": [],
      "stateMutability": "nonpayable",
      "type": "function"
    },
    {
      "inputs": [
        {
          "internalType": "address",
          "name": "account",
          "type": "address"
        },
        {
          "internalType": "uint256",
          "name": "amount",
          "type": "uint256"
        }
      ],
      "name": "burnFrom",
      "outputs": [],
      "stateMutability": "nonpayable",
      "type": "function"
    },
    {
      "inputs": [],
      "name": "chainportAdmin",
      "outputs": [
        {
          "internalType": "address",
          "name": "",
          "type": "address"
        }
      ],
      "stateMutability": "view",
      "type": "function"
    },
    {
      "inputs": [
        {
          "internalType": "address",
          "name": "",
          "type": "address"
        }
      ],
      "name": "confirmedBlacklist",
      "outputs": [
        {
          "internalType": "bool",
          "name": "",
          "type": "bool"
        }
      ],
      "stateMutability": "view",
      "type": "function"
    },
    {
      "inputs": [],
      "name": "decimals",
      "outputs": [
        {
          "internalType": "uint8",
          "name": "",
          "type": "uint8"
        }
      ],
      "stateMutability": "view",
      "type": "function"
    },
    {
      "inputs": [
        {
          "internalType": "address",
          "name": "spender",
          "type": "address"
        },
        {
          "internalType": "uint256",
          "name": "subtractedValue",
          "type": "uint256"
        }
      ],
      "name": "decreaseAllowance",
      "outputs": [
        {
          "internalType": "bool",
          "name": "",
          "type": "bool"
        }
      ],
      "stateMutability": "nonpayable",
      "type": "function"
    },
    {
      "inputs": [],
      "name": "executeLosslessTurnOff",
      "outputs": [],
      "stateMutability": "nonpayable",
      "type": "function"
    },
    {
      "inputs": [],
      "name": "executeLosslessTurnOn",
      "outputs": [],
      "stateMutability": "nonpayable",
      "type": "function"
    },
    {
      "inputs": [],
      "name": "getAdmin",
      "outputs": [
        {
          "internalType": "address",
          "name": "",
          "type": "address"
        }
      ],
      "stateMutability": "view",
      "type": "function"
    },
    {
      "inputs": [
        {
          "internalType": "address",
          "name": "spender",
          "type": "address"
        },
        {
          "internalType": "uint256",
          "name": "addedValue",
          "type": "uint256"
        }
      ],
      "name": "increaseAllowance",
      "outputs": [
        {
          "internalType": "bool",
          "name": "",
          "type": "bool"
        }
      ],
      "stateMutability": "nonpayable",
      "type": "function"
    },
    {
      "inputs": [],
      "name": "isLosslessOn",
      "outputs": [
        {
          "internalType": "bool",
          "name": "",
          "type": "bool"
        }
      ],
      "stateMutability": "view",
      "type": "function"
    },
    {
      "inputs": [],
      "name": "lossless",
      "outputs": [
        {
          "internalType": "contract ILssController",
          "name": "",
          "type": "address"
        }
      ],
      "stateMutability": "view",
      "type": "function"
    },
    {
      "inputs": [],
      "name": "losslessTurnOffTimestamp",
      "outputs": [
        {
          "internalType": "uint256",
          "name": "",
          "type": "uint256"
        }
      ],
      "stateMutability": "view",
      "type": "function"
    },
    {
      "inputs": [
        {
          "internalType": "address",
          "name": "to",
          "type": "address"
        },
        {
          "internalType": "uint256",
          "name": "amount",
          "type": "uint256"
        }
      ],
      "name": "mint",
      "outputs": [],
      "stateMutability": "nonpayable",
      "type": "function"
    },
    {
      "inputs": [],
      "name": "name",
      "outputs": [
        {
          "internalType": "string",
          "name": "",
          "type": "string"
        }
      ],
      "stateMutability": "view",
      "type": "function"
    },
    {
      "inputs": [],
      "name": "proposeLosslessTurnOff",
      "outputs": [],
      "stateMutability": "nonpayable",
      "type": "function"
    },
    {
      "inputs": [],
      "name": "recoveryAdmin",
      "outputs": [
        {
          "internalType": "address",
          "name": "",
          "type": "address"
        }
      ],
      "stateMutability": "view",
      "type": "function"
    },
    {
      "inputs": [
        {
          "internalType": "address[]",
          "name": "blacklist",
          "type": "address[]"
        },
        {
          "internalType": "bool",
          "name": "value",
          "type": "bool"
        }
      ],
      "name": "setBlacklist",
      "outputs": [],
      "stateMutability": "nonpayable",
      "type": "function"
    },
    {
      "inputs": [
        {
          "internalType": "address",
          "name": "newAdmin",
          "type": "address"
        }
      ],
      "name": "setChainportAdmin",
      "outputs": [],
      "stateMutability": "nonpayable",
      "type": "function"
    },
    {
      "inputs": [
        {
          "internalType": "address",
          "name": "newAdmin",
          "type": "address"
        }
      ],
      "name": "setLosslessAdmin",
      "outputs": [],
      "stateMutability": "nonpayable",
      "type": "function"
    },
    {
      "inputs": [],
      "name": "symbol",
      "outputs": [
        {
          "internalType": "string",
          "name": "",
          "type": "string"
        }
      ],
      "stateMutability": "view",
      "type": "function"
    },
    {
      "inputs": [],
      "name": "timelockPeriod",
      "outputs": [
        {
          "internalType": "uint256",
          "name": "",
          "type": "uint256"
        }
      ],
      "stateMutability": "view",
      "type": "function"
    },
    {
      "inputs": [],
      "name": "totalSupply",
      "outputs": [
        {
          "internalType": "uint256",
          "name": "",
          "type": "uint256"
        }
      ],
      "stateMutability": "view",
      "type": "function"
    },
    {
      "inputs": [
        {
          "internalType": "address",
          "name": "recipient",
          "type": "address"
        },
        {
          "internalType": "uint256",
          "name": "amount",
          "type": "uint256"
        }
      ],
      "name": "transfer",
      "outputs": [
        {
          "internalType": "bool",
          "name": "",
          "type": "bool"
        }
      ],
      "stateMutability": "nonpayable",
      "type": "function"
    },
    {
      "inputs": [
        {
          "internalType": "address",
          "name": "sender",
          "type": "address"
        },
        {
          "internalType": "address",
          "name": "recipient",
          "type": "address"
        },
        {
          "internalType": "uint256",
          "name": "amount",
          "type": "uint256"
        }
      ],
      "name": "transferFrom",
      "outputs": [
        {
          "internalType": "bool",
          "name": "",
          "type": "bool"
        }
      ],
      "stateMutability": "nonpayable",
      "type": "function"
    },
    {
      "inputs": [
        {
          "internalType": "address[]",
          "name": "from",
          "type": "address[]"
        }
      ],
      "name": "transferOutBlacklistedFunds",
      "outputs": [],
      "stateMutability": "nonpayable",
      "type": "function"
    },
    {
      "inputs": [
        {
          "internalType": "address",
          "name": "candidate",
          "type": "address"
        },
        {
          "internalType": "bytes32",
          "name": "keyHash",
          "type": "bytes32"
        }
      ],
      "name": "transferRecoveryAdminOwnership",
      "outputs": [],
      "stateMutability": "nonpayable",
      "type": "function"
    }
  ],
  "bytecode": "0x6080604052600c805460ff191660011790553480156200001e57600080fd5b50604051620021ff380380620021ff83398101604081905262000041916200038f565b6001600160a01b0381166200009d5760405162461bcd60e51b815260206004820152601c60248201527f4c53533a204d7573742073657420436861696e706f727441646d696e0000000060448201526064015b60405180910390fd5b620000a9338962000156565b8651620000be9060039060208a019062000219565b508551620000d490600490602089019062000219565b50600880546001600160a01b039687166001600160a01b031991821617909155600980549287169282169290921790915560058054948616948216949094179093556006805490931690925560006007819055600a91909155600b55600c80549190921661010002610100600160a81b031990911617905550620004cd915050565b6001600160a01b038216620001ae5760405162461bcd60e51b815260206004820181905260248201527f4c45524332303a206d696e7420746f20746865207a65726f2061646472657373604482015260640162000094565b8060026000828254620001c2919062000455565b90915550506001600160a01b038216600081815260208181526040808320805486019055518481527fddf252ad1be2c89b69c2b068fc378daa952ba7f163c4a11628f55a4df523b3ef910160405180910390a35050565b82805462000227906200047a565b90600052602060002090601f0160209004810192826200024b576000855562000296565b82601f106200026657805160ff191683800117855562000296565b8280016001018555821562000296579182015b828111156200029657825182559160200191906001019062000279565b50620002a4929150620002a8565b5090565b5b80821115620002a45760008155600101620002a9565b80516001600160a01b0381168114620002d757600080fd5b919050565b600082601f830112620002ed578081fd5b81516001600160401b03808211156200030a576200030a620004b7565b604051601f8301601f19908116603f01168101908282118183101715620003355762000335620004b7565b8160405283815260209250868385880101111562000351578485fd5b8491505b8382101562000374578582018301518183018401529082019062000355565b838211156200038557848385830101525b9695505050505050565b600080600080600080600080610100898b031215620003ac578384fd5b885160208a01519098506001600160401b0380821115620003cb578586fd5b620003d98c838d01620002dc565b985060408b0151915080821115620003ef578586fd5b50620003fe8b828c01620002dc565b9650506200040f60608a01620002bf565b94506200041f60808a01620002bf565b935060a089015192506200043660c08a01620002bf565b91506200044660e08a01620002bf565b90509295985092959890939650565b600082198211156200047557634e487b7160e01b81526011600452602481fd5b500190565b600181811c908216806200048f57607f821691505b60208210811415620004b157634e487b7160e01b600052602260045260246000fd5b50919050565b634e487b7160e01b600052604160045260246000fd5b611d2280620004dd6000396000f3fe608060405234801561001057600080fd5b50600436106101f05760003560e01c806361086b001161010f578063a9059cbb116100a2578063ccfa214f11610071578063ccfa214f1461042d578063d6e242b81461043a578063dd62ed3e14610442578063f851a4401461047b57600080fd5b8063a9059cbb146103dc578063b38fe957146103ef578063b5c22877146103f7578063b81ce0991461040a57600080fd5b806393310ffe116100de57806393310ffe1461039b578063936af911146103ae57806395d89b41146103c1578063a457c2d7146103c957600080fd5b806361086b00146103455780636e9960c31461034e57806370a082311461035f57806379cc67901461038857600080fd5b8063313ce5671161018757806340c10f191161015657806340c10f191461030457806342966c68146103175780635b8a194a1461032a5780635f6529a31461033257600080fd5b8063313ce5671461029f57806334f6ebf5146102ae57806339509351146102de5780633accc7fc146102f157600080fd5b806323b872dd116101c357806323b872dd1461025d5780632baa3c9e146102705780632ecaf675146102835780632fc25a211461028c57600080fd5b806306fdde03146101f5578063095ea7b3146102135780630e85d1e31461023657806318160ddd1461024b575b600080fd5b6101fd61048e565b60405161020a9190611bac565b60405180910390f35b610226610221366004611a04565b610520565b604051901515815260200161020a565b610249610244366004611a6d565b6105b2565b005b6002545b60405190815260200161020a565b61022661026b3660046119c9565b610708565b61024961027e366004611976565b610857565b61024f600a5481565b61024961029a366004611976565b61093e565b6040516012815260200161020a565b600c546102c69061010090046001600160a01b031681565b6040516001600160a01b03909116815260200161020a565b6102266102ec366004611a04565b610a55565b6009546102c6906001600160a01b031681565b610249610312366004611a04565b610b07565b610249610325366004611b70565b610bed565b610249610c77565b6005546102c6906001600160a01b031681565b61024f600b5481565b6008546001600160a01b03166102c6565b61024f61036d366004611976565b6001600160a01b031660009081526020819052604090205490565b610249610396366004611a04565b610d3a565b6102496103a9366004611a04565b610e39565b6102496103bc366004611a2d565b610ebc565b6101fd61107b565b6102266103d7366004611a04565b61108a565b6102266103ea366004611a04565b6111a4565b61024961122b565b610249610405366004611ac6565b611339565b610226610418366004611976565b600d6020526000908152604090205460ff1681565b600c546102269060ff1681565b610249611449565b61024f610450366004611997565b6001600160a01b03918216600090815260016020908152604080832093909416825291909152205490565b6008546102c6906001600160a01b031681565b60606003805461049d90611c65565b80601f01602080910402602001604051908101604052809291908181526020018280546104c990611c65565b80156105165780601f106104eb57610100808354040283529160200191610516565b820191906000526020600020905b8154815290600101906020018083116104f957829003601f168201915b5050505050905090565b600c546000908390839060ff161561059c57600c5461010090046001600160a01b03166347abf3be3384846040518463ffffffff1660e01b815260040161056993929190611b88565b600060405180830381600087803b15801561058357600080fd5b505af1158015610597573d6000803e3d6000fd5b505050505b6105a7338686611565565b506001949350505050565b6009546001600160a01b0316336001600160a01b03161461061a5760405162461bcd60e51b815260206004820152601f60248201527f4c45524332303a204d75737420626520436861696e706f72742041646d696e0060448201526064015b60405180910390fd5b8160005b818110156107015782600d600087878581811061064b57634e487b7160e01b600052603260045260246000fd5b90506020020160208101906106609190611976565b6001600160a01b031681526020810191909152604001600020805460ff19169115159190911790557f8e7a36ae2fd7b3451aa65867e55716567fdcf3288d8547c99aed81330615b3b78585838181106106c957634e487b7160e01b600052603260045260246000fd5b90506020020160208101906106de9190611976565b6040516001600160a01b03909116815260200160405180910390a160010161061e565b5050505050565b600c5460009084908490849060ff16156107a457600c5461010090046001600160a01b031663379f5c69336040516001600160e01b031960e084901b1681526001600160a01b0391821660048201528187166024820152908516604482015260648101849052608401600060405180830381600087803b15801561078b57600080fd5b505af115801561079f573d6000803e3d6000fd5b505050505b6001600160a01b03871660009081526001602090815260408083203384529091529020548581101561082a5760405162461bcd60e51b815260206004820152602960248201527f4c45524332303a207472616e7366657220616d6f756e74206578636565647320604482015268616c6c6f77616e636560b81b6064820152608401610611565b6108358888886115c7565b61084988336108448985611c4e565b611565565b506001979650505050505050565b6005546001600160a01b0316336001600160a01b03161461088a5760405162461bcd60e51b815260040161061190611bff565b6008546001600160a01b03828116911614156108e85760405162461bcd60e51b815260206004820152601f60248201527f4c45524332303a2043616e6e6f74207365742073616d652061646472657373006044820152606401610611565b6040516001600160a01b038216907f71614071b88dee5e0b2ae578a9dd7b2ebbe9ae832ba419dc0242cd065a290b6c90600090a2600880546001600160a01b0319166001600160a01b0392909216919091179055565b6009546001600160a01b0316336001600160a01b0316146109a15760405162461bcd60e51b815260206004820152601f60248201527f4c45524332303a204d75737420626520436861696e706f72742041646d696e006044820152606401610611565b6009546001600160a01b03828116911614156109ff5760405162461bcd60e51b815260206004820152601f60248201527f4c45524332303a2043616e6e6f74207365742073616d652061646472657373006044820152606401610611565b6040516001600160a01b038216907f71614071b88dee5e0b2ae578a9dd7b2ebbe9ae832ba419dc0242cd065a290b6c90600090a2600980546001600160a01b0319166001600160a01b0392909216919091179055565b600c546000908390839060ff1615610ad157600c5461010090046001600160a01b031663cf5961bb3384846040518463ffffffff1660e01b8152600401610a9e93929190611b88565b600060405180830381600087803b158015610ab857600080fd5b505af1158015610acc573d6000803e3d6000fd5b505050505b3360008181526001602090815260408083206001600160a01b038a1684529091529020546105a791908790610844908890611c36565b600c548290829060ff1615610b8257600c546040516218a28b60e61b81526001600160a01b0384811660048301526024820184905261010090920490911690630628a2c090604401600060405180830381600087803b158015610b6957600080fd5b505af1158015610b7d573d6000803e3d6000fd5b505050505b6008546001600160a01b0316336001600160a01b031614610bdd5760405162461bcd60e51b81526020600482015260156024820152742622a92199181d1026bab9ba1031329030b236b4b760591b6044820152606401610611565b610be7848461172d565b50505050565b33600c54829060ff1615610c6857600c54604051634a1fefbd60e01b81526001600160a01b0384811660048301526024820184905261010090920490911690634a1fefbd90604401600060405180830381600087803b158015610c4f57600080fd5b505af1158015610c63573d6000803e3d6000fd5b505050505b610c7233846117da565b505050565b6005546001600160a01b0316336001600160a01b031614610caa5760405162461bcd60e51b815260040161061190611bff565b600c5460ff1615610cfd5760405162461bcd60e51b815260206004820152601b60248201527f4c45524332303a204c6f73736c65737320616c7265616479206f6e00000000006044820152606401610611565b6000600b819055600c805460ff191660011790556040517f1ba3b66404043da8297d0b876fa6464f2cb127edfc6626308046d4503028322b9190a1565b600c548290829060ff1615610db657600c54604051634a1fefbd60e01b81526001600160a01b0384811660048301526024820184905261010090920490911690634a1fefbd90604401600060405180830381600087803b158015610d9d57600080fd5b505af1158015610db1573d6000803e3d6000fd5b505050505b6000610dc28533610450565b905083811015610e225760405162461bcd60e51b815260206004820152602560248201527f4c45524332303a206275726e20616d6f756e74206578636565647320616c6c6f60448201526477616e636560d81b6064820152608401610611565b610e2f8533868403611565565b61070185856117da565b6005546001600160a01b0316336001600160a01b031614610e6c5760405162461bcd60e51b815260040161061190611bff565b600680546001600160a01b0319166001600160a01b03841690811790915560078290556040517f6c591da8da2f6e69746d7d9ae61c27ee29fbe303798141b4942ae2aef54274b190600090a25050565b600c5461010090046001600160a01b0316336001600160a01b031614610f245760405162461bcd60e51b815260206004820152601e60248201527f4c45524332303a204f6e6c79206c6f73736c65737320636f6e747261637400006044820152606401610611565b806000805b82811015611040576000858583818110610f5357634e487b7160e01b600052603260045260246000fd5b9050602002016020810190610f689190611976565b6001600160a01b0381166000908152600d602052604090205490915060ff16610fd35760405162461bcd60e51b815260206004820152601f60248201527f4c45524332303a20426c61636b6c697374206e6f7420636f6e6669726d6564006044820152606401610611565b6001600160a01b03811660009081526020819052604081208054919055610ffa8185611c36565b600c546040518381529195506001600160a01b0361010090910481169190841690600080516020611ccd8339815191529060200160405180910390a35050600101610f29565b50600c5461010090046001600160a01b031660009081526020819052604081208054839290611070908490611c36565b909155505050505050565b60606004805461049d90611c65565b600c546000908390839060ff161561110657600c5461010090046001600160a01b031663568c75a93384846040518463ffffffff1660e01b81526004016110d393929190611b88565b600060405180830381600087803b1580156110ed57600080fd5b505af1158015611101573d6000803e3d6000fd5b505050505b3360009081526001602090815260408083206001600160a01b0389168452909152902054848110156111895760405162461bcd60e51b815260206004820152602660248201527f4c45524332303a2064656372656173656420616c6c6f77616e63652062656c6f60448201526577207a65726f60d01b6064820152608401610611565b61119833876108448885611c4e565b50600195945050505050565b600c546000908390839060ff161561122057600c5461010090046001600160a01b0316631ffb811f3384846040518463ffffffff1660e01b81526004016111ed93929190611b88565b600060405180830381600087803b15801561120757600080fd5b505af115801561121b573d6000803e3d6000fd5b505050505b6105a73386866115c7565b6005546001600160a01b0316336001600160a01b03161461125e5760405162461bcd60e51b815260040161061190611bff565b600b546112ad5760405162461bcd60e51b815260206004820152601c60248201527f4c45524332303a205475726e4f6666206e6f742070726f706f736564000000006044820152606401610611565b42600b5411156112ff5760405162461bcd60e51b815260206004820152601d60248201527f4c45524332303a2054696d65206c6f636b20696e2070726f67726573730000006044820152606401610611565b600c805460ff191690556000600b8190556040517f3eb72350c9c7928d31e9ab450bfff2c159434aa4b82658a7d8eae7f109cb4e7b9190a1565b6006546001600160a01b0316336001600160a01b03161461139c5760405162461bcd60e51b815260206004820152601960248201527f4c45524332303a204d7573742062652063616e646974617465000000000000006044820152606401610611565b60075481516020830120146113e95760405162461bcd60e51b81526020600482015260136024820152724c45524332303a20496e76616c6964206b657960681b6044820152606401610611565b6006546040516001600160a01b03909116907fb94bba6936ec7f75ee931dadf6e1a4d66b43d09b6fa0178fb13df9b77fb5841f90600090a25060068054600580546001600160a01b03199081166001600160a01b03841617909155169055565b6005546001600160a01b0316336001600160a01b03161461147c5760405162461bcd60e51b815260040161061190611bff565b600b54156114cc5760405162461bcd60e51b815260206004820181905260248201527f4c45524332303a205475726e4f666620616c72656164792070726f706f7365646044820152606401610611565b600c5460ff1661151e5760405162461bcd60e51b815260206004820152601c60248201527f4c45524332303a204c6f73736c65737320616c7265616479206f6666000000006044820152606401610611565b600a5461152b9042611c36565b600b8190556040519081527f6ca688e6e3ddd707280140b2bf0106afe883689b6c74e68cbd517576dd9c245a9060200160405180910390a1565b6001600160a01b0383811660008181526001602090815260408083209487168084529482529182902085905590518481527f8c5be1e5ebec7d5bd14f71427d1e84f3dd0314c0f7b2291e5b200ac8c7c3b92591015b60405180910390a3505050565b6001600160a01b03831661162c5760405162461bcd60e51b815260206004820152602660248201527f4c45524332303a207472616e736665722066726f6d20746865207a65726f206160448201526564647265737360d01b6064820152608401610611565b6001600160a01b038316600090815260208190526040902054818110156116a55760405162461bcd60e51b815260206004820152602760248201527f4c45524332303a207472616e7366657220616d6f756e7420657863656564732060448201526662616c616e636560c81b6064820152608401610611565b6116af8282611c4e565b6001600160a01b0380861660009081526020819052604080822093909355908516815290812080548492906116e5908490611c36565b92505081905550826001600160a01b0316846001600160a01b0316600080516020611ccd8339815191528460405161171f91815260200190565b60405180910390a350505050565b6001600160a01b0382166117835760405162461bcd60e51b815260206004820181905260248201527f4c45524332303a206d696e7420746f20746865207a65726f20616464726573736044820152606401610611565b80600260008282546117959190611c36565b90915550506001600160a01b03821660008181526020818152604080832080548601905551848152600080516020611ccd833981519152910160405180910390a35050565b6001600160a01b03821661183b5760405162461bcd60e51b815260206004820152602260248201527f4c45524332303a206275726e2066726f6d20746865207a65726f206164647265604482015261737360f01b6064820152608401610611565b6001600160a01b038216600090815260208190526040902054818110156118b05760405162461bcd60e51b815260206004820152602360248201527f4c45524332303a206275726e20616d6f756e7420657863656564732062616c616044820152626e636560e81b6064820152608401610611565b6001600160a01b03831660009081526020819052604081208383039055600280548492906118df908490611c4e565b90915550506040518281526000906001600160a01b03851690600080516020611ccd833981519152906020016115ba565b80356001600160a01b038116811461192757600080fd5b919050565b60008083601f84011261193d578081fd5b50813567ffffffffffffffff811115611954578182fd5b6020830191508360208260051b850101111561196f57600080fd5b9250929050565b600060208284031215611987578081fd5b61199082611910565b9392505050565b600080604083850312156119a9578081fd5b6119b283611910565b91506119c060208401611910565b90509250929050565b6000806000606084860312156119dd578081fd5b6119e684611910565b92506119f460208501611910565b9150604084013590509250925092565b60008060408385031215611a16578182fd5b611a1f83611910565b946020939093013593505050565b60008060208385031215611a3f578182fd5b823567ffffffffffffffff811115611a55578283fd5b611a618582860161192c565b90969095509350505050565b600080600060408486031215611a81578283fd5b833567ffffffffffffffff811115611a97578384fd5b611aa38682870161192c565b90945092505060208401358015158114611abb578182fd5b809150509250925092565b600060208284031215611ad7578081fd5b813567ffffffffffffffff80821115611aee578283fd5b818401915084601f830112611b01578283fd5b813581811115611b1357611b13611cb6565b604051601f8201601f19908116603f01168101908382118183101715611b3b57611b3b611cb6565b81604052828152876020848701011115611b53578586fd5b826020860160208301379182016020019490945295945050505050565b600060208284031215611b81578081fd5b5035919050565b6001600160a01b039384168152919092166020820152604081019190915260600190565b6000602080835283518082850152825b81811015611bd857858101830151858201604001528201611bbc565b81811115611be95783604083870101525b50601f01601f1916929092016040019392505050565b6020808252601e908201527f4c45524332303a204d757374206265207265636f766572792061646d696e0000604082015260600190565b60008219821115611c4957611c49611ca0565b500190565b600082821015611c6057611c60611ca0565b500390565b600181811c90821680611c7957607f821691505b60208210811415611c9a57634e487b7160e01b600052602260045260246000fd5b50919050565b634e487b7160e01b600052601160045260246000fd5b634e487b7160e01b600052604160045260246000fdfeddf252ad1be2c89b69c2b068fc378daa952ba7f163c4a11628f55a4df523b3efa2646970667358221220cdca0035fe381157a6283c03564588128fd231349f5f2db7d5bf5660a799f09564736f6c63430008040033",
  "linkReferences": {},
  "deployedLinkReferences": {}
}