{
  "_format": "hh-sol-artifact-1",
  "contractName": "LosslessReporting",
  "sourceName": "contracts/LosslessReporting.sol",
  "abi": [
    {
      "anonymous": false,
      "inputs": [
        {
          "indexed": true,
          "internalType": "address",
          "name": "_adr",
          "type": "address"
        },
        {
          "indexed": true,
          "internalType": "uint256",
          "name": "_amount",
          "type": "uint256"
        }
      ],
      "name": "CompensationRetrieve",
      "type": "event"
    },
    {
      "anonymous": false,
      "inputs": [
        {
          "indexed": true,
          "internalType": "uint256",
          "name": "_newValue",
          "type": "uint256"
        }
      ],
      "name": "NewCommitteeReward",
      "type": "event"
    },
    {
      "anonymous": false,
      "inputs": [
        {
          "indexed": true,
          "internalType": "contract ILssGovernance",
          "name": "_adr",
          "type": "address"
        }
      ],
      "name": "NewGovernanceContract",
      "type": "event"
    },
    {
      "anonymous": false,
      "inputs": [
        {
          "indexed": true,
          "internalType": "uint256",
          "name": "_newValue",
          "type": "uint256"
        }
      ],
      "name": "NewLosslessReward",
      "type": "event"
    },
    {
      "anonymous": false,
      "inputs": [
        {
          "indexed": true,
          "internalType": "uint256",
          "name": "_newValue",
          "type": "uint256"
        }
      ],
      "name": "NewReportLifetime",
      "type": "event"
    },
    {
      "anonymous": false,
      "inputs": [
        {
          "indexed": true,
          "internalType": "uint256",
          "name": "_newValue",
          "type": "uint256"
        }
      ],
      "name": "NewReporterReward",
      "type": "event"
    },
    {
      "anonymous": false,
      "inputs": [
        {
          "indexed": true,
          "internalType": "uint256",
          "name": "_newAmount",
          "type": "uint256"
        }
      ],
      "name": "NewReportingAmount",
      "type": "event"
    },
    {
      "anonymous": false,
      "inputs": [
        {
          "indexed": true,
          "internalType": "uint256",
          "name": "_newValue",
          "type": "uint256"
        }
      ],
      "name": "NewStakersReward",
      "type": "event"
    },
    {
      "anonymous": false,
      "inputs": [
        {
          "indexed": true,
          "internalType": "contract ILERC20",
          "name": "_token",
          "type": "address"
        }
      ],
      "name": "NewStakingToken",
      "type": "event"
    },
    {
      "anonymous": false,
      "inputs": [
        {
          "indexed": false,
          "internalType": "address",
          "name": "account",
          "type": "address"
        }
      ],
      "name": "Paused",
      "type": "event"
    },
    {
      "anonymous": false,
      "inputs": [
        {
          "indexed": true,
          "internalType": "contract ILERC20",
          "name": "_token",
          "type": "address"
        },
        {
          "indexed": true,
          "internalType": "address",
          "name": "_account",
          "type": "address"
        },
        {
          "indexed": true,
          "internalType": "uint256",
          "name": "_reportId",
          "type": "uint256"
        },
        {
          "indexed": false,
          "internalType": "uint256",
          "name": "_amount",
          "type": "uint256"
        }
      ],
      "name": "ReportSubmission",
      "type": "event"
    },
    {
      "anonymous": false,
      "inputs": [
        {
          "indexed": true,
          "internalType": "address",
          "name": "_reporter",
          "type": "address"
        },
        {
          "indexed": true,
          "internalType": "uint256",
          "name": "_reportId",
          "type": "uint256"
        },
        {
          "indexed": true,
          "internalType": "uint256",
          "name": "_amount",
          "type": "uint256"
        }
      ],
      "name": "ReporterClaim",
      "type": "event"
    },
    {
      "anonymous": false,
      "inputs": [
        {
          "indexed": true,
          "internalType": "contract ILERC20",
          "name": "_token",
          "type": "address"
        },
        {
          "indexed": true,
          "internalType": "address",
          "name": "_account",
          "type": "address"
        },
        {
          "indexed": true,
          "internalType": "uint256",
          "name": "_reportId",
          "type": "uint256"
        }
      ],
      "name": "SecondReportSubmission",
      "type": "event"
    },
    {
      "anonymous": false,
      "inputs": [
        {
          "indexed": false,
          "internalType": "address",
          "name": "account",
          "type": "address"
        }
      ],
      "name": "Unpaused",
      "type": "event"
    },
    {
      "inputs": [],
      "name": "HUNDRED",
      "outputs": [
        {
          "internalType": "uint256",
          "name": "",
          "type": "uint256"
        }
      ],
      "stateMutability": "view",
      "type": "function"
    },
    {
      "inputs": [],
      "name": "committeeReward",
      "outputs": [
        {
          "internalType": "uint256",
          "name": "",
          "type": "uint256"
        }
      ],
      "stateMutability": "view",
      "type": "function"
    },
    {
      "inputs": [
        {
          "internalType": "uint256",
          "name": "_reportId",
          "type": "uint256"
        }
      ],
      "name": "getReportInfo",
      "outputs": [
        {
          "internalType": "address",
          "name": "reporter",
          "type": "address"
        },
        {
          "internalType": "address",
          "name": "reportedAddress",
          "type": "address"
        },
        {
          "internalType": "address",
          "name": "secondReportedAddress",
          "type": "address"
        },
        {
          "internalType": "uint256",
          "name": "reportTimestamps",
          "type": "uint256"
        },
        {
          "internalType": "contract ILERC20",
          "name": "reportTokens",
          "type": "address"
        },
        {
          "internalType": "bool",
          "name": "secondReports",
          "type": "bool"
        },
        {
          "internalType": "bool",
          "name": "reporterClaimStatus",
          "type": "bool"
        }
      ],
      "stateMutability": "view",
      "type": "function"
    },
    {
      "inputs": [],
      "name": "getRewards",
      "outputs": [
        {
          "internalType": "uint256",
          "name": "_reporter",
          "type": "uint256"
        },
        {
          "internalType": "uint256",
          "name": "_lossless",
          "type": "uint256"
        },
        {
          "internalType": "uint256",
          "name": "_committee",
          "type": "uint256"
        },
        {
          "internalType": "uint256",
          "name": "_stakers",
          "type": "uint256"
        }
      ],
      "stateMutability": "view",
      "type": "function"
    },
    {
      "inputs": [],
      "name": "getVersion",
      "outputs": [
        {
          "internalType": "uint256",
          "name": "",
          "type": "uint256"
        }
      ],
      "stateMutability": "pure",
      "type": "function"
    },
    {
      "inputs": [
        {
          "internalType": "contract ILssController",
          "name": "_losslessController",
          "type": "address"
        }
      ],
      "name": "initialize",
      "outputs": [],
      "stateMutability": "nonpayable",
      "type": "function"
    },
    {
      "inputs": [],
      "name": "losslessController",
      "outputs": [
        {
          "internalType": "contract ILssController",
          "name": "",
          "type": "address"
        }
      ],
      "stateMutability": "view",
      "type": "function"
    },
    {
      "inputs": [],
      "name": "losslessGovernance",
      "outputs": [
        {
          "internalType": "contract ILssGovernance",
          "name": "",
          "type": "address"
        }
      ],
      "stateMutability": "view",
      "type": "function"
    },
    {
      "inputs": [],
      "name": "losslessReward",
      "outputs": [
        {
          "internalType": "uint256",
          "name": "",
          "type": "uint256"
        }
      ],
      "stateMutability": "view",
      "type": "function"
    },
    {
      "inputs": [],
      "name": "pause",
      "outputs": [],
      "stateMutability": "nonpayable",
      "type": "function"
    },
    {
      "inputs": [],
      "name": "paused",
      "outputs": [
        {
          "internalType": "bool",
          "name": "",
          "type": "bool"
        }
      ],
      "stateMutability": "view",
      "type": "function"
    },
    {
      "inputs": [
        {
          "internalType": "contract ILERC20",
          "name": "_token",
          "type": "address"
        },
        {
          "internalType": "address",
          "name": "_account",
          "type": "address"
        }
      ],
      "name": "report",
      "outputs": [
        {
          "internalType": "uint256",
          "name": "",
          "type": "uint256"
        }
      ],
      "stateMutability": "nonpayable",
      "type": "function"
    },
    {
      "inputs": [],
      "name": "reportCount",
      "outputs": [
        {
          "internalType": "uint256",
          "name": "",
          "type": "uint256"
        }
      ],
      "stateMutability": "view",
      "type": "function"
    },
    {
      "inputs": [],
      "name": "reportLifetime",
      "outputs": [
        {
          "internalType": "uint256",
          "name": "",
          "type": "uint256"
        }
      ],
      "stateMutability": "view",
      "type": "function"
    },
    {
      "inputs": [
        {
          "internalType": "uint256",
          "name": "_reportId",
          "type": "uint256"
        }
      ],
      "name": "reporterClaim",
      "outputs": [],
      "stateMutability": "nonpayable",
      "type": "function"
    },
    {
      "inputs": [
        {
          "internalType": "uint256",
          "name": "_reportId",
          "type": "uint256"
        }
      ],
      "name": "reporterClaimableAmount",
      "outputs": [
        {
          "internalType": "uint256",
          "name": "",
          "type": "uint256"
        }
      ],
      "stateMutability": "view",
      "type": "function"
    },
    {
      "inputs": [],
      "name": "reporterReward",
      "outputs": [
        {
          "internalType": "uint256",
          "name": "",
          "type": "uint256"
        }
      ],
      "stateMutability": "view",
      "type": "function"
    },
    {
      "inputs": [],
      "name": "reportingAmount",
      "outputs": [
        {
          "internalType": "uint256",
          "name": "",
          "type": "uint256"
        }
      ],
      "stateMutability": "view",
      "type": "function"
    },
    {
      "inputs": [
        {
          "internalType": "address",
          "name": "_adr",
          "type": "address"
        },
        {
          "internalType": "uint256",
          "name": "_amount",
          "type": "uint256"
        }
      ],
      "name": "retrieveCompensation",
      "outputs": [],
      "stateMutability": "nonpayable",
      "type": "function"
    },
    {
      "inputs": [
        {
          "internalType": "uint256",
          "name": "_reportId",
          "type": "uint256"
        },
        {
          "internalType": "address",
          "name": "_account",
          "type": "address"
        }
      ],
      "name": "secondReport",
      "outputs": [],
      "stateMutability": "nonpayable",
      "type": "function"
    },
    {
      "inputs": [
        {
          "internalType": "uint256",
          "name": "_reward",
          "type": "uint256"
        }
      ],
      "name": "setCommitteeReward",
      "outputs": [],
      "stateMutability": "nonpayable",
      "type": "function"
    },
    {
      "inputs": [
        {
          "internalType": "contract ILssGovernance",
          "name": "_losslessGovernance",
          "type": "address"
        }
      ],
      "name": "setLosslessGovernance",
      "outputs": [],
      "stateMutability": "nonpayable",
      "type": "function"
    },
    {
      "inputs": [
        {
          "internalType": "uint256",
          "name": "_reward",
          "type": "uint256"
        }
      ],
      "name": "setLosslessReward",
      "outputs": [],
      "stateMutability": "nonpayable",
      "type": "function"
    },
    {
      "inputs": [
        {
          "internalType": "uint256",
          "name": "_lifetime",
          "type": "uint256"
        }
      ],
      "name": "setReportLifetime",
      "outputs": [],
      "stateMutability": "nonpayable",
      "type": "function"
    },
    {
      "inputs": [
        {
          "internalType": "uint256",
          "name": "_reward",
          "type": "uint256"
        }
      ],
      "name": "setReporterReward",
      "outputs": [],
      "stateMutability": "nonpayable",
      "type": "function"
    },
    {
      "inputs": [
        {
          "internalType": "uint256",
          "name": "_reportingAmount",
          "type": "uint256"
        }
      ],
      "name": "setReportingAmount",
      "outputs": [],
      "stateMutability": "nonpayable",
      "type": "function"
    },
    {
      "inputs": [
        {
          "internalType": "uint256",
          "name": "_reward",
          "type": "uint256"
        }
      ],
      "name": "setStakersReward",
      "outputs": [],
      "stateMutability": "nonpayable",
      "type": "function"
    },
    {
      "inputs": [
        {
          "internalType": "contract ILERC20",
          "name": "_stakingToken",
          "type": "address"
        }
      ],
      "name": "setStakingToken",
      "outputs": [],
      "stateMutability": "nonpayable",
      "type": "function"
    },
    {
      "inputs": [],
      "name": "stakersReward",
      "outputs": [
        {
          "internalType": "uint256",
          "name": "",
          "type": "uint256"
        }
      ],
      "stateMutability": "view",
      "type": "function"
    },
    {
      "inputs": [],
      "name": "stakingToken",
      "outputs": [
        {
          "internalType": "contract ILERC20",
          "name": "",
          "type": "address"
        }
      ],
      "stateMutability": "view",
      "type": "function"
    },
    {
      "inputs": [],
      "name": "unpause",
      "outputs": [],
      "stateMutability": "nonpayable",
      "type": "function"
    }
  ],
  "bytecode": "0x608060405234801561001057600080fd5b50612719806100206000396000f3fe608060405234801561001057600080fd5b50600436106101e55760003560e01c80637fa601a01161010f578063c8eca387116100a2578063ddb4694511610071578063ddb4694514610468578063f005ce611461047b578063f85fc0ab1461048e578063fc0cf0121461049657600080fd5b8063c8eca38714610426578063cfc97d6914610439578063d0ab12261461044c578063db6a5d541461045f57600080fd5b80639254047a116100de5780639254047a146103e4578063a8dfddad146103ed578063b68a23cb14610400578063c4d66de81461041357600080fd5b80637fa601a01461031b5780638456cb59146103ca57806384d8e67d146103d25780638ca77fdd146103db57600080fd5b80631fe2a95911610187578063411d2b3311610156578063411d2b33146102be5780635c975abb146102c75780636a00f42e146102dd57806372f702f3146102f057600080fd5b80631fe2a959146102875780632337cc8a1461029a5780633d359abf146102ad5780633f4ba83a146102b657600080fd5b80630d8e6e2c116101c35780630d8e6e2c146102515780630fb861f014610258578063185c6f841461026b5780631e9b12ef1461027457600080fd5b80630572b0cc146101ea57806309dbca4b1461021b5780630bf81b4214610230575b600080fd5b6065546066546068546067546040805194855260208501939093529183015260608201526080015b60405180910390f35b61022e610229366004612580565b6104a9565b005b61024361023e366004612580565b61062f565b604051908152602001610212565b6001610243565b61022e6102663660046124e1565b6106d3565b610243606b5481565b61022e61028236600461252c565b61082c565b61022e6102953660046125b0565b6109e0565b61022e6102a8366004612580565b610f52565b61024360665481565b61022e61105d565b61024360685481565b60335460ff166040519015158152602001610212565b6102436102eb366004612548565b611147565b606c54610303906001600160a01b031681565b6040516001600160a01b039091168152602001610212565b61037f610329366004612580565b600090815260706020526040902080546001820154600283015460038401546004909401546001600160a01b0393841695928416949184169391929181169160ff600160a01b8304811692600160a81b90041690565b604080516001600160a01b0398891681529688166020880152948716948601949094526060850192909252909316608083015291151560a082015290151560c082015260e001610212565b61022e611849565b610243606a5481565b61024360655481565b61024360695481565b61022e6103fb366004612580565b611931565b61022e61040e366004612580565b611a51565b61022e61042136600461252c565b611b71565b61022e61043436600461252c565b611c4b565b61022e610447366004612580565b611dff565b606e54610303906001600160a01b031681565b61024360675481565b61022e610476366004612580565b6121af565b61022e610489366004612580565b6122ba565b610243606481565b606d54610303906001600160a01b031681565b606d60009054906101000a90046001600160a01b03166001600160a01b031663f851a4406040518163ffffffff1660e01b815260040160206040518083038186803b1580156104f757600080fd5b505afa15801561050b573d6000803e3d6000fd5b505050506040513d601f19601f8201168201806040525081019061052f91906124c5565b6001600160a01b0316336001600160a01b0316146105685760405162461bcd60e51b815260040161055f906125d4565b60405180910390fd5b60665481141561058a5760405162461bcd60e51b815260040161055f9061262a565b606681905560405181907fa541140f0e2766edd981ed85d94c876a8235c08da1fc2639228bc185c9d4288190600090a260646067546068546066546065546105d29190612661565b6105dc9190612661565b6105e69190612661565b111561062c5760405162461bcd60e51b815260206004820152601560248201527404c53533a20546f74616c206578636565642031303605c1b604482015260640161055f565b50565b606e546040516327b4317760e21b81526004810183905260009182916001600160a01b0390911690639ed0c5dc9060240160206040518083038186803b15801561067857600080fd5b505afa15801561068c573d6000803e3d6000fd5b505050506040513d601f19601f820116820180604052508101906106b09190612598565b90506064606554826106c29190612699565b6106cc9190612679565b9392505050565b606e546001600160a01b031633146107205760405162461bcd60e51b815260206004820152601060248201526f4c53533a204c7373205343206f6e6c7960801b604482015260640161055f565b606c5460405163a9059cbb60e01b81526001600160a01b038481166004830152602482018490529091169063a9059cbb90604401602060405180830381600087803b15801561076e57600080fd5b505af1158015610782573d6000803e3d6000fd5b505050506040513d601f19601f820116820180604052508101906107a6919061250c565b6107f25760405162461bcd60e51b815260206004820152601f60248201527f4c53533a20436f6d70656e736174696f6e207265747269657665206661696c00604482015260640161055f565b60405181906001600160a01b038416907f22dd40ff7382975ed05c4811f2ddf8c4b4694b851e84a67ae0c4f66e042c12d390600090a35050565b606d60009054906101000a90046001600160a01b03166001600160a01b031663f851a4406040518163ffffffff1660e01b815260040160206040518083038186803b15801561087a57600080fd5b505afa15801561088e573d6000803e3d6000fd5b505050506040513d601f19601f820116820180604052508101906108b291906124c5565b6001600160a01b0316336001600160a01b0316146108e25760405162461bcd60e51b815260040161055f906125d4565b6001600160a01b0381166109385760405162461bcd60e51b815260206004820152601b60248201527f4c53533a2043616e6e6f74206265207a65726f20616464726573730000000000604482015260640161055f565b606c546001600160a01b03828116911614156109965760405162461bcd60e51b815260206004820152601b60248201527f4c53533a2043616e6e6f742062652073616d6520616464726573730000000000604482015260640161055f565b606c80546001600160a01b0319166001600160a01b0383169081179091556040517f440200cffeb6e2a5452bfbf38f210983589ee79d8f9277b2bd9e64d93ba5d24390600090a250565b60335460ff1615610a035760405162461bcd60e51b815260040161055f90612600565b6001600160a01b038116610a595760405162461bcd60e51b815260206004820152601f60248201527f4c53533a2043616e6e6f74207265706f7274207a65726f206164647265737300604482015260640161055f565b606e54604051630b18acb760e21b8152600481018490526001600160a01b0390911690632c62b2dc9060240160206040518083038186803b158015610a9d57600080fd5b505afa158015610ab1573d6000803e3d6000fd5b505050506040513d601f19601f82011682018060405250810190610ad5919061250c565b158015610b5b5750606e5460405163c3d8ca2f60e01b8152600481018490526001600160a01b039091169063c3d8ca2f9060240160206040518083038186803b158015610b2157600080fd5b505afa158015610b35573d6000803e3d6000fd5b505050506040513d601f19601f82011682018060405250810190610b59919061250c565b155b610ba75760405162461bcd60e51b815260206004820152601a60248201527f4c53533a205265706f727420616c726561647920736f6c766564000000000000604482015260640161055f565b606d54604051634d8c928d60e11b81526001600160a01b03838116600483015290911690639b19251a9060240160206040518083038186803b158015610bec57600080fd5b505afa158015610c00573d6000803e3d6000fd5b505050506040513d601f19601f82011682018060405250810190610c24919061250c565b15610c715760405162461bcd60e51b815260206004820152601f60248201527f4c53533a2043616e6e6f74207265706f7274204c53532070726f746f636f6c00604482015260640161055f565b606d54604051630de6793560e11b81526001600160a01b03838116600483015290911690631bccf26a90602401602060405180830381600087803b158015610cb857600080fd5b505af1158015610ccc573d6000803e3d6000fd5b505050506040513d601f19601f82011682018060405250810190610cf0919061250c565b15610d365760405162461bcd60e51b8152602060048201526016602482015275098a6a6744086c2dcdcdee840e4cae0dee4e84088caf60531b604482015260640161055f565b6000828152607060205260409020600381015460048201546001600160a01b03168415801590610d7257504260695483610d709190612661565b115b610dbe5760405162461bcd60e51b815260206004820152601b60248201527f4c53533a207265706f727420646f6573206e6f74206578697374730000000000604482015260640161055f565b6004830154600160a01b900460ff1615610e1a5760405162461bcd60e51b815260206004820152601e60248201527f4c53533a20416e6f7468657220616c7265616479207375626d69747465640000604482015260640161055f565b82546001600160a01b03163314610e6b5760405162461bcd60e51b81526020600482015260156024820152742629a99d1034b73b30b634b2103932b837b93a32b960591b604482015260640161055f565b6004838101805460ff60a01b1916600160a01b1790556001600160a01b038281166000908152606f60209081526040808320898516808552925291829020899055606d5491516344337ea160e01b81529384015216906344337ea190602401600060405180830381600087803b158015610ee457600080fd5b505af1158015610ef8573d6000803e3d6000fd5b505050506002830180546001600160a01b0319166001600160a01b0386811691821790925560405187928416907f57b24a5e43670bc970bdb990f514431dd52083ca07c76331e7b2d587c3fd815190600090a45050505050565b606d60009054906101000a90046001600160a01b03166001600160a01b031663f851a4406040518163ffffffff1660e01b815260040160206040518083038186803b158015610fa057600080fd5b505afa158015610fb4573d6000803e3d6000fd5b505050506040513d601f19601f82011682018060405250810190610fd891906124c5565b6001600160a01b0316336001600160a01b0316146110085760405162461bcd60e51b815260040161055f906125d4565b60695481141561102a5760405162461bcd60e51b815260040161055f9061262a565b606981905560405181907f9f92e7b8b720b941cbbb3fab387cb8b9b23f68468990ee330b2ebcf2b044fd2490600090a250565b606d60009054906101000a90046001600160a01b03166001600160a01b0316632f11d6536040518163ffffffff1660e01b815260040160206040518083038186803b1580156110ab57600080fd5b505afa1580156110bf573d6000803e3d6000fd5b505050506040513d601f19601f820116820180604052508101906110e391906124c5565b6001600160a01b0316336001600160a01b03161461113d5760405162461bcd60e51b81526020600482015260176024820152762629a99d1026bab9ba103132903830bab9b2a0b236b4b760491b604482015260640161055f565b6111456123da565b565b606d54604051633e7e4af960e21b81523360048201526000916001600160a01b03169063f9f92be49060240160206040518083038186803b15801561118b57600080fd5b505afa15801561119f573d6000803e3d6000fd5b505050506040513d601f19601f820116820180604052508101906111c3919061250c565b156112105760405162461bcd60e51b815260206004820152601760248201527f4c53533a20596f752063616e6e6f74206f706572617465000000000000000000604482015260640161055f565b60335460ff16156112335760405162461bcd60e51b815260040161055f90612600565b6001600160a01b0382166112895760405162461bcd60e51b815260206004820152601f60248201527f4c53533a2043616e6e6f74207265706f7274207a65726f206164647265737300604482015260640161055f565b606d54604051634d8c928d60e11b81526001600160a01b03848116600483015290911690639b19251a9060240160206040518083038186803b1580156112ce57600080fd5b505afa1580156112e2573d6000803e3d6000fd5b505050506040513d601f19601f82011682018060405250810190611306919061250c565b156113535760405162461bcd60e51b815260206004820152601f60248201527f4c53533a2043616e6e6f74207265706f7274204c53532070726f746f636f6c00604482015260640161055f565b606d54604051630de6793560e11b81526001600160a01b03848116600483015290911690631bccf26a90602401602060405180830381600087803b15801561139a57600080fd5b505af11580156113ae573d6000803e3d6000fd5b505050506040513d601f19601f820116820180604052508101906113d2919061250c565b156114185760405162461bcd60e51b8152602060048201526016602482015275098a6a6744086c2dcdcdee840e4cae0dee4e84088caf60531b604482015260640161055f565b6001600160a01b038084166000908152606f60209081526040808320938616835292905220548015806114685750606954600082815260706020526040902060030154429161146691612661565b105b8061156f5750606e54604051630b18acb760e21b8152600481018390526001600160a01b0390911690632c62b2dc9060240160206040518083038186803b1580156114b257600080fd5b505afa1580156114c6573d6000803e3d6000fd5b505050506040513d601f19601f820116820180604052508101906114ea919061250c565b801561156f5750606e5460405163c3d8ca2f60e01b8152600481018390526001600160a01b039091169063c3d8ca2f9060240160206040518083038186803b15801561153557600080fd5b505afa158015611549573d6000803e3d6000fd5b505050506040513d601f19601f8201168201806040525081019061156d919061250c565b155b6115bb5760405162461bcd60e51b815260206004820152601a60248201527f4c53533a205265706f727420616c726561647920657869737473000000000000604482015260640161055f565b6001606b60008282546115ce9190612661565b9091555050606b5460008181526070602081815260408084208054336001600160a01b0319918216811783556001600160a01b038c8116808952606f87528589208d83168a5287528589208a9055978990529590945242600383015560049182018054909116909517909455606c54606a5491516323b872dd60e01b815294850192909252306024850152604484015292935091909116906323b872dd90606401602060405180830381600087803b15801561168957600080fd5b505af115801561169d573d6000803e3d6000fd5b505050506040513d601f19601f820116820180604052508101906116c1919061250c565b61170d5760405162461bcd60e51b815260206004820152601b60248201527f4c53533a205265706f7274696e67207374616b65206661696c65640000000000604482015260640161055f565b606d546040516344337ea160e01b81526001600160a01b038581166004830152909116906344337ea190602401600060405180830381600087803b15801561175457600080fd5b505af1158015611768573d6000803e3d6000fd5b5050506000828152607060205260409081902060010180546001600160a01b0319166001600160a01b0387811691909117909155606d5491516333be4fc360e21b815287821660048201529116915063cef93f0c90602401600060405180830381600087803b1580156117da57600080fd5b505af11580156117ee573d6000803e3d6000fd5b5050505080836001600160a01b0316856001600160a01b03167f92e9d368ed104b8cb9eaf4301c7e3381330904ba2dbab066a2b87b9aa2ade182606a5460405161183a91815260200190565b60405180910390a49392505050565b606d60009054906101000a90046001600160a01b03166001600160a01b0316632f11d6536040518163ffffffff1660e01b815260040160206040518083038186803b15801561189757600080fd5b505afa1580156118ab573d6000803e3d6000fd5b505050506040513d601f19601f820116820180604052508101906118cf91906124c5565b6001600160a01b0316336001600160a01b0316146119295760405162461bcd60e51b81526020600482015260176024820152762629a99d1026bab9ba103132903830bab9b2a0b236b4b760491b604482015260640161055f565b61114561246d565b606d60009054906101000a90046001600160a01b03166001600160a01b031663f851a4406040518163ffffffff1660e01b815260040160206040518083038186803b15801561197f57600080fd5b505afa158015611993573d6000803e3d6000fd5b505050506040513d601f19601f820116820180604052508101906119b791906124c5565b6001600160a01b0316336001600160a01b0316146119e75760405162461bcd60e51b815260040161055f906125d4565b606754811415611a095760405162461bcd60e51b815260040161055f9061262a565b606781905560405181907f286a6076d6f092a586a37b483571815698ca6052d304b4aa62c2240f970d638b90600090a260646067546068546066546065546105d29190612661565b606d60009054906101000a90046001600160a01b03166001600160a01b031663f851a4406040518163ffffffff1660e01b815260040160206040518083038186803b158015611a9f57600080fd5b505afa158015611ab3573d6000803e3d6000fd5b505050506040513d601f19601f82011682018060405250810190611ad791906124c5565b6001600160a01b0316336001600160a01b031614611b075760405162461bcd60e51b815260040161055f906125d4565b606854811415611b295760405162461bcd60e51b815260040161055f9061262a565b606881905560405181907f50180f977fd6b8a623d5dfc1a5c07358f673e46b4068575873f7af7c63799ad890600090a260646067546068546066546065546105d29190612661565b600054610100900460ff16611b8c5760005460ff1615611b90565b303b155b611bf35760405162461bcd60e51b815260206004820152602e60248201527f496e697469616c697a61626c653a20636f6e747261637420697320616c72656160448201526d191e481a5b9a5d1a585b1a5e995960921b606482015260840161055f565b600054610100900460ff16158015611c15576000805461ffff19166101011790555b6000606b55606d80546001600160a01b0319166001600160a01b0384161790558015611c47576000805461ff00191690555b5050565b606d60009054906101000a90046001600160a01b03166001600160a01b031663f851a4406040518163ffffffff1660e01b815260040160206040518083038186803b158015611c9957600080fd5b505afa158015611cad573d6000803e3d6000fd5b505050506040513d601f19601f82011682018060405250810190611cd191906124c5565b6001600160a01b0316336001600160a01b031614611d015760405162461bcd60e51b815260040161055f906125d4565b6001600160a01b038116611d575760405162461bcd60e51b815260206004820152601b60248201527f4c53533a2043616e6e6f74206265207a65726f20616464726573730000000000604482015260640161055f565b606e546001600160a01b0382811691161415611db55760405162461bcd60e51b815260206004820152601b60248201527f4c53533a2043616e6e6f742062652073616d6520616464726573730000000000604482015260640161055f565b606e80546001600160a01b0319166001600160a01b0383169081179091556040517ffb63970612c4356d3217d8f62d2e878e96269335085c35374c27b713cfa3e9b990600090a250565b60335460ff1615611e225760405162461bcd60e51b815260040161055f90612600565b6000818152607060205260409020546001600160a01b03163314611e7d5760405162461bcd60e51b81526020600482015260126024820152712629a99d1027b7363c903932b837b93a32b960711b604482015260640161055f565b606e5460405163c3d8ca2f60e01b8152600481018390526001600160a01b039091169063c3d8ca2f9060240160206040518083038186803b158015611ec157600080fd5b505afa158015611ed5573d6000803e3d6000fd5b505050506040513d601f19601f82011682018060405250810190611ef9919061250c565b611f455760405162461bcd60e51b815260206004820152601d60248201527f4c53533a205265706f727420736f6c766564206e656761746976656c79000000604482015260640161055f565b60008181526070602052604090206004810154600160a81b900460ff1615611faf5760405162461bcd60e51b815260206004820152601860248201527f4c53533a20596f7520616c726561647920636c61696d65640000000000000000604482015260640161055f565b60048101805460ff60a81b1916600160a81b1790556000611fcf8361062f565b60048381015460405163a9059cbb60e01b81523392810192909252602482018390529192506001600160a01b039091169063a9059cbb90604401602060405180830381600087803b15801561202357600080fd5b505af1158015612037573d6000803e3d6000fd5b505050506040513d601f19601f8201168201806040525081019061205b919061250c565b6120a75760405162461bcd60e51b815260206004820152601a60248201527f4c53533a20546f6b656e207472616e73666572206661696c6564000000000000604482015260640161055f565b606c54606a5460405163a9059cbb60e01b815233600482015260248101919091526001600160a01b039091169063a9059cbb90604401602060405180830381600087803b1580156120f757600080fd5b505af115801561210b573d6000803e3d6000fd5b505050506040513d601f19601f8201168201806040525081019061212f919061250c565b61217b5760405162461bcd60e51b815260206004820152601b60248201527f4c53533a205265706f7274696e67207374616b65206661696c65640000000000604482015260640161055f565b6040518190849033907f863545f27822d259c84600f7fff4b2f00300c6bc3110cc34d3766c120d11ee0190600090a4505050565b606d60009054906101000a90046001600160a01b03166001600160a01b031663f851a4406040518163ffffffff1660e01b815260040160206040518083038186803b1580156121fd57600080fd5b505afa158015612211573d6000803e3d6000fd5b505050506040513d601f19601f8201168201806040525081019061223591906124c5565b6001600160a01b0316336001600160a01b0316146122655760405162461bcd60e51b815260040161055f906125d4565b80606a5414156122875760405162461bcd60e51b815260040161055f9061262a565b606a81905560405181907f7244d4e293a4118a019957569f7f98d6c9192473e513f040f50246e33dfc6fb890600090a250565b606d60009054906101000a90046001600160a01b03166001600160a01b031663f851a4406040518163ffffffff1660e01b815260040160206040518083038186803b15801561230857600080fd5b505afa15801561231c573d6000803e3d6000fd5b505050506040513d601f19601f8201168201806040525081019061234091906124c5565b6001600160a01b0316336001600160a01b0316146123705760405162461bcd60e51b815260040161055f906125d4565b6065548114156123925760405162461bcd60e51b815260040161055f9061262a565b606581905560405181907f6ba592e51cd5e91d041b4695b1c4fa1d8eb187bd268ae9c01aeac311dbbf331090600090a260646067546068546066546065546105d29190612661565b60335460ff166124235760405162461bcd60e51b815260206004820152601460248201527314185d5cd8589b194e881b9bdd081c185d5cd95960621b604482015260640161055f565b6033805460ff191690557f5db9ee0a495bf2e6ff9c91a7834c1ba4fdd244a5e8aa4e537bd38aeae4b073aa335b6040516001600160a01b03909116815260200160405180910390a1565b60335460ff16156124905760405162461bcd60e51b815260040161055f90612600565b6033805460ff191660011790557f62e78cea01bee320cd4e420270b5ea74000d11b0c9f74754ebdbfc544b05a2586124503390565b6000602082840312156124d6578081fd5b81516106cc816126ce565b600080604083850312156124f3578081fd5b82356124fe816126ce565b946020939093013593505050565b60006020828403121561251d578081fd5b815180151581146106cc578182fd5b60006020828403121561253d578081fd5b81356106cc816126ce565b6000806040838503121561255a578182fd5b8235612565816126ce565b91506020830135612575816126ce565b809150509250929050565b600060208284031215612591578081fd5b5035919050565b6000602082840312156125a9578081fd5b5051919050565b600080604083850312156125c2578182fd5b823591506020830135612575816126ce565b6020808252601290820152712629a99d1026bab9ba1031329030b236b4b760711b604082015260600190565b60208082526010908201526f14185d5cd8589b194e881c185d5cd95960821b604082015260600190565b6020808252601f908201527f4c53533a20416c72656164792073657420746f207468617420616d6f756e7400604082015260600190565b60008219821115612674576126746126b8565b500190565b60008261269457634e487b7160e01b81526012600452602481fd5b500490565b60008160001904831182151516156126b3576126b36126b8565b500290565b634e487b7160e01b600052601160045260246000fd5b6001600160a01b038116811461062c57600080fdfea264697066735822122017755e987733d9880523ca71fe6b335294c617f048ccb9bb076b53fb3fc5a5ef64736f6c63430008040033",
  "linkReferences": {},
  "deployedLinkReferences": {}
}