{
  "_format": "hh-sol-artifact-1",
  "contractName": "LiquidityProtectionSingleLimitStrategy",
  "sourceName": "contracts/vault-protection/LiquidityProtectionSingleLimitStrategy.sol",
  "abi": [
    {
      "inputs": [
        {
          "internalType": "contract Guardian",
          "name": "_guardian",
          "type": "address"
        },
        {
          "internalType": "contract LosslessController",
          "name": "_controller",
          "type": "address"
        }
      ],
      "stateMutability": "nonpayable",
      "type": "constructor"
    },
    {
      "anonymous": false,
      "inputs": [
        {
          "indexed": true,
          "internalType": "address",
          "name": "newGuardian",
          "type": "address"
        }
      ],
      "name": "GuardianSet",
      "type": "event"
    },
    {
      "anonymous": false,
      "inputs": [
        {
          "indexed": true,
          "internalType": "address",
          "name": "token",
          "type": "address"
        },
        {
          "indexed": true,
          "internalType": "address",
          "name": "protectedAddress",
          "type": "address"
        }
      ],
      "name": "Paused",
      "type": "event"
    },
    {
      "anonymous": false,
      "inputs": [
        {
          "indexed": true,
          "internalType": "address",
          "name": "token",
          "type": "address"
        },
        {
          "indexed": true,
          "internalType": "address",
          "name": "protectedAddress",
          "type": "address"
        }
      ],
      "name": "Unpaused",
      "type": "event"
    },
    {
      "inputs": [],
      "name": "controller",
      "outputs": [
        {
          "internalType": "contract LosslessController",
          "name": "",
          "type": "address"
        }
      ],
      "stateMutability": "view",
      "type": "function"
    },
    {
      "inputs": [
        {
          "internalType": "address",
          "name": "token",
          "type": "address"
        },
        {
          "internalType": "address",
          "name": "protectedAddress",
          "type": "address"
        }
      ],
      "name": "getLimit",
      "outputs": [
        {
          "components": [
            {
              "internalType": "uint256",
              "name": "periodInSeconds",
              "type": "uint256"
            },
            {
              "internalType": "uint256",
              "name": "lastCheckpointTime",
              "type": "uint256"
            },
            {
              "internalType": "uint256",
              "name": "amountPerPeriod",
              "type": "uint256"
            },
            {
              "internalType": "uint256",
              "name": "amountLeftInCurrentPeriod",
              "type": "uint256"
            }
          ],
          "internalType": "struct LiquidityProtectionSingleLimitStrategy.Limit",
          "name": "",
          "type": "tuple"
        }
      ],
      "stateMutability": "view",
      "type": "function"
    },
    {
      "inputs": [],
      "name": "guardian",
      "outputs": [
        {
          "internalType": "contract Guardian",
          "name": "",
          "type": "address"
        }
      ],
      "stateMutability": "view",
      "type": "function"
    },
    {
      "inputs": [
        {
          "internalType": "address",
          "name": "token",
          "type": "address"
        },
        {
          "internalType": "address",
          "name": "sender",
          "type": "address"
        },
        {
          "internalType": "address",
          "name": "recipient",
          "type": "address"
        },
        {
          "internalType": "uint256",
          "name": "amount",
          "type": "uint256"
        }
      ],
      "name": "isTransferAllowed",
      "outputs": [],
      "stateMutability": "nonpayable",
      "type": "function"
    },
    {
      "inputs": [
        {
          "internalType": "address",
          "name": "token",
          "type": "address"
        },
        {
          "internalType": "address",
          "name": "protectedAddress",
          "type": "address"
        }
      ],
      "name": "pause",
      "outputs": [],
      "stateMutability": "nonpayable",
      "type": "function"
    },
    {
      "inputs": [
        {
          "internalType": "address",
          "name": "token",
          "type": "address"
        },
        {
          "internalType": "address[]",
          "name": "protectedAddresses",
          "type": "address[]"
        }
      ],
      "name": "removeLimits",
      "outputs": [],
      "stateMutability": "nonpayable",
      "type": "function"
    },
    {
      "inputs": [
        {
          "internalType": "contract Guardian",
          "name": "newGuardian",
          "type": "address"
        }
      ],
      "name": "setGuardian",
      "outputs": [],
      "stateMutability": "nonpayable",
      "type": "function"
    },
    {
      "inputs": [
        {
          "internalType": "address",
          "name": "token",
          "type": "address"
        },
        {
          "internalType": "address",
          "name": "protectedAddress",
          "type": "address"
        },
        {
          "internalType": "uint256",
          "name": "periodInSeconds",
          "type": "uint256"
        },
        {
          "internalType": "uint256",
          "name": "amountPerPeriod",
          "type": "uint256"
        },
        {
          "internalType": "uint256",
          "name": "startTimestamp",
          "type": "uint256"
        }
      ],
      "name": "setLimit",
      "outputs": [],
      "stateMutability": "nonpayable",
      "type": "function"
    },
    {
      "inputs": [
        {
          "internalType": "address",
          "name": "token",
          "type": "address"
        },
        {
          "internalType": "address[]",
          "name": "protectedAddresses",
          "type": "address[]"
        },
        {
          "internalType": "uint256",
          "name": "periodInSeconds",
          "type": "uint256"
        },
        {
          "internalType": "uint256",
          "name": "amountPerPeriod",
          "type": "uint256"
        },
        {
          "internalType": "uint256",
          "name": "startTimestamp",
          "type": "uint256"
        }
      ],
      "name": "setLimitBatched",
      "outputs": [],
      "stateMutability": "nonpayable",
      "type": "function"
    }
  ],
  "bytecode": "0x608060405234801561001057600080fd5b5060405161103138038061103183398101604081905261002f91610060565b600080546001600160a01b039384166001600160a01b031991821617909155600180549290931691161790556100b1565b60008060408385031215610072578182fd5b825161007d81610099565b602084015190925061008e81610099565b809150509250929050565b6001600160a01b03811681146100ae57600080fd5b50565b610f71806100c06000396000f3fe608060405234801561001057600080fd5b50600436106100935760003560e01c8063590308a511610066578063590308a5146101035780635d44f7a0146101165780638a0dac4a1461015c578063d4bab3031461016f578063f77c47911461018257600080fd5b80630776140714610098578063203b625f146100ad578063242f57e7146100c0578063452a9320146100d3575b600080fd5b6100ab6100a6366004610d68565b610195565b005b6100ab6100bb366004610dbb565b61039a565b6100ab6100ce366004610d18565b610562565b6000546100e6906001600160a01b031681565b6040516001600160a01b0390911681526020015b60405180910390f35b6100ab610111366004610c90565b61068d565b610129610124366004610c90565b61088e565b6040516100fa91908151815260208083015190820152604080830151908201526060918201519181019190915260800190565b6100ab61016a366004610c58565b610917565b6100ab61017d366004610cc8565b610a47565b6001546100e6906001600160a01b031681565b600054604051637ce2f8d960e11b81526001600160a01b0380861660048301528592169063f9c5f1b290602401602060405180830381600087803b1580156101dc57600080fd5b505af11580156101f0573d6000803e3d6000fd5b505050506040513d601f19601f820116820180604052508101906102149190610c74565b6001600160a01b0316336001600160a01b03161461024d5760405162461bcd60e51b815260040161024490610e48565b60405180910390fd5b60005b60ff8116831115610393576001600160a01b038516600090815260026020526040812090858560ff851681811061029757634e487b7160e01b600052603260045260246000fd5b90506020020160208101906102ac9190610c58565b6001600160a01b039081168252602082019290925260400160009081208181556001810182905560028101829055600301819055541663c2659d1386868660ff861681811061030b57634e487b7160e01b600052603260045260246000fd5b90506020020160208101906103209190610c58565b6040516001600160e01b031960e085901b1681526001600160a01b03928316600482015291166024820152604401600060405180830381600087803b15801561036857600080fd5b505af115801561037c573d6000803e3d6000fd5b50505050808061038b90610eed565b915050610250565b5050505050565b600054604051637ce2f8d960e11b81526001600160a01b0380891660048301528892169063f9c5f1b290602401602060405180830381600087803b1580156103e157600080fd5b505af11580156103f5573d6000803e3d6000fd5b505050506040513d601f19601f820116820180604052508101906104199190610c74565b6001600160a01b0316336001600160a01b0316146104495760405162461bcd60e51b815260040161024490610e48565b60005b60ff81168611156105585761049b8888888460ff1681811061047e57634e487b7160e01b600052603260045260246000fd5b90506020020160208101906104939190610c58565b878787610b77565b6000546001600160a01b03166308900bd889898960ff86168181106104d057634e487b7160e01b600052603260045260246000fd5b90506020020160208101906104e59190610c58565b6040516001600160e01b031960e085901b1681526001600160a01b03928316600482015291166024820152604401600060405180830381600087803b15801561052d57600080fd5b505af1158015610541573d6000803e3d6000fd5b50505050808061055090610eed565b91505061044c565b5050505050505050565b600054604051637ce2f8d960e11b81526001600160a01b0380881660048301528792169063f9c5f1b290602401602060405180830381600087803b1580156105a957600080fd5b505af11580156105bd573d6000803e3d6000fd5b505050506040513d601f19601f820116820180604052508101906105e19190610c74565b6001600160a01b0316336001600160a01b0316146106115760405162461bcd60e51b815260040161024490610e48565b61061e8686868686610b77565b600054604051630112017b60e31b81526001600160a01b0388811660048301528781166024830152909116906308900bd890604401600060405180830381600087803b15801561066d57600080fd5b505af1158015610681573d6000803e3d6000fd5b50505050505050505050565b600054604051637ce2f8d960e11b81526001600160a01b0380851660048301528492169063f9c5f1b290602401602060405180830381600087803b1580156106d457600080fd5b505af11580156106e8573d6000803e3d6000fd5b505050506040513d601f19601f8201168201806040525081019061070c9190610c74565b6001600160a01b0316336001600160a01b03161461073c5760405162461bcd60e51b815260040161024490610e48565b6001546040516362d03dc960e11b81526001600160a01b03858116600483015284811660248301529091169063c5a07b929060440160206040518083038186803b15801561078957600080fd5b505afa15801561079d573d6000803e3d6000fd5b505050506040513d601f19601f820116820180604052508101906107c19190610e28565b61080d5760405162461bcd60e51b815260206004820152601f60248201527f4c4f53534c4553533a2041646472657373206e6f742070726f746563746564006044820152606401610244565b6001600160a01b03808416600090815260026020908152604080832093861683529290529081206003810191909155805461084a90600019610ed6565b60018201556040516001600160a01b0380851691908616907f3dd4f37ca5eaf6c357698a52c806820426d7c9a26adb0991c3bebb09cf23352a90600090a350505050565b6108b96040518060800160405280600081526020016000815260200160008152602001600081525090565b506001600160a01b038083166000908152600260208181526040808420948616845293815291839020835160808101855281548152600182015493810193909352908101549282019290925260039091015460608201525b92915050565b600160009054906101000a90046001600160a01b03166001600160a01b031663f851a4406040518163ffffffff1660e01b8152600401602060405180830381600087803b15801561096757600080fd5b505af115801561097b573d6000803e3d6000fd5b505050506040513d601f19601f8201168201806040525081019061099f9190610c74565b6001600160a01b0316336001600160a01b0316146109ff5760405162461bcd60e51b815260206004820152601c60248201527f4c4f53534c4553533a204e6f74206c6f73736c6573732061646d696e000000006044820152606401610244565b600080546001600160a01b0319166001600160a01b038316908117825560405190917fe6c09ffe4572dc9ceaa5ddde4ae41befa655d6fdfe8052077af0970f700e942e91a250565b6001546001600160a01b03163314610aa15760405162461bcd60e51b815260206004820152601d60248201527f4c4f53534c4553533a204c535320436f6e74726f6c6c6572206f6e6c790000006044820152606401610244565b6001600160a01b038085166000908152600260209081526040808320938716835292905220805460018201544291610ad891610e7f565b1115610af657610aec828260030154610bba565b6003820155610b23565b610b0881600101548260000154610bdc565b60018201556002810154610b1d908390610bba565b60038201555b60008160030154116103935760405162461bcd60e51b815260206004820181905260248201527f4c4f53534c4553533a205374726174656779204c696d697420726561636865646044820152606401610244565b6001600160a01b03948516600090815260026020818152604080842097909816835295909552949094209182559181018290556001810192909255600390910155565b6000818310610bcb57506000610911565b610bd58383610ed6565b9050610911565b600081610be98442610ed6565b610bf39190610e97565b610bfd9083610eb7565b610c079084610e7f565b9392505050565b60008083601f840112610c1f578182fd5b50813567ffffffffffffffff811115610c36578182fd5b6020830191508360208260051b8501011115610c5157600080fd5b9250929050565b600060208284031215610c69578081fd5b8135610c0781610f23565b600060208284031215610c85578081fd5b8151610c0781610f23565b60008060408385031215610ca2578081fd5b8235610cad81610f23565b91506020830135610cbd81610f23565b809150509250929050565b60008060008060808587031215610cdd578182fd5b8435610ce881610f23565b93506020850135610cf881610f23565b92506040850135610d0881610f23565b9396929550929360600135925050565b600080600080600060a08688031215610d2f578081fd5b8535610d3a81610f23565b94506020860135610d4a81610f23565b94979496505050506040830135926060810135926080909101359150565b600080600060408486031215610d7c578283fd5b8335610d8781610f23565b9250602084013567ffffffffffffffff811115610da2578283fd5b610dae86828701610c0e565b9497909650939450505050565b60008060008060008060a08789031215610dd3578081fd5b8635610dde81610f23565b9550602087013567ffffffffffffffff811115610df9578182fd5b610e0589828a01610c0e565b979a90995096976040810135976060820135975060809091013595509350505050565b600060208284031215610e39578081fd5b81518015158114610c07578182fd5b6020808252601e908201527f4c4f53534c4553533a204e6f742070726f74656374696f6e2061646d696e0000604082015260600190565b60008219821115610e9257610e92610f0d565b500190565b600082610eb257634e487b7160e01b81526012600452602481fd5b500490565b6000816000190483118215151615610ed157610ed1610f0d565b500290565b600082821015610ee857610ee8610f0d565b500390565b600060ff821660ff811415610f0457610f04610f0d565b60010192915050565b634e487b7160e01b600052601160045260246000fd5b6001600160a01b0381168114610f3857600080fd5b5056fea2646970667358221220e8ad1ec4e3c0adf8b2a963c1cb0ef61ffbe946bdc196cd2676eec9a1f52aa5e464736f6c63430008040033",
  "linkReferences": {},
  "deployedLinkReferences": {}
}