{
  "_format": "hh-sol-artifact-1",
  "contractName": "LERC20",
  "sourceName": "contracts/utils/LERC20.sol",
  "abi": [
    {
      "inputs": [
        {
          "internalType": "uint256",
          "name": "totalSupply_",
          "type": "uint256"
        },
        {
          "internalType": "string",
          "name": "name_",
          "type": "string"
        },
        {
          "internalType": "string",
          "name": "symbol_",
          "type": "string"
        },
        {
          "internalType": "address",
          "name": "admin_",
          "type": "address"
        },
        {
          "internalType": "address",
          "name": "recoveryAdmin_",
          "type": "address"
        },
        {
          "internalType": "uint256",
          "name": "timelockPeriod_",
          "type": "uint256"
        },
        {
          "internalType": "address",
          "name": "lossless_",
          "type": "address"
        }
      ],
      "stateMutability": "nonpayable",
      "type": "constructor"
    },
    {
      "anonymous": false,
      "inputs": [
        {
          "indexed": true,
          "internalType": "address",
          "name": "_owner",
          "type": "address"
        },
        {
          "indexed": true,
          "internalType": "address",
          "name": "_spender",
          "type": "address"
        },
        {
          "indexed": false,
          "internalType": "uint256",
          "name": "_value",
          "type": "uint256"
        }
      ],
      "name": "Approval",
      "type": "event"
    },
    {
      "anonymous": false,
      "inputs": [],
      "name": "LosslessOff",
      "type": "event"
    },
    {
      "anonymous": false,
      "inputs": [],
      "name": "LosslessOn",
      "type": "event"
    },
    {
      "anonymous": false,
      "inputs": [
        {
          "indexed": false,
          "internalType": "uint256",
          "name": "_turnOffDate",
          "type": "uint256"
        }
      ],
      "name": "LosslessTurnOffProposal",
      "type": "event"
    },
    {
      "anonymous": false,
      "inputs": [
        {
          "indexed": true,
          "internalType": "address",
          "name": "_newAdmin",
          "type": "address"
        }
      ],
      "name": "NewAdmin",
      "type": "event"
    },
    {
      "anonymous": false,
      "inputs": [
        {
          "indexed": true,
          "internalType": "address",
          "name": "_newAdmin",
          "type": "address"
        }
      ],
      "name": "NewRecoveryAdmin",
      "type": "event"
    },
    {
      "anonymous": false,
      "inputs": [
        {
          "indexed": true,
          "internalType": "address",
          "name": "_candidate",
          "type": "address"
        }
      ],
      "name": "NewRecoveryAdminProposal",
      "type": "event"
    },
    {
      "anonymous": false,
      "inputs": [
        {
          "indexed": true,
          "internalType": "address",
          "name": "_from",
          "type": "address"
        },
        {
          "indexed": true,
          "internalType": "address",
          "name": "_to",
          "type": "address"
        },
        {
          "indexed": false,
          "internalType": "uint256",
          "name": "_value",
          "type": "uint256"
        }
      ],
      "name": "Transfer",
      "type": "event"
    },
    {
      "inputs": [
        {
          "internalType": "bytes",
          "name": "key",
          "type": "bytes"
        }
      ],
      "name": "acceptRecoveryAdminOwnership",
      "outputs": [],
      "stateMutability": "nonpayable",
      "type": "function"
    },
    {
      "inputs": [],
      "name": "admin",
      "outputs": [
        {
          "internalType": "address",
          "name": "",
          "type": "address"
        }
      ],
      "stateMutability": "view",
      "type": "function"
    },
    {
      "inputs": [
        {
          "internalType": "address",
          "name": "owner",
          "type": "address"
        },
        {
          "internalType": "address",
          "name": "spender",
          "type": "address"
        }
      ],
      "name": "allowance",
      "outputs": [
        {
          "internalType": "uint256",
          "name": "",
          "type": "uint256"
        }
      ],
      "stateMutability": "view",
      "type": "function"
    },
    {
      "inputs": [
        {
          "internalType": "address",
          "name": "spender",
          "type": "address"
        },
        {
          "internalType": "uint256",
          "name": "amount",
          "type": "uint256"
        }
      ],
      "name": "approve",
      "outputs": [
        {
          "internalType": "bool",
          "name": "",
          "type": "bool"
        }
      ],
      "stateMutability": "nonpayable",
      "type": "function"
    },
    {
      "inputs": [
        {
          "internalType": "address",
          "name": "account",
          "type": "address"
        }
      ],
      "name": "balanceOf",
      "outputs": [
        {
          "internalType": "uint256",
          "name": "",
          "type": "uint256"
        }
      ],
      "stateMutability": "view",
      "type": "function"
    },
    {
      "inputs": [],
      "name": "decimals",
      "outputs": [
        {
          "internalType": "uint8",
          "name": "",
          "type": "uint8"
        }
      ],
      "stateMutability": "view",
      "type": "function"
    },
    {
      "inputs": [
        {
          "internalType": "address",
          "name": "spender",
          "type": "address"
        },
        {
          "internalType": "uint256",
          "name": "subtractedValue",
          "type": "uint256"
        }
      ],
      "name": "decreaseAllowance",
      "outputs": [
        {
          "internalType": "bool",
          "name": "",
          "type": "bool"
        }
      ],
      "stateMutability": "nonpayable",
      "type": "function"
    },
    {
      "inputs": [],
      "name": "executeLosslessTurnOff",
      "outputs": [],
      "stateMutability": "nonpayable",
      "type": "function"
    },
    {
      "inputs": [],
      "name": "executeLosslessTurnOn",
      "outputs": [],
      "stateMutability": "nonpayable",
      "type": "function"
    },
    {
      "inputs": [],
      "name": "getAdmin",
      "outputs": [
        {
          "internalType": "address",
          "name": "",
          "type": "address"
        }
      ],
      "stateMutability": "view",
      "type": "function"
    },
    {
      "inputs": [
        {
          "internalType": "address",
          "name": "spender",
          "type": "address"
        },
        {
          "internalType": "uint256",
          "name": "addedValue",
          "type": "uint256"
        }
      ],
      "name": "increaseAllowance",
      "outputs": [
        {
          "internalType": "bool",
          "name": "",
          "type": "bool"
        }
      ],
      "stateMutability": "nonpayable",
      "type": "function"
    },
    {
      "inputs": [],
      "name": "isLosslessOn",
      "outputs": [
        {
          "internalType": "bool",
          "name": "",
          "type": "bool"
        }
      ],
      "stateMutability": "view",
      "type": "function"
    },
    {
      "inputs": [],
      "name": "lossless",
      "outputs": [
        {
          "internalType": "contract ILssController",
          "name": "",
          "type": "address"
        }
      ],
      "stateMutability": "view",
      "type": "function"
    },
    {
      "inputs": [],
      "name": "losslessTurnOffTimestamp",
      "outputs": [
        {
          "internalType": "uint256",
          "name": "",
          "type": "uint256"
        }
      ],
      "stateMutability": "view",
      "type": "function"
    },
    {
      "inputs": [],
      "name": "name",
      "outputs": [
        {
          "internalType": "string",
          "name": "",
          "type": "string"
        }
      ],
      "stateMutability": "view",
      "type": "function"
    },
    {
      "inputs": [],
      "name": "proposeLosslessTurnOff",
      "outputs": [],
      "stateMutability": "nonpayable",
      "type": "function"
    },
    {
      "inputs": [],
      "name": "recoveryAdmin",
      "outputs": [
        {
          "internalType": "address",
          "name": "",
          "type": "address"
        }
      ],
      "stateMutability": "view",
      "type": "function"
    },
    {
      "inputs": [
        {
          "internalType": "address",
          "name": "newAdmin",
          "type": "address"
        }
      ],
      "name": "setLosslessAdmin",
      "outputs": [],
      "stateMutability": "nonpayable",
      "type": "function"
    },
    {
      "inputs": [],
      "name": "symbol",
      "outputs": [
        {
          "internalType": "string",
          "name": "",
          "type": "string"
        }
      ],
      "stateMutability": "view",
      "type": "function"
    },
    {
      "inputs": [],
      "name": "timelockPeriod",
      "outputs": [
        {
          "internalType": "uint256",
          "name": "",
          "type": "uint256"
        }
      ],
      "stateMutability": "view",
      "type": "function"
    },
    {
      "inputs": [],
      "name": "totalSupply",
      "outputs": [
        {
          "internalType": "uint256",
          "name": "",
          "type": "uint256"
        }
      ],
      "stateMutability": "view",
      "type": "function"
    },
    {
      "inputs": [
        {
          "internalType": "address",
          "name": "recipient",
          "type": "address"
        },
        {
          "internalType": "uint256",
          "name": "amount",
          "type": "uint256"
        }
      ],
      "name": "transfer",
      "outputs": [
        {
          "internalType": "bool",
          "name": "",
          "type": "bool"
        }
      ],
      "stateMutability": "nonpayable",
      "type": "function"
    },
    {
      "inputs": [
        {
          "internalType": "address",
          "name": "sender",
          "type": "address"
        },
        {
          "internalType": "address",
          "name": "recipient",
          "type": "address"
        },
        {
          "internalType": "uint256",
          "name": "amount",
          "type": "uint256"
        }
      ],
      "name": "transferFrom",
      "outputs": [
        {
          "internalType": "bool",
          "name": "",
          "type": "bool"
        }
      ],
      "stateMutability": "nonpayable",
      "type": "function"
    },
    {
      "inputs": [
        {
          "internalType": "address[]",
          "name": "from",
          "type": "address[]"
        }
      ],
      "name": "transferOutBlacklistedFunds",
      "outputs": [],
      "stateMutability": "nonpayable",
      "type": "function"
    },
    {
      "inputs": [
        {
          "internalType": "address",
          "name": "candidate",
          "type": "address"
        },
        {
          "internalType": "bytes32",
          "name": "keyHash",
          "type": "bytes32"
        }
      ],
      "name": "transferRecoveryAdminOwnership",
      "outputs": [],
      "stateMutability": "nonpayable",
      "type": "function"
    }
  ],
  "bytecode": "0x6080604052600b805460ff191660011790553480156200001e57600080fd5b50604051620018c6380380620018c6833981016040819052620000419162000325565b6200004d3388620000e9565b855162000062906003906020890190620001af565b50845162000078906004906020880190620001af565b50600880546001600160a01b039586166001600160a01b03199182161790915560058054948616948216949094179093556006805490931690925560006007819055600991909155600a55600b80549190921661010002610100600160a81b03199091161790555062000450915050565b6001600160a01b038216620001445760405162461bcd60e51b815260206004820181905260248201527f4c45524332303a206d696e7420746f20746865207a65726f2061646472657373604482015260640160405180910390fd5b8060026000828254620001589190620003d8565b90915550506001600160a01b038216600081815260208181526040808320805486019055518481527fddf252ad1be2c89b69c2b068fc378daa952ba7f163c4a11628f55a4df523b3ef910160405180910390a35050565b828054620001bd90620003fd565b90600052602060002090601f016020900481019282620001e157600085556200022c565b82601f10620001fc57805160ff19168380011785556200022c565b828001600101855582156200022c579182015b828111156200022c5782518255916020019190600101906200020f565b506200023a9291506200023e565b5090565b5b808211156200023a57600081556001016200023f565b80516001600160a01b03811681146200026d57600080fd5b919050565b600082601f83011262000283578081fd5b81516001600160401b0380821115620002a057620002a06200043a565b604051601f8301601f19908116603f01168101908282118183101715620002cb57620002cb6200043a565b81604052838152602092508683858801011115620002e7578485fd5b8491505b838210156200030a5785820183015181830184015290820190620002eb565b838211156200031b57848385830101525b9695505050505050565b600080600080600080600060e0888a03121562000340578283fd5b875160208901519097506001600160401b03808211156200035f578485fd5b6200036d8b838c0162000272565b975060408a015191508082111562000383578485fd5b50620003928a828b0162000272565b955050620003a36060890162000255565b9350620003b36080890162000255565b925060a08801519150620003ca60c0890162000255565b905092959891949750929550565b60008219821115620003f857634e487b7160e01b81526011600452602481fd5b500190565b600181811c908216806200041257607f821691505b602082108114156200043457634e487b7160e01b600052602260045260246000fd5b50919050565b634e487b7160e01b600052604160045260246000fd5b61146680620004606000396000f3fe608060405234801561001057600080fd5b50600436106101735760003560e01c80636e9960c3116100de578063a9059cbb11610097578063ccfa214f11610071578063ccfa214f1461031b578063d6e242b814610328578063dd62ed3e14610330578063f851a4401461036957600080fd5b8063a9059cbb146102ed578063b38fe95714610300578063b5c228771461030857600080fd5b80636e9960c31461027257806370a082311461028357806393310ffe146102ac578063936af911146102bf57806395d89b41146102d2578063a457c2d7146102da57600080fd5b8063313ce56711610130578063313ce567146101fc57806334f6ebf51461020b578063395093511461023b5780635b8a194a1461024e5780635f6529a31461025657806361086b001461026957600080fd5b806306fdde0314610178578063095ea7b31461019657806318160ddd146101b957806323b872dd146101cb5780632baa3c9e146101de5780632ecaf675146101f3575b600080fd5b61018061037c565b60405161018d9190611310565b60405180910390f35b6101a96101a43660046111a9565b61040e565b604051901515815260200161018d565b6002545b60405190815260200161018d565b6101a96101d936600461116e565b6104a0565b6101f16101ec36600461111b565b6105f4565b005b6101bd60095481565b6040516012815260200161018d565b600b546102239061010090046001600160a01b031681565b6040516001600160a01b03909116815260200161018d565b6101a96102493660046111a9565b6106db565b6101f161078d565b600554610223906001600160a01b031681565b6101bd600a5481565b6008546001600160a01b0316610223565b6101bd61029136600461111b565b6001600160a01b031660009081526020819052604090205490565b6101f16102ba3660046111a9565b610850565b6101f16102cd3660046111d2565b6108d3565b610180610a3c565b6101a96102e83660046111a9565b610a4b565b6101a96102fb3660046111a9565b610b65565b6101f1610bec565b6101f1610316366004611242565b610cfa565b600b546101a99060ff1681565b6101f1610e0a565b6101bd61033e36600461113c565b6001600160a01b03918216600090815260016020908152604080832093909416825291909152205490565b600854610223906001600160a01b031681565b60606003805461038b906113c9565b80601f01602080910402602001604051908101604052809291908181526020018280546103b7906113c9565b80156104045780601f106103d957610100808354040283529160200191610404565b820191906000526020600020905b8154815290600101906020018083116103e757829003601f168201915b5050505050905090565b600b546000908390839060ff161561048a57600b5461010090046001600160a01b03166347abf3be3384846040518463ffffffff1660e01b8152600401610457939291906112ec565b600060405180830381600087803b15801561047157600080fd5b505af1158015610485573d6000803e3d6000fd5b505050505b610495338686610f26565b506001949350505050565b600b5460009084908490849060ff161561053c57600b5461010090046001600160a01b031663379f5c69336040516001600160e01b031960e084901b1681526001600160a01b0391821660048201528187166024820152908516604482015260648101849052608401600060405180830381600087803b15801561052357600080fd5b505af1158015610537573d6000803e3d6000fd5b505050505b6001600160a01b0387166000908152600160209081526040808320338452909152902054858110156105c75760405162461bcd60e51b815260206004820152602960248201527f4c45524332303a207472616e7366657220616d6f756e74206578636565647320604482015268616c6c6f77616e636560b81b60648201526084015b60405180910390fd5b6105d2888888610f87565b6105e688336105e189856113b2565b610f26565b506001979650505050505050565b6005546001600160a01b0316336001600160a01b0316146106275760405162461bcd60e51b81526004016105be90611363565b6008546001600160a01b03828116911614156106855760405162461bcd60e51b815260206004820152601f60248201527f4c45524332303a2043616e6e6f74207365742073616d6520616464726573730060448201526064016105be565b6040516001600160a01b038216907f71614071b88dee5e0b2ae578a9dd7b2ebbe9ae832ba419dc0242cd065a290b6c90600090a2600880546001600160a01b0319166001600160a01b0392909216919091179055565b600b546000908390839060ff161561075757600b5461010090046001600160a01b031663cf5961bb3384846040518463ffffffff1660e01b8152600401610724939291906112ec565b600060405180830381600087803b15801561073e57600080fd5b505af1158015610752573d6000803e3d6000fd5b505050505b3360008181526001602090815260408083206001600160a01b038a168452909152902054610495919087906105e190889061139a565b6005546001600160a01b0316336001600160a01b0316146107c05760405162461bcd60e51b81526004016105be90611363565b600b5460ff16156108135760405162461bcd60e51b815260206004820152601b60248201527f4c45524332303a204c6f73736c65737320616c7265616479206f6e000000000060448201526064016105be565b6000600a819055600b805460ff191660011790556040517f1ba3b66404043da8297d0b876fa6464f2cb127edfc6626308046d4503028322b9190a1565b6005546001600160a01b0316336001600160a01b0316146108835760405162461bcd60e51b81526004016105be90611363565b600680546001600160a01b0319166001600160a01b03841690811790915560078290556040517f6c591da8da2f6e69746d7d9ae61c27ee29fbe303798141b4942ae2aef54274b190600090a25050565b600b5461010090046001600160a01b0316336001600160a01b03161461093b5760405162461bcd60e51b815260206004820152601e60248201527f4c45524332303a204f6e6c79206c6f73736c65737320636f6e7472616374000060448201526064016105be565b806000805b82811015610a0157600085858381811061096a57634e487b7160e01b600052603260045260246000fd5b905060200201602081019061097f919061111b565b6001600160a01b038116600090815260208190526040812080549190559091506109a9818561139a565b600b546040518381529195506001600160a01b03610100909104811691908416907fddf252ad1be2c89b69c2b068fc378daa952ba7f163c4a11628f55a4df523b3ef9060200160405180910390a35050600101610940565b50600b5461010090046001600160a01b031660009081526020819052604081208054839290610a3190849061139a565b909155505050505050565b60606004805461038b906113c9565b600b546000908390839060ff1615610ac757600b5461010090046001600160a01b031663568c75a93384846040518463ffffffff1660e01b8152600401610a94939291906112ec565b600060405180830381600087803b158015610aae57600080fd5b505af1158015610ac2573d6000803e3d6000fd5b505050505b3360009081526001602090815260408083206001600160a01b038916845290915290205484811015610b4a5760405162461bcd60e51b815260206004820152602660248201527f4c45524332303a2064656372656173656420616c6c6f77616e63652062656c6f60448201526577207a65726f60d01b60648201526084016105be565b610b5933876105e188856113b2565b50600195945050505050565b600b546000908390839060ff1615610be157600b5461010090046001600160a01b0316631ffb811f3384846040518463ffffffff1660e01b8152600401610bae939291906112ec565b600060405180830381600087803b158015610bc857600080fd5b505af1158015610bdc573d6000803e3d6000fd5b505050505b610495338686610f87565b6005546001600160a01b0316336001600160a01b031614610c1f5760405162461bcd60e51b81526004016105be90611363565b600a54610c6e5760405162461bcd60e51b815260206004820152601c60248201527f4c45524332303a205475726e4f6666206e6f742070726f706f7365640000000060448201526064016105be565b42600a541115610cc05760405162461bcd60e51b815260206004820152601d60248201527f4c45524332303a2054696d65206c6f636b20696e2070726f677265737300000060448201526064016105be565b600b805460ff191690556000600a8190556040517f3eb72350c9c7928d31e9ab450bfff2c159434aa4b82658a7d8eae7f109cb4e7b9190a1565b6006546001600160a01b0316336001600160a01b031614610d5d5760405162461bcd60e51b815260206004820152601960248201527f4c45524332303a204d7573742062652063616e6469746174650000000000000060448201526064016105be565b6007548151602083012014610daa5760405162461bcd60e51b81526020600482015260136024820152724c45524332303a20496e76616c6964206b657960681b60448201526064016105be565b6006546040516001600160a01b03909116907fb94bba6936ec7f75ee931dadf6e1a4d66b43d09b6fa0178fb13df9b77fb5841f90600090a25060068054600580546001600160a01b03199081166001600160a01b03841617909155169055565b6005546001600160a01b0316336001600160a01b031614610e3d5760405162461bcd60e51b81526004016105be90611363565b600a5415610e8d5760405162461bcd60e51b815260206004820181905260248201527f4c45524332303a205475726e4f666620616c72656164792070726f706f73656460448201526064016105be565b600b5460ff16610edf5760405162461bcd60e51b815260206004820152601c60248201527f4c45524332303a204c6f73736c65737320616c7265616479206f66660000000060448201526064016105be565b600954610eec904261139a565b600a8190556040519081527f6ca688e6e3ddd707280140b2bf0106afe883689b6c74e68cbd517576dd9c245a9060200160405180910390a1565b6001600160a01b0383811660008181526001602090815260408083209487168084529482529182902085905590518481527f8c5be1e5ebec7d5bd14f71427d1e84f3dd0314c0f7b2291e5b200ac8c7c3b925910160405180910390a3505050565b6001600160a01b038316610fec5760405162461bcd60e51b815260206004820152602660248201527f4c45524332303a207472616e736665722066726f6d20746865207a65726f206160448201526564647265737360d01b60648201526084016105be565b6001600160a01b038316600090815260208190526040902054818110156110655760405162461bcd60e51b815260206004820152602760248201527f4c45524332303a207472616e7366657220616d6f756e7420657863656564732060448201526662616c616e636560c81b60648201526084016105be565b61106f82826113b2565b6001600160a01b0380861660009081526020819052604080822093909355908516815290812080548492906110a590849061139a565b92505081905550826001600160a01b0316846001600160a01b03167fddf252ad1be2c89b69c2b068fc378daa952ba7f163c4a11628f55a4df523b3ef846040516110f191815260200190565b60405180910390a350505050565b80356001600160a01b038116811461111657600080fd5b919050565b60006020828403121561112c578081fd5b611135826110ff565b9392505050565b6000806040838503121561114e578081fd5b611157836110ff565b9150611165602084016110ff565b90509250929050565b600080600060608486031215611182578081fd5b61118b846110ff565b9250611199602085016110ff565b9150604084013590509250925092565b600080604083850312156111bb578182fd5b6111c4836110ff565b946020939093013593505050565b600080602083850312156111e4578182fd5b823567ffffffffffffffff808211156111fb578384fd5b818501915085601f83011261120e578384fd5b81358181111561121c578485fd5b8660208260051b8501011115611230578485fd5b60209290920196919550909350505050565b600060208284031215611253578081fd5b813567ffffffffffffffff8082111561126a578283fd5b818401915084601f83011261127d578283fd5b81358181111561128f5761128f61141a565b604051601f8201601f19908116603f011681019083821181831017156112b7576112b761141a565b816040528281528760208487010111156112cf578586fd5b826020860160208301379182016020019490945295945050505050565b6001600160a01b039384168152919092166020820152604081019190915260600190565b6000602080835283518082850152825b8181101561133c57858101830151858201604001528201611320565b8181111561134d5783604083870101525b50601f01601f1916929092016040019392505050565b6020808252601e908201527f4c45524332303a204d757374206265207265636f766572792061646d696e0000604082015260600190565b600082198211156113ad576113ad611404565b500190565b6000828210156113c4576113c4611404565b500390565b600181811c908216806113dd57607f821691505b602082108114156113fe57634e487b7160e01b600052602260045260246000fd5b50919050565b634e487b7160e01b600052601160045260246000fd5b634e487b7160e01b600052604160045260246000fdfea26469706673582212204299efafdbf1f095a1db6fd533d7294099ffc3e17050fda99e693b0d19eba2db64736f6c63430008040033",
  "linkReferences": {},
  "deployedLinkReferences": {}
}