{
  "_format": "hh-sol-artifact-1",
  "contractName": "TreasuryProtectionStrategy",
  "sourceName": "contracts/vault-protection/TreasuryProtectionStrategy.sol",
  "abi": [
    {
      "inputs": [
        {
          "internalType": "contract Guardian",
          "name": "_guardian",
          "type": "address"
        },
        {
          "internalType": "contract LosslessController",
          "name": "_controller",
          "type": "address"
        }
      ],
      "stateMutability": "nonpayable",
      "type": "constructor"
    },
    {
      "anonymous": false,
      "inputs": [
        {
          "indexed": true,
          "internalType": "address",
          "name": "newGuardian",
          "type": "address"
        }
      ],
      "name": "GuardianSet",
      "type": "event"
    },
    {
      "anonymous": false,
      "inputs": [
        {
          "indexed": true,
          "internalType": "address",
          "name": "token",
          "type": "address"
        },
        {
          "indexed": true,
          "internalType": "address",
          "name": "protectedAddress",
          "type": "address"
        }
      ],
      "name": "Paused",
      "type": "event"
    },
    {
      "anonymous": false,
      "inputs": [
        {
          "indexed": false,
          "internalType": "address",
          "name": "token",
          "type": "address"
        },
        {
          "indexed": false,
          "internalType": "address[]",
          "name": "addressesToRemove",
          "type": "address[]"
        }
      ],
      "name": "RemovedWhitelistAddresses",
      "type": "event"
    },
    {
      "anonymous": false,
      "inputs": [
        {
          "indexed": true,
          "internalType": "address",
          "name": "token",
          "type": "address"
        },
        {
          "indexed": true,
          "internalType": "address",
          "name": "protectedAddress",
          "type": "address"
        }
      ],
      "name": "Unpaused",
      "type": "event"
    },
    {
      "anonymous": false,
      "inputs": [
        {
          "indexed": false,
          "internalType": "address",
          "name": "token",
          "type": "address"
        },
        {
          "indexed": false,
          "internalType": "address",
          "name": "protectedAddress",
          "type": "address"
        },
        {
          "indexed": false,
          "internalType": "address[]",
          "name": "whitelist",
          "type": "address[]"
        },
        {
          "indexed": false,
          "internalType": "bool",
          "name": "state",
          "type": "bool"
        }
      ],
      "name": "WhitelistAddresses",
      "type": "event"
    },
    {
      "inputs": [],
      "name": "controller",
      "outputs": [
        {
          "internalType": "contract LosslessController",
          "name": "",
          "type": "address"
        }
      ],
      "stateMutability": "view",
      "type": "function"
    },
    {
      "inputs": [],
      "name": "guardian",
      "outputs": [
        {
          "internalType": "contract Guardian",
          "name": "",
          "type": "address"
        }
      ],
      "stateMutability": "view",
      "type": "function"
    },
    {
      "inputs": [
        {
          "internalType": "address",
          "name": "token",
          "type": "address"
        },
        {
          "internalType": "address",
          "name": "protectedAddress",
          "type": "address"
        },
        {
          "internalType": "address",
          "name": "whitelistedAddress",
          "type": "address"
        }
      ],
      "name": "isAddressWhitelisted",
      "outputs": [
        {
          "internalType": "bool",
          "name": "",
          "type": "bool"
        }
      ],
      "stateMutability": "view",
      "type": "function"
    },
    {
      "inputs": [
        {
          "internalType": "address",
          "name": "token",
          "type": "address"
        },
        {
          "internalType": "address",
          "name": "sender",
          "type": "address"
        },
        {
          "internalType": "address",
          "name": "recipient",
          "type": "address"
        },
        {
          "internalType": "uint256",
          "name": "amount",
          "type": "uint256"
        }
      ],
      "name": "isTransferAllowed",
      "outputs": [],
      "stateMutability": "view",
      "type": "function"
    },
    {
      "inputs": [
        {
          "internalType": "contract Guardian",
          "name": "newGuardian",
          "type": "address"
        }
      ],
      "name": "setGuardian",
      "outputs": [],
      "stateMutability": "nonpayable",
      "type": "function"
    },
    {
      "inputs": [
        {
          "internalType": "address",
          "name": "token",
          "type": "address"
        },
        {
          "internalType": "address",
          "name": "protectedAddress",
          "type": "address"
        },
        {
          "internalType": "address[]",
          "name": "whitelist",
          "type": "address[]"
        }
      ],
      "name": "setProtectedAddress",
      "outputs": [],
      "stateMutability": "nonpayable",
      "type": "function"
    },
    {
      "inputs": [
        {
          "internalType": "address",
          "name": "token",
          "type": "address"
        },
        {
          "internalType": "address",
          "name": "protectedAddress",
          "type": "address"
        },
        {
          "internalType": "address[]",
          "name": "addresses",
          "type": "address[]"
        },
        {
          "internalType": "bool",
          "name": "state",
          "type": "bool"
        }
      ],
      "name": "setWhitelistState",
      "outputs": [],
      "stateMutability": "nonpayable",
      "type": "function"
    }
  ],
  "bytecode": "0x608060405234801561001057600080fd5b506040516109dd3803806109dd83398101604081905261002f91610060565b600080546001600160a01b039384166001600160a01b031991821617909155600180549290931691161790556100b1565b60008060408385031215610072578182fd5b825161007d81610099565b602084015190925061008e81610099565b809150509250929050565b6001600160a01b03811681146100ae57600080fd5b50565b61091d806100c06000396000f3fe608060405234801561001057600080fd5b506004361061007d5760003560e01c80638a0dac4a1161005b5780638a0dac4a146100ea578063d4bab303146100fd578063f77c479114610110578063fb8f3bd21461012357600080fd5b80632f4fedd314610082578063452a9320146100aa578063691590d2146100d5575b600080fd5b6100956100903660046106b4565b610136565b60405190151581526020015b60405180910390f35b6000546100bd906001600160a01b031681565b6040516001600160a01b0390911681526020016100a1565b6100e86100e33660046107b1565b61016e565b005b6100e86100f8366004610675565b610343565b6100e861010b3660046106fe565b610473565b6001546100bd906001600160a01b031681565b6100e861013136600461074e565b6104d0565b6001600160a01b0392831660009081526002602090815260408083209486168352938152838220929094168152925290205460ff1690565b600054604051637ce2f8d960e11b81526001600160a01b0380881660048301528792169063f9c5f1b290602401602060405180830381600087803b1580156101b557600080fd5b505af11580156101c9573d6000803e3d6000fd5b505050506040513d601f19601f820116820180604052508101906101ed9190610698565b6001600160a01b0316336001600160a01b0316146102525760405162461bcd60e51b815260206004820152601e60248201527f4c4f53534c4553533a204e6f742070726f74656374696f6e2061646d696e000060448201526064015b60405180910390fd5b60005b60ff81168411156102fb576001600160a01b038088166000908152600260209081526040808320938a1683529290529081208491878760ff86168181106102ac57634e487b7160e01b600052603260045260246000fd5b90506020020160208101906102c19190610675565b6001600160a01b031681526020810191909152604001600020805460ff1916911515919091179055806102f3816108a3565b915050610255565b507fc12f36880c84e510323bbb37799326dd2f4e249cb75294659da32b4370dedf2b8686868686604051610333959493929190610830565b60405180910390a1505050505050565b600160009054906101000a90046001600160a01b03166001600160a01b031663f851a4406040518163ffffffff1660e01b8152600401602060405180830381600087803b15801561039357600080fd5b505af11580156103a7573d6000803e3d6000fd5b505050506040513d601f19601f820116820180604052508101906103cb9190610698565b6001600160a01b0316336001600160a01b03161461042b5760405162461bcd60e51b815260206004820152601c60248201527f4c4f53534c4553533a204e6f74206c6f73736c6573732061646d696e000000006044820152606401610249565b600080546001600160a01b0319166001600160a01b038316908117825560405190917fe6c09ffe4572dc9ceaa5ddde4ae41befa655d6fdfe8052077af0970f700e942e91a250565b61047e848484610136565b6104ca5760405162461bcd60e51b815260206004820152601960248201527f4c4f53534c4553533a206e6f742077686974656c6973746564000000000000006044820152606401610249565b50505050565b600054604051637ce2f8d960e11b81526001600160a01b0380871660048301528692169063f9c5f1b290602401602060405180830381600087803b15801561051757600080fd5b505af115801561052b573d6000803e3d6000fd5b505050506040513d601f19601f8201168201806040525081019061054f9190610698565b6001600160a01b0316336001600160a01b0316146105af5760405162461bcd60e51b815260206004820152601e60248201527f4c4f53534c4553533a204e6f742070726f74656374696f6e2061646d696e00006044820152606401610249565b6105bd85858585600161016e565b600054604051630112017b60e31b81526001600160a01b0387811660048301528681166024830152909116906308900bd890604401600060405180830381600087803b15801561060c57600080fd5b505af1158015610620573d6000803e3d6000fd5b505050505050505050565b60008083601f84011261063c578182fd5b50813567ffffffffffffffff811115610653578182fd5b6020830191508360208260051b850101111561066e57600080fd5b9250929050565b600060208284031215610686578081fd5b8135610691816108cf565b9392505050565b6000602082840312156106a9578081fd5b8151610691816108cf565b6000806000606084860312156106c8578182fd5b83356106d3816108cf565b925060208401356106e3816108cf565b915060408401356106f3816108cf565b809150509250925092565b60008060008060808587031215610713578081fd5b843561071e816108cf565b9350602085013561072e816108cf565b9250604085013561073e816108cf565b9396929550929360600135925050565b60008060008060608587031215610763578384fd5b843561076e816108cf565b9350602085013561077e816108cf565b9250604085013567ffffffffffffffff811115610799578283fd5b6107a58782880161062b565b95989497509550505050565b6000806000806000608086880312156107c8578081fd5b85356107d3816108cf565b945060208601356107e3816108cf565b9350604086013567ffffffffffffffff8111156107fe578182fd5b61080a8882890161062b565b90945092505060608601358015158114610822578182fd5b809150509295509295909350565b6001600160a01b0386811682528581166020808401919091526080604084018190528301859052600091869160a08501845b88811015610889578435610875816108cf565b841682529382019390820190600101610862565b508094505050505082151560608301529695505050505050565b600060ff821660ff8114156108c657634e487b7160e01b82526011600452602482fd5b60010192915050565b6001600160a01b03811681146108e457600080fd5b5056fea2646970667358221220633bd2b2b8b01f973b2a1dcfd3b491faa179d220c6a4505e038c75026f9b6a1464736f6c63430008040033",
  "linkReferences": {},
  "deployedLinkReferences": {}
}