{
  "_format": "hh-sol-artifact-1",
  "contractName": "LosslessGuardian",
  "sourceName": "contracts/vault-protection/LosslessGuardian.sol",
  "abi": [
    {
      "inputs": [
        {
          "internalType": "address",
          "name": "_lossless",
          "type": "address"
        }
      ],
      "stateMutability": "nonpayable",
      "type": "constructor"
    },
    {
      "anonymous": false,
      "inputs": [
        {
          "indexed": true,
          "internalType": "address",
          "name": "token",
          "type": "address"
        },
        {
          "indexed": true,
          "internalType": "address",
          "name": "verifiedAddress",
          "type": "address"
        },
        {
          "indexed": false,
          "internalType": "bool",
          "name": "value",
          "type": "bool"
        }
      ],
      "name": "AddressVerified",
      "type": "event"
    },
    {
      "anonymous": false,
      "inputs": [
        {
          "indexed": true,
          "internalType": "address",
          "name": "token",
          "type": "address"
        },
        {
          "indexed": true,
          "internalType": "address",
          "name": "admin",
          "type": "address"
        }
      ],
      "name": "ProtectionAdminSet",
      "type": "event"
    },
    {
      "anonymous": false,
      "inputs": [
        {
          "indexed": true,
          "internalType": "address",
          "name": "strategy",
          "type": "address"
        },
        {
          "indexed": false,
          "internalType": "bool",
          "name": "value",
          "type": "bool"
        }
      ],
      "name": "StrategyVerified",
      "type": "event"
    },
    {
      "anonymous": false,
      "inputs": [
        {
          "indexed": true,
          "internalType": "address",
          "name": "token",
          "type": "address"
        },
        {
          "indexed": false,
          "internalType": "bool",
          "name": "value",
          "type": "bool"
        }
      ],
      "name": "TokenVerified",
      "type": "event"
    },
    {
      "inputs": [
        {
          "internalType": "address",
          "name": "token",
          "type": "address"
        },
        {
          "internalType": "address",
          "name": "addressToCheck",
          "type": "address"
        }
      ],
      "name": "isAddressVerified",
      "outputs": [
        {
          "internalType": "bool",
          "name": "",
          "type": "bool"
        }
      ],
      "stateMutability": "view",
      "type": "function"
    },
    {
      "inputs": [],
      "name": "lossless",
      "outputs": [
        {
          "internalType": "contract LosslessController",
          "name": "",
          "type": "address"
        }
      ],
      "stateMutability": "view",
      "type": "function"
    },
    {
      "inputs": [
        {
          "internalType": "address",
          "name": "",
          "type": "address"
        }
      ],
      "name": "protectionAdmin",
      "outputs": [
        {
          "internalType": "address",
          "name": "",
          "type": "address"
        }
      ],
      "stateMutability": "view",
      "type": "function"
    },
    {
      "inputs": [
        {
          "internalType": "address",
          "name": "token",
          "type": "address"
        },
        {
          "internalType": "address",
          "name": "protectedAddress",
          "type": "address"
        }
      ],
      "name": "removeProtectedAddresses",
      "outputs": [],
      "stateMutability": "nonpayable",
      "type": "function"
    },
    {
      "inputs": [
        {
          "internalType": "address",
          "name": "token",
          "type": "address"
        },
        {
          "internalType": "address",
          "name": "guardedAddress",
          "type": "address"
        }
      ],
      "name": "setProtectedAddress",
      "outputs": [],
      "stateMutability": "nonpayable",
      "type": "function"
    },
    {
      "inputs": [
        {
          "internalType": "address",
          "name": "token",
          "type": "address"
        },
        {
          "internalType": "address",
          "name": "admin",
          "type": "address"
        }
      ],
      "name": "setProtectionAdmin",
      "outputs": [],
      "stateMutability": "nonpayable",
      "type": "function"
    },
    {
      "inputs": [
        {
          "internalType": "address",
          "name": "",
          "type": "address"
        }
      ],
      "name": "verifiedStrategies",
      "outputs": [
        {
          "internalType": "bool",
          "name": "",
          "type": "bool"
        }
      ],
      "stateMutability": "view",
      "type": "function"
    },
    {
      "inputs": [
        {
          "internalType": "address",
          "name": "",
          "type": "address"
        }
      ],
      "name": "verifiedTokens",
      "outputs": [
        {
          "internalType": "bool",
          "name": "",
          "type": "bool"
        }
      ],
      "stateMutability": "view",
      "type": "function"
    },
    {
      "inputs": [
        {
          "internalType": "address",
          "name": "token",
          "type": "address"
        },
        {
          "internalType": "address",
          "name": "verifiedAddress",
          "type": "address"
        },
        {
          "internalType": "bool",
          "name": "value",
          "type": "bool"
        }
      ],
      "name": "verifyAddress",
      "outputs": [],
      "stateMutability": "nonpayable",
      "type": "function"
    },
    {
      "inputs": [
        {
          "internalType": "address[]",
          "name": "strategies",
          "type": "address[]"
        },
        {
          "internalType": "bool",
          "name": "value",
          "type": "bool"
        }
      ],
      "name": "verifyStrategies",
      "outputs": [],
      "stateMutability": "nonpayable",
      "type": "function"
    },
    {
      "inputs": [
        {
          "internalType": "address",
          "name": "token",
          "type": "address"
        },
        {
          "internalType": "bool",
          "name": "value",
          "type": "bool"
        }
      ],
      "name": "verifyToken",
      "outputs": [],
      "stateMutability": "nonpayable",
      "type": "function"
    }
  ],
  "bytecode": "0x608060405234801561001057600080fd5b50604051610cb6380380610cb683398101604081905261002f91610054565b600480546001600160a01b0319166001600160a01b0392909216919091179055610082565b600060208284031215610065578081fd5b81516001600160a01b038116811461007b578182fd5b9392505050565b610c25806100916000396000f3fe608060405234801561001057600080fd5b50600436106100a95760003560e01c80637b8b7364116100715780637b8b73641461015c578063959be73614610198578063c2659d13146101ab578063d2d66482146101be578063ddf6194b146101d1578063f9c5f1b2146101e457600080fd5b806308900bd8146100ae5780631baaaffe146100c35780632d2b0deb146100fb57806334f6ebf51461011e57806365529eef14610149575b600080fd5b6100c16100bc366004610a4c565b61020d565b005b6100e66100d1366004610a0d565b60026020526000908152604090205460ff1681565b60405190151581526020015b60405180910390f35b6100e6610109366004610a0d565b60016020526000908152604090205460ff1681565b600454610131906001600160a01b031681565b6040516001600160a01b0390911681526020016100f2565b6100c1610157366004610a84565b61035a565b6100e661016a366004610a4c565b6001600160a01b03918216600090815260036020908152604080832093909416825291909152205460ff1690565b6100c16101a6366004610afe565b6104de565b6100c16101b9366004610a4c565b610691565b6100c16101cc366004610aca565b61075a565b6100c16101df366004610a4c565b610865565b6101316101f2366004610a0d565b6000602081905290815260409020546001600160a01b031681565b3360009081526001602052604090205460ff166102715760405162461bcd60e51b815260206004820152601f60248201527f4c4f53534c4553533a205374726174656779206e6f742076657269666965640060448201526064015b60405180910390fd5b6001600160a01b0380831660009081526003602090815260408083209385168352929052205460ff166102e65760405162461bcd60e51b815260206004820152601e60248201527f4c4f53534c4553533a2041646472657373206e6f7420766572696669656400006044820152606401610268565b60048054604051633835b4d560e01b81526001600160a01b03858116938201939093528383166024820152336044820152911690633835b4d5906064015b600060405180830381600087803b15801561033e57600080fd5b505af1158015610352573d6000803e3d6000fd5b505050505050565b60048054604080516303e1469160e61b815290516001600160a01b039092169263f851a4409282820192602092908290030181600087803b15801561039e57600080fd5b505af11580156103b2573d6000803e3d6000fd5b505050506040513d601f19601f820116820180604052508101906103d69190610a30565b6001600160a01b0316336001600160a01b0316146104065760405162461bcd60e51b815260040161026890610b74565b6001600160a01b038316600090815260026020526040902054839060ff166104705760405162461bcd60e51b815260206004820152601c60248201527f4c4f53534c4553533a20546f6b656e206e6f74207665726966696564000000006044820152606401610268565b6001600160a01b03848116600081815260036020908152604080832094881680845294825291829020805460ff191687151590811790915591519182527f71b85259608aefa2594bfd2f739d79e85b0b17e3e0e13dcf35f6977b17857d51910160405180910390a350505050565b60048054604080516303e1469160e61b815290516001600160a01b039092169263f851a4409282820192602092908290030181600087803b15801561052257600080fd5b505af1158015610536573d6000803e3d6000fd5b505050506040513d601f19601f8201168201806040525081019061055a9190610a30565b6001600160a01b0316336001600160a01b03161461058a5760405162461bcd60e51b815260040161026890610b74565b60005b60ff811683111561068b57816001600086868560ff168181106105c057634e487b7160e01b600052603260045260246000fd5b90506020020160208101906105d59190610a0d565b6001600160a01b031681526020810191909152604001600020805460ff1916911515919091179055838360ff831681811061062057634e487b7160e01b600052603260045260246000fd5b90506020020160208101906106359190610a0d565b6001600160a01b03167f1a4016a3a4bbdfae551adcec6f42b4c37f380fdb4996fbf9fa15c4fbf7e7489083604051610671911515815260200190565b60405180910390a28061068381610bab565b91505061058d565b50505050565b3360009081526001602052604090205460ff16806106d257506001600160a01b0382811660009081526020819052604090205416331480156106d257503315155b61071e5760405162461bcd60e51b815260206004820152601d60248201527f4c4f53534c4553533a20556e617574686f72697a6564206163636573730000006044820152606401610268565b600480546040516330e0e70360e11b81526001600160a01b038581169382019390935283831660248201529116906361c1ce0690604401610324565b60048054604080516303e1469160e61b815290516001600160a01b039092169263f851a4409282820192602092908290030181600087803b15801561079e57600080fd5b505af11580156107b2573d6000803e3d6000fd5b505050506040513d601f19601f820116820180604052508101906107d69190610a30565b6001600160a01b0316336001600160a01b0316146108065760405162461bcd60e51b815260040161026890610b74565b6001600160a01b038216600081815260026020908152604091829020805460ff191685151590811790915591519182527fd128f4457567637d4d9a19a54a44a6e47ba1ed0cc875b3cff7b762c8bb27b416910160405180910390a25050565b6001600160a01b038216600090815260026020526040902054829060ff166108cf5760405162461bcd60e51b815260206004820152601c60248201527f4c4f53534c4553533a20546f6b656e206e6f74207665726966696564000000006044820152606401610268565b336001600160a01b0316836001600160a01b0316636e9960c36040518163ffffffff1660e01b815260040160206040518083038186803b15801561091257600080fd5b505afa158015610926573d6000803e3d6000fd5b505050506040513d601f19601f8201168201806040525081019061094a9190610a30565b6001600160a01b0316146109a05760405162461bcd60e51b815260206004820152601960248201527f4c4f53534c4553533a204e6f7420746f6b656e2061646d696e000000000000006044820152606401610268565b6001600160a01b0383811660008181526020819052604080822080546001600160a01b0319169487169485179055517fe2b2ca2c693ccaa561f32be1f5e5e477402e70ce898a709950a590f8cd2cbbe39190a3505050565b80358015158114610a0857600080fd5b919050565b600060208284031215610a1e578081fd5b8135610a2981610bd7565b9392505050565b600060208284031215610a41578081fd5b8151610a2981610bd7565b60008060408385031215610a5e578081fd5b8235610a6981610bd7565b91506020830135610a7981610bd7565b809150509250929050565b600080600060608486031215610a98578081fd5b8335610aa381610bd7565b92506020840135610ab381610bd7565b9150610ac1604085016109f8565b90509250925092565b60008060408385031215610adc578182fd5b8235610ae781610bd7565b9150610af5602084016109f8565b90509250929050565b600080600060408486031215610b12578283fd5b833567ffffffffffffffff80821115610b29578485fd5b818601915086601f830112610b3c578485fd5b813581811115610b4a578586fd5b8760208260051b8501011115610b5e578586fd5b602092830195509350610ac191860190506109f8565b6020808252601c908201527f4c4f53534c4553533a204e6f74206c6f73736c6573732061646d696e00000000604082015260600190565b600060ff821660ff811415610bce57634e487b7160e01b82526011600452602482fd5b60010192915050565b6001600160a01b0381168114610bec57600080fd5b5056fea264697066735822122031f0fe7775818b3792504701b3a421d11756b607c0c082d11fea61f828f1f66864736f6c63430008040033",
  "linkReferences": {},
  "deployedLinkReferences": {}
}