{
  "_format": "hh-sol-artifact-1",
  "contractName": "LosslessStaking",
  "sourceName": "contracts/LosslessStaking.sol",
  "abi": [
    {
      "anonymous": false,
      "inputs": [
        {
          "indexed": true,
          "internalType": "contract ILssGovernance",
          "name": "_newContract",
          "type": "address"
        }
      ],
      "name": "NewGovernanceContract",
      "type": "event"
    },
    {
      "anonymous": false,
      "inputs": [
        {
          "indexed": true,
          "internalType": "contract ILssReporting",
          "name": "_newContract",
          "type": "address"
        }
      ],
      "name": "NewReportingContract",
      "type": "event"
    },
    {
      "anonymous": false,
      "inputs": [
        {
          "indexed": true,
          "internalType": "contract ILERC20",
          "name": "_token",
          "type": "address"
        },
        {
          "indexed": true,
          "internalType": "address",
          "name": "_account",
          "type": "address"
        },
        {
          "indexed": true,
          "internalType": "uint256",
          "name": "_reportId",
          "type": "uint256"
        },
        {
          "indexed": false,
          "internalType": "uint256",
          "name": "_amount",
          "type": "uint256"
        }
      ],
      "name": "NewStake",
      "type": "event"
    },
    {
      "anonymous": false,
      "inputs": [
        {
          "indexed": true,
          "internalType": "uint256",
          "name": "_newAmount",
          "type": "uint256"
        }
      ],
      "name": "NewStakingAmount",
      "type": "event"
    },
    {
      "anonymous": false,
      "inputs": [
        {
          "indexed": true,
          "internalType": "contract ILERC20",
          "name": "_newToken",
          "type": "address"
        }
      ],
      "name": "NewStakingToken",
      "type": "event"
    },
    {
      "anonymous": false,
      "inputs": [
        {
          "indexed": false,
          "internalType": "address",
          "name": "account",
          "type": "address"
        }
      ],
      "name": "Paused",
      "type": "event"
    },
    {
      "anonymous": false,
      "inputs": [
        {
          "indexed": true,
          "internalType": "address",
          "name": "_staker",
          "type": "address"
        },
        {
          "indexed": true,
          "internalType": "contract ILERC20",
          "name": "_token",
          "type": "address"
        },
        {
          "indexed": true,
          "internalType": "uint256",
          "name": "_reportID",
          "type": "uint256"
        },
        {
          "indexed": false,
          "internalType": "uint256",
          "name": "_amount",
          "type": "uint256"
        }
      ],
      "name": "StakerClaim",
      "type": "event"
    },
    {
      "anonymous": false,
      "inputs": [
        {
          "indexed": false,
          "internalType": "address",
          "name": "account",
          "type": "address"
        }
      ],
      "name": "Unpaused",
      "type": "event"
    },
    {
      "inputs": [],
      "name": "HUNDRED",
      "outputs": [
        {
          "internalType": "uint256",
          "name": "",
          "type": "uint256"
        }
      ],
      "stateMutability": "view",
      "type": "function"
    },
    {
      "inputs": [],
      "name": "MILLION",
      "outputs": [
        {
          "internalType": "uint256",
          "name": "",
          "type": "uint256"
        }
      ],
      "stateMutability": "view",
      "type": "function"
    },
    {
      "inputs": [
        {
          "internalType": "uint256",
          "name": "_reportId",
          "type": "uint256"
        },
        {
          "internalType": "address",
          "name": "_account",
          "type": "address"
        }
      ],
      "name": "getIsAccountStaked",
      "outputs": [
        {
          "internalType": "bool",
          "name": "",
          "type": "bool"
        }
      ],
      "stateMutability": "view",
      "type": "function"
    },
    {
      "inputs": [
        {
          "internalType": "uint256",
          "name": "_reportId",
          "type": "uint256"
        },
        {
          "internalType": "address",
          "name": "_address",
          "type": "address"
        }
      ],
      "name": "getStakedAmount",
      "outputs": [
        {
          "internalType": "uint256",
          "name": "",
          "type": "uint256"
        }
      ],
      "stateMutability": "view",
      "type": "function"
    },
    {
      "inputs": [
        {
          "internalType": "uint256",
          "name": "_reportId",
          "type": "uint256"
        },
        {
          "internalType": "address",
          "name": "_address",
          "type": "address"
        }
      ],
      "name": "getStakerCoefficient",
      "outputs": [
        {
          "internalType": "uint256",
          "name": "",
          "type": "uint256"
        }
      ],
      "stateMutability": "view",
      "type": "function"
    },
    {
      "inputs": [],
      "name": "getVersion",
      "outputs": [
        {
          "internalType": "uint256",
          "name": "",
          "type": "uint256"
        }
      ],
      "stateMutability": "pure",
      "type": "function"
    },
    {
      "inputs": [
        {
          "internalType": "contract ILssReporting",
          "name": "_losslessReporting",
          "type": "address"
        },
        {
          "internalType": "contract ILssController",
          "name": "_losslessController",
          "type": "address"
        },
        {
          "internalType": "uint256",
          "name": "_stakingAmount",
          "type": "uint256"
        }
      ],
      "name": "initialize",
      "outputs": [],
      "stateMutability": "nonpayable",
      "type": "function"
    },
    {
      "inputs": [],
      "name": "losslessController",
      "outputs": [
        {
          "internalType": "contract ILssController",
          "name": "",
          "type": "address"
        }
      ],
      "stateMutability": "view",
      "type": "function"
    },
    {
      "inputs": [],
      "name": "losslessGovernance",
      "outputs": [
        {
          "internalType": "contract ILssGovernance",
          "name": "",
          "type": "address"
        }
      ],
      "stateMutability": "view",
      "type": "function"
    },
    {
      "inputs": [],
      "name": "losslessReporting",
      "outputs": [
        {
          "internalType": "contract ILssReporting",
          "name": "",
          "type": "address"
        }
      ],
      "stateMutability": "view",
      "type": "function"
    },
    {
      "inputs": [],
      "name": "pause",
      "outputs": [],
      "stateMutability": "nonpayable",
      "type": "function"
    },
    {
      "inputs": [],
      "name": "paused",
      "outputs": [
        {
          "internalType": "bool",
          "name": "",
          "type": "bool"
        }
      ],
      "stateMutability": "view",
      "type": "function"
    },
    {
      "inputs": [
        {
          "internalType": "uint256",
          "name": "",
          "type": "uint256"
        }
      ],
      "name": "reportCoefficient",
      "outputs": [
        {
          "internalType": "uint256",
          "name": "",
          "type": "uint256"
        }
      ],
      "stateMutability": "view",
      "type": "function"
    },
    {
      "inputs": [
        {
          "internalType": "contract ILssGovernance",
          "name": "_losslessGovernance",
          "type": "address"
        }
      ],
      "name": "setLosslessGovernance",
      "outputs": [],
      "stateMutability": "nonpayable",
      "type": "function"
    },
    {
      "inputs": [
        {
          "internalType": "contract ILssReporting",
          "name": "_losslessReporting",
          "type": "address"
        }
      ],
      "name": "setLssReporting",
      "outputs": [],
      "stateMutability": "nonpayable",
      "type": "function"
    },
    {
      "inputs": [
        {
          "internalType": "uint256",
          "name": "_stakingAmount",
          "type": "uint256"
        }
      ],
      "name": "setStakingAmount",
      "outputs": [],
      "stateMutability": "nonpayable",
      "type": "function"
    },
    {
      "inputs": [
        {
          "internalType": "contract ILERC20",
          "name": "_stakingToken",
          "type": "address"
        }
      ],
      "name": "setStakingToken",
      "outputs": [],
      "stateMutability": "nonpayable",
      "type": "function"
    },
    {
      "inputs": [
        {
          "internalType": "uint256",
          "name": "_reportId",
          "type": "uint256"
        }
      ],
      "name": "stake",
      "outputs": [],
      "stateMutability": "nonpayable",
      "type": "function"
    },
    {
      "inputs": [
        {
          "internalType": "uint256",
          "name": "_reportId",
          "type": "uint256"
        }
      ],
      "name": "stakerClaim",
      "outputs": [],
      "stateMutability": "nonpayable",
      "type": "function"
    },
    {
      "inputs": [
        {
          "internalType": "uint256",
          "name": "_reportId",
          "type": "uint256"
        }
      ],
      "name": "stakerClaimableAmount",
      "outputs": [
        {
          "internalType": "uint256",
          "name": "",
          "type": "uint256"
        }
      ],
      "stateMutability": "view",
      "type": "function"
    },
    {
      "inputs": [],
      "name": "stakingAmount",
      "outputs": [
        {
          "internalType": "uint256",
          "name": "",
          "type": "uint256"
        }
      ],
      "stateMutability": "view",
      "type": "function"
    },
    {
      "inputs": [],
      "name": "stakingToken",
      "outputs": [
        {
          "internalType": "contract ILERC20",
          "name": "",
          "type": "address"
        }
      ],
      "stateMutability": "view",
      "type": "function"
    },
    {
      "inputs": [],
      "name": "unpause",
      "outputs": [],
      "stateMutability": "nonpayable",
      "type": "function"
    }
  ],
  "bytecode": "0x608060405234801561001057600080fd5b50611a89806100206000396000f3fe608060405234801561001057600080fd5b506004361061014d5760003560e01c80635b38b511116100c3578063a694fc3a1161007c578063a694fc3a14610307578063c8eca3871461031a578063d0ab12261461032d578063d5cb96d814610340578063f85fc0ab14610353578063fc0cf0121461035b57600080fd5b80635b38b5111461027c5780635c975abb146102c55780636c5ec212146102d057806372f702f3146102e3578063739a3e02146102f65780638456cb59146102ff57600080fd5b806332bc934c1161011557806332bc934c146101db57806338274599146101e55780633a719d58146101f85780633a71ede81461022e5780633f230872146102615780633f4ba83a1461027457600080fd5b80630a187b22146101525780630d8e6e2c146101825780631794bb3c146101935780631e9b12ef146101a85780632cd7f1a9146101bb575b600080fd5b606654610165906001600160a01b031681565b6040516001600160a01b0390911681526020015b60405180910390f35b60015b604051908152602001610179565b6101a66101a1366004611856565b61036e565b005b6101a66101b636600461183a565b610464565b6101856101c9366004611896565b606b6020526000908152604090205481565b610185620f424081565b6101856101f3366004611896565b61058a565b6101856102063660046118c6565b6001600160a01b03166000908152606a60209081526040808320938352929052206001015490565b61018561023c3660046118c6565b6001600160a01b03166000908152606c60209081526040808320938352929052205490565b6101a661026f366004611896565b610719565b6101a66108a1565b6102b561028a3660046118c6565b6001600160a01b03166000908152606a60209081526040808320938352929052206003015460ff1690565b6040519015158152602001610179565b60335460ff166102b5565b6101a66102de36600461183a565b61098b565b606554610165906001600160a01b031681565b61018560695481565b6101a6610ab1565b6101a6610315366004611896565b610b99565b6101a661032836600461183a565b611135565b606854610165906001600160a01b031681565b6101a661034e366004611896565b61125b565b610185606481565b606754610165906001600160a01b031681565b600054610100900460ff166103895760005460ff161561038d565b303b155b6103f55760405162461bcd60e51b815260206004820152602e60248201527f496e697469616c697a61626c653a20636f6e747261637420697320616c72656160448201526d191e481a5b9a5d1a585b1a5e995960921b60648201526084015b60405180910390fd5b600054610100900460ff16158015610417576000805461ffff19166101011790555b606680546001600160a01b038087166001600160a01b03199283161790925560678054928616929091169190911790556069829055801561045e576000805461ff00191690555b50505050565b606760009054906101000a90046001600160a01b03166001600160a01b031663f851a4406040518163ffffffff1660e01b815260040160206040518083038186803b1580156104b257600080fd5b505afa1580156104c6573d6000803e3d6000fd5b505050506040513d601f19601f820116820180604052508101906104ea9190611774565b6001600160a01b0316336001600160a01b03161461051a5760405162461bcd60e51b81526004016103ec9061192a565b6001600160a01b0381166105405760405162461bcd60e51b81526004016103ec90611980565b606580546001600160a01b0319166001600160a01b0383169081179091556040517f440200cffeb6e2a5452bfbf38f210983589ee79d8f9277b2bd9e64d93ba5d24390600090a250565b600080606660009054906101000a90046001600160a01b03166001600160a01b0316630572b0cc6040518163ffffffff1660e01b815260040160806040518083038186803b1580156105db57600080fd5b505afa1580156105ef573d6000803e3d6000fd5b505050506040513d601f19601f8201168201806040525081019061061391906118f5565b6068546040516327b4317760e21b815260048101899052919550600094506001600160a01b03169250639ed0c5dc915060240160206040518083038186803b15801561065e57600080fd5b505afa158015610672573d6000803e3d6000fd5b505050506040513d601f19601f8201168201806040525081019061069691906118ae565b9050600060646106a684846119ef565b6106b091906119cf565b336000908152606a60209081526040808320898452825280832060010154606b909252822054929350916106e7620f4240856119ef565b6106f191906119cf565b90506000620f424061070384846119ef565b61070d91906119cf565b98975050505050505050565b606760009054906101000a90046001600160a01b03166001600160a01b031663f851a4406040518163ffffffff1660e01b815260040160206040518083038186803b15801561076757600080fd5b505afa15801561077b573d6000803e3d6000fd5b505050506040513d601f19601f8201168201806040525081019061079f9190611774565b6001600160a01b0316336001600160a01b0316146107cf5760405162461bcd60e51b81526004016103ec9061192a565b8061081c5760405162461bcd60e51b815260206004820152601e60248201527f4c53533a204d7573742062652067726561746572207468616e207a65726f000060448201526064016103ec565b60695481141561086e5760405162461bcd60e51b815260206004820152601f60248201527f4c53533a20416c72656164792073657420746f207468617420616d6f756e740060448201526064016103ec565b606981905560405181907f501b7f24bc4bcc569d4d6d18c08717bec05cefdd0d6f2488bd8a329154cbcdf390600090a250565b606760009054906101000a90046001600160a01b03166001600160a01b0316632f11d6536040518163ffffffff1660e01b815260040160206040518083038186803b1580156108ef57600080fd5b505afa158015610903573d6000803e3d6000fd5b505050506040513d601f19601f820116820180604052508101906109279190611774565b6001600160a01b0316336001600160a01b0316146109815760405162461bcd60e51b81526020600482015260176024820152762629a99d1026bab9ba103132903830bab9b2a0b236b4b760491b60448201526064016103ec565b610989611674565b565b606760009054906101000a90046001600160a01b03166001600160a01b031663f851a4406040518163ffffffff1660e01b815260040160206040518083038186803b1580156109d957600080fd5b505afa1580156109ed573d6000803e3d6000fd5b505050506040513d601f19601f82011682018060405250810190610a119190611774565b6001600160a01b0316336001600160a01b031614610a415760405162461bcd60e51b81526004016103ec9061192a565b6001600160a01b038116610a675760405162461bcd60e51b81526004016103ec90611980565b606680546001600160a01b0319166001600160a01b0383169081179091556040517f7f8882a3606acef8365389764b9e326b26c7412f8f5d3eb969acd6e6fb36e5c290600090a250565b606760009054906101000a90046001600160a01b03166001600160a01b0316632f11d6536040518163ffffffff1660e01b815260040160206040518083038186803b158015610aff57600080fd5b505afa158015610b13573d6000803e3d6000fd5b505050506040513d601f19601f82011682018060405250810190610b379190611774565b6001600160a01b0316336001600160a01b031614610b915760405162461bcd60e51b81526020600482015260176024820152762629a99d1026bab9ba103132903830bab9b2a0b236b4b760491b60448201526064016103ec565b610989611707565b606754604051633e7e4af960e21b81523360048201526001600160a01b039091169063f9f92be49060240160206040518083038186803b158015610bdc57600080fd5b505afa158015610bf0573d6000803e3d6000fd5b505050506040513d601f19601f82011682018060405250810190610c149190611820565b15610c615760405162461bcd60e51b815260206004820152601760248201527f4c53533a20596f752063616e6e6f74206f70657261746500000000000000000060448201526064016103ec565b60335460ff1615610c845760405162461bcd60e51b81526004016103ec90611956565b606854604051630b18acb760e21b8152600481018390526001600160a01b0390911690632c62b2dc9060240160206040518083038186803b158015610cc857600080fd5b505afa158015610cdc573d6000803e3d6000fd5b505050506040513d601f19601f82011682018060405250810190610d009190611820565b15610d4d5760405162461bcd60e51b815260206004820152601c60248201527f4c53533a205265706f727420616c7265616479207265736f6c7665640000000060448201526064016103ec565b336000908152606a6020908152604080832084845290915280822060665491516303fd300d60e51b815260048101859052909291829182916001600160a01b031690637fa601a09060240160e06040518083038186803b158015610db057600080fd5b505afa158015610dc4573d6000803e3d6000fd5b505050506040513d601f19601f82011682018060405250810190610de89190611797565b505060038901549497509095509350505060ff1615610e3f5760405162461bcd60e51b81526020600482015260136024820152721314d4ce88185b1c9958591e481cdd185ad959606a1b60448201526064016103ec565b336001600160a01b0384161415610e985760405162461bcd60e51b815260206004820152601b60248201527f4c53533a207265706f727465722063616e206e6f74207374616b65000000000060448201526064016103ec565b6066546040805163492a023d60e11b8152905184926000926001600160a01b0390911691639254047a91600480820192602092909190829003018186803b158015610ee257600080fd5b505afa158015610ef6573d6000803e3d6000fd5b505050506040513d601f19601f82011682018060405250810190610f1a91906118ae565b90508615801590610f33575042610f3182846119b7565b115b610f7f5760405162461bcd60e51b815260206004820152601b60248201527f4c53533a207265706f727420646f6573206e6f7420657869737473000000000060448201526064016103ec565b600042610f8c83856119b7565b610f969190611a0e565b428855600180890182905560038901805460ff191690911790556000898152606b6020526040812080549293508392909190610fd39084906119b7565b90915550506065546069546040516323b872dd60e01b815233600482015230602482015260448101919091526001600160a01b03909116906323b872dd90606401602060405180830381600087803b15801561102e57600080fd5b505af1158015611042573d6000803e3d6000fd5b505050506040513d601f19601f820116820180604052508101906110669190611820565b6110b25760405162461bcd60e51b815260206004820152601c60248201527f4c53533a205374616b696e67207472616e73666572206661696c65640000000060448201526064016103ec565b6069548760020160008282546110c891906119b7565b9091555050606954336000818152606c602090815260408083208d845282529182902084905590519283528a926001600160a01b038816917f4ebc84b2d5b520f6b314701d1240a9ddfd3253f2723dd65bcc41e016c96d6be4910160405180910390a45050505050505050565b606760009054906101000a90046001600160a01b03166001600160a01b031663f851a4406040518163ffffffff1660e01b815260040160206040518083038186803b15801561118357600080fd5b505afa158015611197573d6000803e3d6000fd5b505050506040513d601f19601f820116820180604052508101906111bb9190611774565b6001600160a01b0316336001600160a01b0316146111eb5760405162461bcd60e51b81526004016103ec9061192a565b6001600160a01b0381166112115760405162461bcd60e51b81526004016103ec90611980565b606880546001600160a01b0319166001600160a01b0383169081179091556040517ffb63970612c4356d3217d8f62d2e878e96269335085c35374c27b713cfa3e9b990600090a250565b60335460ff161561127e5760405162461bcd60e51b81526004016103ec90611956565b336000908152606a6020908152604080832084845290915290206003810154610100900460ff16156112f25760405162461bcd60e51b815260206004820152601860248201527f4c53533a20596f7520616c726561647920636c61696d6564000000000000000060448201526064016103ec565b60685460405163c3d8ca2f60e01b8152600481018490526001600160a01b039091169063c3d8ca2f9060240160206040518083038186803b15801561133657600080fd5b505afa15801561134a573d6000803e3d6000fd5b505050506040513d601f19601f8201168201806040525081019061136e9190611820565b6113ba5760405162461bcd60e51b815260206004820152601d60248201527f4c53533a205265706f727420736f6c766564206e656761746976656c7900000060448201526064016103ec565b60038101805461ff00191661010017905560006113d68361058a565b6066546040516303fd300d60e51b8152600481018690529192506000916001600160a01b0390911690637fa601a09060240160e06040518083038186803b15801561142057600080fd5b505afa158015611434573d6000803e3d6000fd5b505050506040513d601f19601f820116820180604052508101906114589190611797565b505060405163a9059cbb60e01b8152336004820152602481018890529095506001600160a01b038616945063a9059cbb935060440191506114969050565b602060405180830381600087803b1580156114b057600080fd5b505af11580156114c4573d6000803e3d6000fd5b505050506040513d601f19601f820116820180604052508101906114e89190611820565b6115345760405162461bcd60e51b815260206004820152601b60248201527f4c53533a20526577617264207472616e73666572206661696c6564000000000060448201526064016103ec565b606554336000818152606c602090815260408083208984529091529081902054905163a9059cbb60e01b8152600481019290925260248201526001600160a01b039091169063a9059cbb90604401602060405180830381600087803b15801561159c57600080fd5b505af11580156115b0573d6000803e3d6000fd5b505050506040513d601f19601f820116820180604052508101906115d49190611820565b6116205760405162461bcd60e51b815260206004820152601c60248201527f4c53533a205374616b696e67207472616e73666572206661696c65640000000060448201526064016103ec565b83816001600160a01b0316336001600160a01b03167fd1f69ecb6d175a3c5ce5d2fdec0f13b867394898b1634e1445c22c8434d16d198560405161166691815260200190565b60405180910390a450505050565b60335460ff166116bd5760405162461bcd60e51b815260206004820152601460248201527314185d5cd8589b194e881b9bdd081c185d5cd95960621b60448201526064016103ec565b6033805460ff191690557f5db9ee0a495bf2e6ff9c91a7834c1ba4fdd244a5e8aa4e537bd38aeae4b073aa335b6040516001600160a01b03909116815260200160405180910390a1565b60335460ff161561172a5760405162461bcd60e51b81526004016103ec90611956565b6033805460ff191660011790557f62e78cea01bee320cd4e420270b5ea74000d11b0c9f74754ebdbfc544b05a2586116ea3390565b8051801515811461176f57600080fd5b919050565b600060208284031215611785578081fd5b815161179081611a3b565b9392505050565b600080600080600080600060e0888a0312156117b1578283fd5b87516117bc81611a3b565b60208901519097506117cd81611a3b565b60408901519096506117de81611a3b565b606089015160808a015191965094506117f681611a3b565b925061180460a0890161175f565b915061181260c0890161175f565b905092959891949750929550565b600060208284031215611831578081fd5b6117908261175f565b60006020828403121561184b578081fd5b813561179081611a3b565b60008060006060848603121561186a578283fd5b833561187581611a3b565b9250602084013561188581611a3b565b929592945050506040919091013590565b6000602082840312156118a7578081fd5b5035919050565b6000602082840312156118bf578081fd5b5051919050565b600080604083850312156118d8578182fd5b8235915060208301356118ea81611a3b565b809150509250929050565b6000806000806080858703121561190a578384fd5b505082516020840151604085015160609095015191969095509092509050565b6020808252601290820152712629a99d1026bab9ba1031329030b236b4b760711b604082015260600190565b60208082526010908201526f14185d5cd8589b194e881c185d5cd95960821b604082015260600190565b6020808252601e908201527f4c45524332303a2043616e6e6f74206265207a65726f20616464726573730000604082015260600190565b600082198211156119ca576119ca611a25565b500190565b6000826119ea57634e487b7160e01b81526012600452602481fd5b500490565b6000816000190483118215151615611a0957611a09611a25565b500290565b600082821015611a2057611a20611a25565b500390565b634e487b7160e01b600052601160045260246000fd5b6001600160a01b0381168114611a5057600080fd5b5056fea264697066735822122070dcd0aca148185abadee10c89a7a959d75574556d289a43c806295a602caedb64736f6c63430008040033",
  "linkReferences": {},
  "deployedLinkReferences": {}
}