{
  "_format": "hh-sol-artifact-1",
  "contractName": "MockTransfer",
  "sourceName": "contracts/utils/mockTransfer.sol",
  "abi": [
    {
      "inputs": [
        {
          "internalType": "address",
          "name": "_lerc20Token",
          "type": "address"
        }
      ],
      "name": "initialize",
      "outputs": [],
      "stateMutability": "nonpayable",
      "type": "function"
    },
    {
      "inputs": [],
      "name": "lerc20Token",
      "outputs": [
        {
          "internalType": "contract ILERC20",
          "name": "",
          "type": "address"
        }
      ],
      "stateMutability": "view",
      "type": "function"
    },
    {
      "inputs": [
        {
          "internalType": "address",
          "name": "from",
          "type": "address"
        },
        {
          "internalType": "address",
          "name": "to",
          "type": "address"
        },
        {
          "internalType": "uint256",
          "name": "amount",
          "type": "uint256"
        }
      ],
      "name": "testSameTimestamp",
      "outputs": [],
      "stateMutability": "nonpayable",
      "type": "function"
    }
  ],
  "bytecode": "0x608060405234801561001057600080fd5b50610382806100206000396000f3fe608060405234801561001057600080fd5b50600436106100415760003560e01c8063b2bcff3d14610046578063b9e5fb981461005b578063c4d66de814610090575b600080fd5b6100596100543660046102f1565b6100a3565b005b600054610074906201000090046001600160a01b031681565b6040516001600160a01b03909116815260200160405180910390f35b61005961009e3660046102d0565b6101d4565b6000546040516323b872dd60e01b81526001600160a01b03858116600483015284811660248301526044820184905262010000909204909116906323b872dd90606401602060405180830381600087803b15801561010057600080fd5b505af1158015610114573d6000803e3d6000fd5b505050506040513d601f19601f82011682018060405250810190610138919061032c565b506000546040516323b872dd60e01b81526001600160a01b03858116600483015284811660248301526044820184905262010000909204909116906323b872dd90606401602060405180830381600087803b15801561019657600080fd5b505af11580156101aa573d6000803e3d6000fd5b505050506040513d601f19601f820116820180604052508101906101ce919061032c565b50505050565b600054610100900460ff166101ef5760005460ff16156101f3565b303b155b61025a5760405162461bcd60e51b815260206004820152602e60248201527f496e697469616c697a61626c653a20636f6e747261637420697320616c72656160448201526d191e481a5b9a5d1a585b1a5e995960921b606482015260840160405180910390fd5b600054610100900460ff1615801561027c576000805461ffff19166101011790555b6000805462010000600160b01b031916620100006001600160a01b0385160217905580156102b0576000805461ff00191690555b5050565b80356001600160a01b03811681146102cb57600080fd5b919050565b6000602082840312156102e1578081fd5b6102ea826102b4565b9392505050565b600080600060608486031215610305578182fd5b61030e846102b4565b925061031c602085016102b4565b9150604084013590509250925092565b60006020828403121561033d578081fd5b815180151581146102ea578182fdfea2646970667358221220f21735bc74a2a311a9536a4e80aa886f7fc287c9d338c5f2989d345577fee89b64736f6c63430008040033",
  "linkReferences": {},
  "deployedLinkReferences": {}
}