{
  "_format": "hh-sol-artifact-1",
  "contractName": "LiquidityProtectionMultipleLimitsStrategy",
  "sourceName": "contracts/vault-protection/LiquidityProtectionMultipleLimitsStrategy.sol",
  "abi": [
    {
      "inputs": [
        {
          "internalType": "contract Guardian",
          "name": "_guardian",
          "type": "address"
        },
        {
          "internalType": "contract LosslessController",
          "name": "_controller",
          "type": "address"
        }
      ],
      "stateMutability": "nonpayable",
      "type": "constructor"
    },
    {
      "anonymous": false,
      "inputs": [
        {
          "indexed": true,
          "internalType": "address",
          "name": "newGuardian",
          "type": "address"
        }
      ],
      "name": "GuardianSet",
      "type": "event"
    },
    {
      "anonymous": false,
      "inputs": [
        {
          "indexed": true,
          "internalType": "address",
          "name": "token",
          "type": "address"
        },
        {
          "indexed": true,
          "internalType": "address",
          "name": "protectedAddress",
          "type": "address"
        }
      ],
      "name": "Paused",
      "type": "event"
    },
    {
      "anonymous": false,
      "inputs": [
        {
          "indexed": true,
          "internalType": "address",
          "name": "token",
          "type": "address"
        },
        {
          "indexed": true,
          "internalType": "address",
          "name": "protectedAddress",
          "type": "address"
        }
      ],
      "name": "Unpaused",
      "type": "event"
    },
    {
      "inputs": [],
      "name": "controller",
      "outputs": [
        {
          "internalType": "contract LosslessController",
          "name": "",
          "type": "address"
        }
      ],
      "stateMutability": "view",
      "type": "function"
    },
    {
      "inputs": [
        {
          "internalType": "address",
          "name": "token",
          "type": "address"
        },
        {
          "internalType": "address",
          "name": "protectedAddress",
          "type": "address"
        },
        {
          "internalType": "uint256",
          "name": "index",
          "type": "uint256"
        }
      ],
      "name": "getLimit",
      "outputs": [
        {
          "components": [
            {
              "internalType": "uint256",
              "name": "periodInSeconds",
              "type": "uint256"
            },
            {
              "internalType": "uint256",
              "name": "lastCheckpointTime",
              "type": "uint256"
            },
            {
              "internalType": "uint256",
              "name": "amountPerPeriod",
              "type": "uint256"
            },
            {
              "internalType": "uint256",
              "name": "amountLeftInCurrentPeriod",
              "type": "uint256"
            }
          ],
          "internalType": "struct LiquidityProtectionMultipleLimitsStrategy.Limit",
          "name": "",
          "type": "tuple"
        }
      ],
      "stateMutability": "view",
      "type": "function"
    },
    {
      "inputs": [
        {
          "internalType": "address",
          "name": "token",
          "type": "address"
        },
        {
          "internalType": "address",
          "name": "protectedAddress",
          "type": "address"
        }
      ],
      "name": "getLimitsLength",
      "outputs": [
        {
          "internalType": "uint256",
          "name": "",
          "type": "uint256"
        }
      ],
      "stateMutability": "view",
      "type": "function"
    },
    {
      "inputs": [],
      "name": "guardian",
      "outputs": [
        {
          "internalType": "contract Guardian",
          "name": "",
          "type": "address"
        }
      ],
      "stateMutability": "view",
      "type": "function"
    },
    {
      "inputs": [
        {
          "internalType": "address",
          "name": "token",
          "type": "address"
        },
        {
          "internalType": "address",
          "name": "sender",
          "type": "address"
        },
        {
          "internalType": "address",
          "name": "recipient",
          "type": "address"
        },
        {
          "internalType": "uint256",
          "name": "amount",
          "type": "uint256"
        }
      ],
      "name": "isTransferAllowed",
      "outputs": [],
      "stateMutability": "nonpayable",
      "type": "function"
    },
    {
      "inputs": [
        {
          "internalType": "address",
          "name": "token",
          "type": "address"
        },
        {
          "internalType": "address",
          "name": "protectedAddress",
          "type": "address"
        }
      ],
      "name": "pause",
      "outputs": [],
      "stateMutability": "nonpayable",
      "type": "function"
    },
    {
      "inputs": [
        {
          "internalType": "address",
          "name": "token",
          "type": "address"
        },
        {
          "internalType": "address[]",
          "name": "protectedAddresses",
          "type": "address[]"
        }
      ],
      "name": "removeLimits",
      "outputs": [],
      "stateMutability": "nonpayable",
      "type": "function"
    },
    {
      "inputs": [
        {
          "internalType": "contract Guardian",
          "name": "newGuardian",
          "type": "address"
        }
      ],
      "name": "setGuardian",
      "outputs": [],
      "stateMutability": "nonpayable",
      "type": "function"
    },
    {
      "inputs": [
        {
          "internalType": "address",
          "name": "token",
          "type": "address"
        },
        {
          "internalType": "address",
          "name": "protectedAddress",
          "type": "address"
        },
        {
          "internalType": "uint256[]",
          "name": "periodsInSeconds",
          "type": "uint256[]"
        },
        {
          "internalType": "uint256[]",
          "name": "amountsPerPeriod",
          "type": "uint256[]"
        },
        {
          "internalType": "uint256[]",
          "name": "startTimestamp",
          "type": "uint256[]"
        }
      ],
      "name": "setLimits",
      "outputs": [],
      "stateMutability": "nonpayable",
      "type": "function"
    },
    {
      "inputs": [
        {
          "internalType": "address",
          "name": "token",
          "type": "address"
        },
        {
          "internalType": "address[]",
          "name": "protectedAddresses",
          "type": "address[]"
        },
        {
          "internalType": "uint256[]",
          "name": "periodsInSeconds",
          "type": "uint256[]"
        },
        {
          "internalType": "uint256[]",
          "name": "amountsPerPeriod",
          "type": "uint256[]"
        },
        {
          "internalType": "uint256[]",
          "name": "startTimestamp",
          "type": "uint256[]"
        }
      ],
      "name": "setLimitsBatched",
      "outputs": [],
      "stateMutability": "nonpayable",
      "type": "function"
    },
    {
      "inputs": [
        {
          "internalType": "address",
          "name": "token",
          "type": "address"
        },
        {
          "internalType": "address",
          "name": "protectedAddress",
          "type": "address"
        }
      ],
      "name": "unpause",
      "outputs": [],
      "stateMutability": "nonpayable",
      "type": "function"
    }
  ],
  "bytecode": "0x60806040523480156200001157600080fd5b5060405162001a6638038062001a66833981016040819052620000349162000066565b600080546001600160a01b039384166001600160a01b03199182161790915560018054929093169116179055620000bd565b6000806040838503121562000079578182fd5b82516200008681620000a4565b60208401519092506200009981620000a4565b809150509250929050565b6001600160a01b0381168114620000ba57600080fd5b50565b61199980620000cd6000396000f3fe608060405234801561001057600080fd5b50600436106100a95760003560e01c80636747e119116100715780636747e1191461012c57806382e76cbf1461014d5780638a0dac4a14610160578063d4bab30314610173578063f11ce42914610186578063f77c4791146101cc57600080fd5b806307761407146100ae5780633c4a3740146100c3578063452a9320146100d657806355196de914610106578063590308a514610119575b600080fd5b6100c16100bc36600461172c565b6101df565b005b6100c16100d13660046115a9565b6103e6565b6000546100e9906001600160a01b031681565b6040516001600160a01b0390911681526020015b60405180910390f35b6100c161011436600461177f565b610818565b6100c16101273660046115a9565b6109e5565b61013f61013a3660046115a9565b610d29565b6040519081526020016100fd565b6100c161015b366004611631565b610d56565b6100c161016e366004611571565b610e87565b6100c16101813660046115e1565b610fb7565b6101996101943660046116ec565b61114a565b6040516100fd91908151815260208083015190820152604080830151908201526060918201519181019190915260800190565b6001546100e9906001600160a01b031681565b600054604051637ce2f8d960e11b81526001600160a01b0380861660048301528592169063f9c5f1b290602401602060405180830381600087803b15801561022657600080fd5b505af115801561023a573d6000803e3d6000fd5b505050506040513d601f19601f8201168201806040525081019061025e919061158d565b6001600160a01b0316336001600160a01b0316146102975760405162461bcd60e51b815260040161028e90611873565b60405180910390fd5b60005b60ff81168311156103df576001600160a01b038516600090815260026020526040812090858560ff85168181106102e157634e487b7160e01b600052603260045260246000fd5b90506020020160208101906102f69190611571565b6001600160a01b03166001600160a01b03168152602001908152602001600020600061032291906114d6565b6000546001600160a01b031663c2659d1386868660ff861681811061035757634e487b7160e01b600052603260045260246000fd5b905060200201602081019061036c9190611571565b6040516001600160e01b031960e085901b1681526001600160a01b03928316600482015291166024820152604401600060405180830381600087803b1580156103b457600080fd5b505af11580156103c8573d6000803e3d6000fd5b5050505080806103d790611918565b91505061029a565b5050505050565b600054604051637ce2f8d960e11b81526001600160a01b0380851660048301528492169063f9c5f1b290602401602060405180830381600087803b15801561042d57600080fd5b505af1158015610441573d6000803e3d6000fd5b505050506040513d601f19601f82011682018060405250810190610465919061158d565b6001600160a01b0316336001600160a01b0316146104955760405162461bcd60e51b815260040161028e90611873565b6001546040516362d03dc960e11b81526001600160a01b03858116600483015284811660248301529091169063c5a07b929060440160206040518083038186803b1580156104e257600080fd5b505afa1580156104f6573d6000803e3d6000fd5b505050506040513d601f19601f8201168201806040525081019061051a9190611853565b6105665760405162461bcd60e51b815260206004820152601f60248201527f4c4f53534c4553533a2041646472657373206e6f742070726f74656374656400604482015260640161028e565b6001600160a01b03808416600090815260026020908152604080832093861683529290529081208054909190829082906105b057634e487b7160e01b600052603260045260246000fd5b9060005260206000209060040201600001546000196105cf9190611901565b905080826000815481106105f357634e487b7160e01b600052603260045260246000fd5b906000526020600020906004020160010154146106495760405162461bcd60e51b81526020600482015260146024820152731313d4d4d31154d4ce881b9bdd081c185d5cd95960621b604482015260640161028e565b81546106df9061065b90600190611901565b83805480602002602001604051908101604052809291908181526020016000905b828210156106d657838290600052602060002090600402016040518060800160405290816000820154815260200160018201548152602001600282015481526020016003820154815250508152602001906001019061067c565b50505050611204565b8260008154811061070057634e487b7160e01b600052603260045260246000fd5b906000526020600020906004020160008201518160000155602082015181600101556040820151816002015560608201518160030155905050816001838054905061074b9190611901565b8154811061076957634e487b7160e01b600052603260045260246000fd5b60009182526020822060049091020181815560018101829055600281018290556003015581548290806107ac57634e487b7160e01b600052603160045260246000fd5b600082815260208120600460001990930192830201818155600181018290556002810182905560030181905591556040516001600160a01b0380871692908816917f3d072963433794eb417a69355df67d08bbd73d5076ef653d6863861161d60af39190a35050505050565b600054604051637ce2f8d960e11b81526001600160a01b03808c1660048301528b92169063f9c5f1b290602401602060405180830381600087803b15801561085f57600080fd5b505af1158015610873573d6000803e3d6000fd5b505050506040513d601f19601f82011682018060405250810190610897919061158d565b6001600160a01b0316336001600160a01b0316146108c75760405162461bcd60e51b815260040161028e90611873565b60005b60ff81168911156109d8576000546001600160a01b03166308900bd88c8c8c60ff861681811061090a57634e487b7160e01b600052603260045260246000fd5b905060200201602081019061091f9190611571565b6040516001600160e01b031960e085901b1681526001600160a01b03928316600482015291166024820152604401600060405180830381600087803b15801561096757600080fd5b505af115801561097b573d6000803e3d6000fd5b505050506109c68b8b8b8460ff168181106109a657634e487b7160e01b600052603260045260246000fd5b90506020020160208101906109bb9190611571565b8a8a8a8a8a8a611304565b806109d081611918565b9150506108ca565b5050505050505050505050565b600054604051637ce2f8d960e11b81526001600160a01b0380851660048301528492169063f9c5f1b290602401602060405180830381600087803b158015610a2c57600080fd5b505af1158015610a40573d6000803e3d6000fd5b505050506040513d601f19601f82011682018060405250810190610a64919061158d565b6001600160a01b0316336001600160a01b031614610a945760405162461bcd60e51b815260040161028e90611873565b6001546040516362d03dc960e11b81526001600160a01b03858116600483015284811660248301529091169063c5a07b929060440160206040518083038186803b158015610ae157600080fd5b505afa158015610af5573d6000803e3d6000fd5b505050506040513d601f19601f82011682018060405250810190610b199190611853565b610b655760405162461bcd60e51b815260206004820152601f60248201527f4c4f53534c4553533a2041646472657373206e6f742070726f74656374656400604482015260640161028e565b6001600160a01b0380841660009081526002602090815260408083209386168352929052908120805490919082908290610baf57634e487b7160e01b600052603260045260246000fd5b6000918252602082206004909102018054909250610bcf90600019611901565b90508082600101541415610c255760405162461bcd60e51b815260206004820152601860248201527f4c4f53534c4553533a20416c7265616479207061757365640000000000000000604482015260640161028e565b82610ca560008580548060200260200160405190810160405280929190818152602001600090828210156106d657838290600052602060002090600402016040518060800160405290816000820154815260200160018201548152602001600282015481526020016003820154815250508152602001906001019061067c565b8154600181810184556000938452602080852084516004909402019283558301518282015560408084015160028401556060909301516003928301559085018390558401839055516001600160a01b0380881692908916917f3dd4f37ca5eaf6c357698a52c806820426d7c9a26adb0991c3bebb09cf23352a9190a3505050505050565b6001600160a01b038083166000908152600260209081526040808320938516835292905220545b92915050565b600054604051637ce2f8d960e11b81526001600160a01b03808b1660048301528a92169063f9c5f1b290602401602060405180830381600087803b158015610d9d57600080fd5b505af1158015610db1573d6000803e3d6000fd5b505050506040513d601f19601f82011682018060405250810190610dd5919061158d565b6001600160a01b0316336001600160a01b031614610e055760405162461bcd60e51b815260040161028e90611873565b600054604051630112017b60e31b81526001600160a01b038b811660048301528a81166024830152909116906308900bd890604401600060405180830381600087803b158015610e5457600080fd5b505af1158015610e68573d6000803e3d6000fd5b50505050610e7c8989898989898989611304565b505050505050505050565b600160009054906101000a90046001600160a01b03166001600160a01b031663f851a4406040518163ffffffff1660e01b8152600401602060405180830381600087803b158015610ed757600080fd5b505af1158015610eeb573d6000803e3d6000fd5b505050506040513d601f19601f82011682018060405250810190610f0f919061158d565b6001600160a01b0316336001600160a01b031614610f6f5760405162461bcd60e51b815260206004820152601c60248201527f4c4f53534c4553533a204e6f74206c6f73736c6573732061646d696e00000000604482015260640161028e565b600080546001600160a01b0319166001600160a01b038316908117825560405190917fe6c09ffe4572dc9ceaa5ddde4ae41befa655d6fdfe8052077af0970f700e942e91a250565b6001546001600160a01b031633146110115760405162461bcd60e51b815260206004820152601d60248201527f4c4f53534c4553533a204c535320436f6e74726f6c6c6572206f6e6c79000000604482015260640161028e565b6001600160a01b0380851660009081526002602090815260408083209387168352929052908120905b815460ff82161015611142576000828260ff168154811061106b57634e487b7160e01b600052603260045260246000fd5b90600052602060002090600402019050428160000154826001015461109091906118aa565b11156110ae576110a4848260030154611482565b60038201556110db565b6110c0816001015482600001546114a4565b600182015560028101546110d5908590611482565b60038201555b600081600301541161112f5760405162461bcd60e51b815260206004820181905260248201527f4c4f53534c4553533a205374726174656779206c696d69742072656163686564604482015260640161028e565b508061113a81611918565b91505061103a565b505050505050565b6111756040518060800160405280600081526020016000815260200160008152602001600081525090565b6001600160a01b0380851660009081526002602090815260408083209387168352929052208054839081106111ba57634e487b7160e01b600052603260045260246000fd5b906000526020600020906004020160405180608001604052908160008201548152602001600182015481526020016002820154815260200160038201548152505090509392505050565b61122f6040518060800160405280600081526020016000815260200160008152602001600081525090565b81838151811061124f57634e487b7160e01b600052603260045260246000fd5b6020908102919091010151518152815182908490811061127f57634e487b7160e01b600052603260045260246000fd5b6020026020010151604001518160400181815250508183815181106112b457634e487b7160e01b600052603260045260246000fd5b6020026020010151602001518160200181815250508183815181106112e957634e487b7160e01b600052603260045260246000fd5b60200260200101516060015181606001818152505092915050565b6001600160a01b038089166000908152600260209081526040808320938b168352929052908120905b60ff8116871115611476576113636040518060800160405280600081526020016000815260200160008152602001600081525090565b88888360ff1681811061138657634e487b7160e01b600052603260045260246000fd5b6020029190910135825250868660ff84168181106113b457634e487b7160e01b600052603260045260246000fd5b6020029190910135604083015250848460ff84168181106113e557634e487b7160e01b600052603260045260246000fd5b9050602002013581602001818152505086868360ff1681811061141857634e487b7160e01b600052603260045260246000fd5b602090810292909201356060840190815285546001818101885560008881528590208651600490930201918255938501519381019390935560409093015160028301555090516003909101558061146e81611918565b91505061132d565b50505050505050505050565b600081831061149357506000610d50565b61149d8383611901565b9050610d50565b6000816114b18442611901565b6114bb91906118c2565b6114c590836118e2565b6114cf90846118aa565b9392505050565b50805460008255600402906000526020600020908101906114f791906114fa565b50565b5b80821115611523576000808255600182018190556002820181905560038201556004016114fb565b5090565b60008083601f840112611538578182fd5b50813567ffffffffffffffff81111561154f578182fd5b6020830191508360208260051b850101111561156a57600080fd5b9250929050565b600060208284031215611582578081fd5b81356114cf8161194e565b60006020828403121561159e578081fd5b81516114cf8161194e565b600080604083850312156115bb578081fd5b82356115c68161194e565b915060208301356115d68161194e565b809150509250929050565b600080600080608085870312156115f6578182fd5b84356116018161194e565b935060208501356116118161194e565b925060408501356116218161194e565b9396929550929360600135925050565b60008060008060008060008060a0898b03121561164c578384fd5b88356116578161194e565b975060208901356116678161194e565b9650604089013567ffffffffffffffff80821115611683578586fd5b61168f8c838d01611527565b909850965060608b01359150808211156116a7578586fd5b6116b38c838d01611527565b909650945060808b01359150808211156116cb578384fd5b506116d88b828c01611527565b999c989b5096995094979396929594505050565b600080600060608486031215611700578283fd5b833561170b8161194e565b9250602084013561171b8161194e565b929592945050506040919091013590565b600080600060408486031215611740578283fd5b833561174b8161194e565b9250602084013567ffffffffffffffff811115611766578283fd5b61177286828701611527565b9497909650939450505050565b600080600080600080600080600060a08a8c03121561179c578081fd5b89356117a78161194e565b985060208a013567ffffffffffffffff808211156117c3578283fd5b6117cf8d838e01611527565b909a50985060408c01359150808211156117e7578283fd5b6117f38d838e01611527565b909850965060608c013591508082111561180b578283fd5b6118178d838e01611527565b909650945060808c013591508082111561182f578283fd5b5061183c8c828d01611527565b915080935050809150509295985092959850929598565b600060208284031215611864578081fd5b815180151581146114cf578182fd5b6020808252601e908201527f4c4f53534c4553533a204e6f742070726f74656374696f6e2061646d696e0000604082015260600190565b600082198211156118bd576118bd611938565b500190565b6000826118dd57634e487b7160e01b81526012600452602481fd5b500490565b60008160001904831182151516156118fc576118fc611938565b500290565b60008282101561191357611913611938565b500390565b600060ff821660ff81141561192f5761192f611938565b60010192915050565b634e487b7160e01b600052601160045260246000fd5b6001600160a01b03811681146114f757600080fdfea2646970667358221220e1f1dc5bee28b68818ef5bf8a870c6c28deb28b31c69f08faf0906ad80b41d2c64736f6c63430008040033",
  "linkReferences": {},
  "deployedLinkReferences": {}
}